{
  "address": "0xb365Ad4228B32e3983c2692711B512f4E48f1b61",
  "abi": [
    {
      "inputs": [
        {
          "internalType": "uint256",
          "name": "targetChainId",
          "type": "uint256"
        }
      ],
      "stateMutability": "nonpayable",
      "type": "constructor"
    },
    {
      "inputs": [],
      "name": "BROADCAST_CHAIN_ID",
      "outputs": [
        {
          "internalType": "uint256",
          "name": "",
          "type": "uint256"
        }
      ],
      "stateMutability": "view",
      "type": "function"
    },
    {
      "inputs": [],
      "name": "TARGET_CHAIN_ID",
      "outputs": [
        {
          "internalType": "uint256",
          "name": "",
          "type": "uint256"
        }
      ],
      "stateMutability": "view",
      "type": "function"
    },
    {
      "inputs": [
        {
          "internalType": "bytes",
          "name": "data",
          "type": "bytes"
        }
      ],
      "name": "_generateCommitment",
      "outputs": [],
      "stateMutability": "nonpayable",
      "type": "function"
    },
    {
      "inputs": [],
      "name": "latestCommitment",
      "outputs": [
        {
          "internalType": "bytes32",
          "name": "",
          "type": "bytes32"
        }
      ],
      "stateMutability": "view",
      "type": "function"
    },
    {
      "inputs": [],
      "name": "nonce",
      "outputs": [
        {
          "internalType": "uint256",
          "name": "",
          "type": "uint256"
        }
      ],
      "stateMutability": "view",
      "type": "function"
    }
  ],
  "transactionHash": "0xa6ea80217489f190738bd89f01f9155b80acbbcce47da1ed2bfd70eb80e9e189",
  "args": [
    11155111
  ],
  "numDeployments": 1,
  "solcInputHash": "d4c7dc3614266a7d36c7aa07c2214cec",
  "bytecode": "0x60a03461005957601f6102d638819003918201601f19168301916001600160401b0383118484101761005e5780849260209460405283398101031261005957516080526040516102619081610075823960805181606f0152f35b600080fd5b634e487b7160e01b600052604160045260246000fdfe60806040818152600436101561001457600080fd5b600091823560e01c9081633ae7538c146101da575080636268acb2146101be5780639336bd37146100b4578063affed0e0146100965763c940baf81461005957600080fd5b34610092578160031936011261009257602090517f00000000000000000000000000000000000000000000000000000000000000008152f35b5080fd5b50346100925781600319360112610092576020906001549051908152f35b5090346101bb57602080600319360112610092576004359267ffffffffffffffff918285116101b757366023860112156101b75784600401359283116101a357815192601f199561010c8388601f85011601866101f3565b818552366024838301011161019f578186926024859301838801378501015260015492825191606081840194878652840152815191826080850152865b83811061018b5750505060a0828697601f846001998561017f9786010152886060850152011681010360808101845201826101f3565b51902083550160015580f35b81810183015185820160a001528201610149565b8580fd5b602484634e487b7160e01b81526041600452fd5b8380fd5b80fd5b5034610092578160031936011261009257602091549051908152f35b8390346100925781600319360112610092576020918152f35b90601f8019910116810190811067ffffffffffffffff82111761021557604052565b634e487b7160e01b600052604160045260246000fdfea2646970667358221220f7535f4a61eb534a1fe3ee42a9eab7d0edb12770bb5e3f75946997f31cb6314264736f6c63430008140033",
  "devdoc": {
    "kind": "dev",
    "methods": {},
    "version": 1
  },
  "userdoc": {
    "kind": "user",
    "methods": {},
    "version": 1
  },
  "storageLayout": {
    "storage": [
      {
        "astId": 3,
        "contract": "contracts/Committer.sol:Committer",
        "label": "latestCommitment",
        "offset": 0,
        "slot": "0",
        "type": "t_bytes32"
      },
      {
        "astId": 5,
        "contract": "contracts/Committer.sol:Committer",
        "label": "nonce",
        "offset": 0,
        "slot": "1",
        "type": "t_uint256"
      }
    ],
    "types": {
      "t_bytes32": {
        "encoding": "inplace",
        "label": "bytes32",
        "numberOfBytes": "32"
      },
      "t_uint256": {
        "encoding": "inplace",
        "label": "uint256",
        "numberOfBytes": "32"
      }
    }
  }
}