{
  "address": "0x558016c6337dE3efb15Af53Cb6Dc7563988f2E62",
  "abi": [
    {
      "inputs": [
        {
          "internalType": "uint256",
          "name": "targetChainId",
          "type": "uint256"
        }
      ],
      "stateMutability": "nonpayable",
      "type": "constructor"
    },
    {
      "inputs": [],
      "name": "TARGET_CHAIN_ID",
      "outputs": [
        {
          "internalType": "uint256",
          "name": "",
          "type": "uint256"
        }
      ],
      "stateMutability": "view",
      "type": "function"
    },
    {
      "inputs": [
        {
          "internalType": "bytes",
          "name": "data",
          "type": "bytes"
        }
      ],
      "name": "_generateCommitment",
      "outputs": [],
      "stateMutability": "nonpayable",
      "type": "function"
    },
    {
      "inputs": [],
      "name": "latestCommitment",
      "outputs": [
        {
          "internalType": "bytes32",
          "name": "",
          "type": "bytes32"
        }
      ],
      "stateMutability": "view",
      "type": "function"
    },
    {
      "inputs": [],
      "name": "nonce",
      "outputs": [
        {
          "internalType": "uint256",
          "name": "",
          "type": "uint256"
        }
      ],
      "stateMutability": "view",
      "type": "function"
    }
  ],
  "transactionHash": "0x20196cb835e9e3bea044d44436e02fc01df12d6c7610403804519fa2f31f3366",
  "args": [
    11155111
  ],
  "numDeployments": 3,
  "solcInputHash": "20dbbf2f25ce2598833cdc3a3d752edb",
  "bytecode": "0x60a03461006057601f6102d738819003918201601f19168301916001600160401b0383118484101761006557808492602094604052833981010312610060575160805260405161025b908161007c82396080518181816064015261012f0152f35b600080fd5b634e487b7160e01b600052604160045260246000fdfe60806040818152600436101561001457600080fd5b600091823560e01c9081636268acb2146101d3575080639336bd37146100a9578063affed0e01461008b5763c940baf81461004e57600080fd5b34610087578160031936011261008757602090517f00000000000000000000000000000000000000000000000000000000000000008152f35b5080fd5b50346100875781600319360112610087576020906001549051908152f35b5090346101d057602080600319360112610087576004359267ffffffffffffffff918285116101cc57366023860112156101cc5784600401359283116101b857815192601f19956101018388601f85011601866101ed565b81855236602483830101116101b45781869260248593018388013785010152600154928251916060818401947f00000000000000000000000000000000000000000000000000000000000000008652840152815191826080850152865b8381106101a05750505060a0828697601f84600199856101949786010152886060850152011681010360808101845201826101ed565b51902083550160015580f35b81810183015185820160a00152820161015e565b8580fd5b602484634e487b7160e01b81526041600452fd5b8380fd5b80fd5b839034610087578160031936011261008757602091548152f35b90601f8019910116810190811067ffffffffffffffff82111761020f57604052565b634e487b7160e01b600052604160045260246000fdfea2646970667358221220532b8edb16138df69e22e6ef21ef69897d9a669bb6ff7283eec5405fab8cdc6564736f6c63430008140033",
  "devdoc": {
    "kind": "dev",
    "methods": {},
    "version": 1
  },
  "userdoc": {
    "kind": "user",
    "methods": {},
    "version": 1
  },
  "storageLayout": {
    "storage": [
      {
        "astId": 3,
        "contract": "contracts/Committer.sol:Committer",
        "label": "latestCommitment",
        "offset": 0,
        "slot": "0",
        "type": "t_bytes32"
      },
      {
        "astId": 5,
        "contract": "contracts/Committer.sol:Committer",
        "label": "nonce",
        "offset": 0,
        "slot": "1",
        "type": "t_uint256"
      }
    ],
    "types": {
      "t_bytes32": {
        "encoding": "inplace",
        "label": "bytes32",
        "numberOfBytes": "32"
      },
      "t_uint256": {
        "encoding": "inplace",
        "label": "uint256",
        "numberOfBytes": "32"
      }
    }
  }
}