{
  "address": "0x7B25401E9ce0714FF493d0cc679806B309F9cD19",
  "abi": [
    {
      "inputs": [
        {
          "internalType": "uint256",
          "name": "sourceChainId",
          "type": "uint256"
        },
        {
          "internalType": "uint256",
          "name": "commitmentsSlot",
          "type": "uint256"
        },
        {
          "internalType": "address",
          "name": "giriGiriBashi",
          "type": "address"
        }
      ],
      "stateMutability": "nonpayable",
      "type": "constructor"
    },
    {
      "inputs": [
        {
          "internalType": "bytes",
          "name": "accountRlp",
          "type": "bytes"
        }
      ],
      "name": "InvalidAccountRlp",
      "type": "error"
    },
    {
      "inputs": [],
      "name": "InvalidAccountStorageRoot",
      "type": "error"
    },
    {
      "inputs": [
        {
          "internalType": "bytes32",
          "name": "blockHeaderHash",
          "type": "bytes32"
        },
        {
          "internalType": "bytes32",
          "name": "expectedBlockHeaderHash",
          "type": "bytes32"
        }
      ],
      "name": "InvalidBlockHeader",
      "type": "error"
    },
    {
      "inputs": [
        {
          "internalType": "bytes32",
          "name": "latestCommitment",
          "type": "bytes32"
        },
        {
          "internalType": "bytes32",
          "name": "expectedLatestCommitment",
          "type": "bytes32"
        }
      ],
      "name": "InvalidLatestCommitment",
      "type": "error"
    },
    {
      "inputs": [
        {
          "internalType": "uint256",
          "name": "nonce",
          "type": "uint256"
        },
        {
          "internalType": "uint256",
          "name": "expectedNonce",
          "type": "uint256"
        }
      ],
      "name": "InvalidNonce",
      "type": "error"
    },
    {
      "inputs": [],
      "name": "ACCOUNT",
      "outputs": [
        {
          "internalType": "address",
          "name": "",
          "type": "address"
        }
      ],
      "stateMutability": "view",
      "type": "function"
    },
    {
      "inputs": [],
      "name": "COMMITMENTS_SLOT",
      "outputs": [
        {
          "internalType": "uint256",
          "name": "",
          "type": "uint256"
        }
      ],
      "stateMutability": "view",
      "type": "function"
    },
    {
      "inputs": [],
      "name": "GIRI_GIRI_BASHI",
      "outputs": [
        {
          "internalType": "address",
          "name": "",
          "type": "address"
        }
      ],
      "stateMutability": "view",
      "type": "function"
    },
    {
      "inputs": [],
      "name": "SOURCE_CHAIN_ID",
      "outputs": [
        {
          "internalType": "uint256",
          "name": "",
          "type": "uint256"
        }
      ],
      "stateMutability": "view",
      "type": "function"
    },
    {
      "inputs": [
        {
          "components": [
            {
              "internalType": "uint256",
              "name": "blockNumber",
              "type": "uint256"
            },
            {
              "internalType": "uint256",
              "name": "nonce",
              "type": "uint256"
            },
            {
              "internalType": "bytes32",
              "name": "storageRoot",
              "type": "bytes32"
            },
            {
              "internalType": "bytes",
              "name": "storageProof",
              "type": "bytes"
            }
          ],
          "internalType": "struct IProver.Proof",
          "name": "proof",
          "type": "tuple"
        },
        {
          "internalType": "bytes",
          "name": "data",
          "type": "bytes"
        }
      ],
      "name": "_verifyProof",
      "outputs": [
        {
          "internalType": "bool",
          "name": "",
          "type": "bool"
        }
      ],
      "stateMutability": "nonpayable",
      "type": "function"
    },
    {
      "inputs": [],
      "name": "expectedNonce",
      "outputs": [
        {
          "internalType": "uint256",
          "name": "",
          "type": "uint256"
        }
      ],
      "stateMutability": "view",
      "type": "function"
    },
    {
      "inputs": [
        {
          "internalType": "address",
          "name": "account",
          "type": "address"
        }
      ],
      "name": "setAccount",
      "outputs": [],
      "stateMutability": "nonpayable",
      "type": "function"
    }
  ],
  "transactionHash": "0x0b25eecb450d71a761ee1767652192f8082e5b324e9c530c8862fabe2fad6940",
  "args": [
    11155111,
    "0x0",
    "0x2a1F5eB3e84e58e6F1e565306298B9dE1273f203"
  ],
  "numDeployments": 14,
  "solcInputHash": "8cea3200be17ea18e264fc9ffed968c1",
  "bytecode": "0x60e03461009057601f610c1c38819003918201601f19168301916001600160401b0383118484101761009557808492606094604052833981010312610090578051602082015160409092015191906001600160a01b03831683036100905760805260a05260c052604051610b7090816100ac823960805181610282015260a05181610247015260c051816102d20152f35b600080fd5b634e487b7160e01b600052604160045260246000fdfe6080604052600436101561001257600080fd5b6000803560e01c90816329f6d57c1461008a5750806331a5bd901461008557806332b55cbf1461008057806374be21501461007b578063cb7cf18114610076578063e90524f2146100715763ebe445fc1461006c57600080fd5b61032a565b6102f6565b6102a5565b61026a565b61022f565b6101ad565b346100ea5760203660031901126100ea5760043573ffffffffffffffffffffffffffffffffffffffff81168091036100e6577fffffffffffffffffffffffff000000000000000000000000000000000000000082541617815580f35b5080fd5b80fd5b634e487b7160e01b600052604160045260246000fd5b6040810190811067ffffffffffffffff82111761011f57604052565b6100ed565b90601f8019910116810190811067ffffffffffffffff82111761011f57604052565b6040519061015382610103565b565b67ffffffffffffffff811161011f57601f01601f191660200190565b92919261017d82610155565b9161018b6040519384610124565b8294818452818301116101a8578281602093846000960137010152565b600080fd5b346101a8576003196040368201126101a8576004359067ffffffffffffffff908183116101a85760809083360301126101a8576024359081116101a857366023820112156101a85761022b91610210610219923690602481600401359101610171565b9060040161039c565b60405190151581529081906020820190565b0390f35b346101a85760003660031901126101a85760206040517f00000000000000000000000000000000000000000000000000000000000000008152f35b346101a85760003660031901126101a85760206040517f00000000000000000000000000000000000000000000000000000000000000008152f35b346101a85760003660031901126101a857602060405173ffffffffffffffffffffffffffffffffffffffff7f0000000000000000000000000000000000000000000000000000000000000000168152f35b346101a85760003660031901126101a857602073ffffffffffffffffffffffffffffffffffffffff60005416604051908152f35b346101a85760003660031901126101a8576020600154604051908152f35b939291908452602060608186015281519182606087015260005b8381106103885750505060808160008260409488010152601f8019910116850101930152565b818101830151878201608001528201610362565b6060810135601e19823603018112156101a857810180359067ffffffffffffffff82116101a8576020019080360382136101a8576103e561040a916103fc93604086013561041c565b936040519283916020808401960135904687610348565b03601f198101835282610124565b5190200361041757600190565b600090565b91909161045c60405193602094858101906000825286815261043d81610103565b51902093604051948686015285855261045585610103565b3691610171565b92610465610563565b5083516040519061047582610103565b81528180820195018552610488816109d6565b156101a857610496906109f2565b906104a0826109be565b946104ae6040519687610124565b828652601f196104bd846109be565b018260005b82811061054d575050506104e090516104da81610ada565b90610870565b6000905b8382106105055750505050916104fd916105029361067d565b6109aa565b90565b6105418161051561054793610a54565b9061051e610146565b8281528187820152610530868c610630565b5261053b858b610630565b50610870565b916105f4565b906104e4565b610555610563565b82828b0101520183906104c2565b6040519061057082610103565b60006020838281520152565b156101a857565b6040516020810181811067ffffffffffffffff82111761011f5760405260008152906000368137565b906105b682610155565b6105c36040519182610124565b82815280926105d4601f1991610155565b0190602036910137565b634e487b7160e01b600052601160045260246000fd5b60001981146106035760010190565b6105de565b634e487b7160e01b600052603260045260246000fd5b80511561062b5760200190565b610608565b805182101561062b5760209160051b010190565b6040519061065182610103565b600282527f34320000000000000000000000000000000000000000000000000000000000006020830152565b929190610689906108ab565b50610692610563565b508051156107a057600092835b82518110156107935780158080610771575b6106ec5715806106d2575b6106ce576106c9906105f4565b61069f565b8480fd5b506106e56106df8461061e565b516107d5565b15156106bc565b6040517f08c379a000000000000000000000000000000000000000000000000000000000815260206004820152603060248201527f526f6f74206861736820646f6573206e6f74206d61746368207468652066697260448201527f73742070726f6f6620656c656d656e74000000000000000000000000000000006064820152608490fd5b5061078b61077e8561061e565b5160208101519051902090565b8314156106b1565b5050509050610502610644565b50907f56e81f171bcc55a6ff8345e692c0f86e5b48e01b996cadc001622fb5e363b4216107cd911461057c565b610502610583565b805160208110156107ed575060208101519051902090565b906020015120604051602081019182526020815261080a81610103565b51902090565b908160011b918083046002149015171561060357565b60bf1981019190821161060357565b607f1981019190821161060357565b60f61981019190821161060357565b60b61981019190821161060357565b906001820180921161060357565b9190820180921161060357565b90815181101561062b570160200190565b1561089557565b634e487b7160e01b600052600160045260246000fd5b906108c182516108bc81151561057c565b610810565b916108cb836105ac565b9260009081925b8184106108e8575050610153915083511461088e565b9091610981610987917f0f000000000000000000000000000000000000000000000000000000000000008660018082161560001461098f5761095b61093561096a93610961931c8961087d565b517fff000000000000000000000000000000000000000000000000000000000000001690565b60f81c90565b60041c600f1690565b60f81b1660001a61097b828a61087d565b53610862565b93610862565b9291906108d2565b61095b61093561096a936109a4931c8961087d565b60ff1690565b8051156109b8576021015190565b50600090565b67ffffffffffffffff811161011f5760051b60200190565b8051156109b857602060c09101515160001a1061041757600190565b8051156109b85760009060208101908151610a0c81610ada565b8101809111610603579151905181018091116106035791905b828110610a325750905090565b610a3b81610a54565b810180911161060357610a4e90916105f4565b90610a25565b805160001a906080821015610a6a575050600190565b60b8821015610a855750610a8061050291610835565b610862565b9060c0811015610aa95760b51991600160b783602003016101000a91015104010190565b9060f8821015610ac05750610a8061050291610826565b60010151602082900360f7016101000a90040160f5190190565b5160001a6080811015610aed5750600090565b60b881108015610b24575b15610b035750600190565b60c0811015610b1857610a8061050291610853565b610a8061050291610844565b5060c08110158015610af8575060f88110610af856fea264697066735822122022e7514a07890c45f26b35c133cc81e4f49a6004e59ab1d2155f03135ef5c5dd64736f6c63430008140033",
  "devdoc": {
    "kind": "dev",
    "methods": {},
    "version": 1
  },
  "userdoc": {
    "kind": "user",
    "methods": {},
    "version": 1
  },
  "storageLayout": {
    "storage": [
      {
        "astId": 653,
        "contract": "contracts/Prover.sol:Prover",
        "label": "ACCOUNT",
        "offset": 0,
        "slot": "0",
        "type": "t_address"
      },
      {
        "astId": 657,
        "contract": "contracts/Prover.sol:Prover",
        "label": "expectedNonce",
        "offset": 0,
        "slot": "1",
        "type": "t_uint256"
      }
    ],
    "types": {
      "t_address": {
        "encoding": "inplace",
        "label": "address",
        "numberOfBytes": "20"
      },
      "t_uint256": {
        "encoding": "inplace",
        "label": "uint256",
        "numberOfBytes": "32"
      }
    }
  }
}