{
  "address": "0x3A9A620b1E8B151A575c067605150347887819E4",
  "abi": [
    {
      "inputs": [
        {
          "internalType": "string",
          "name": "name",
          "type": "string"
        },
        {
          "internalType": "string",
          "name": "symbol",
          "type": "string"
        },
        {
          "internalType": "uint256",
          "name": "initialSupply",
          "type": "uint256"
        }
      ],
      "stateMutability": "nonpayable",
      "type": "constructor"
    },
    {
      "anonymous": false,
      "inputs": [
        {
          "indexed": true,
          "internalType": "address",
          "name": "owner",
          "type": "address"
        },
        {
          "indexed": true,
          "internalType": "address",
          "name": "spender",
          "type": "address"
        },
        {
          "indexed": false,
          "internalType": "uint256",
          "name": "value",
          "type": "uint256"
        }
      ],
      "name": "Approval",
      "type": "event"
    },
    {
      "anonymous": false,
      "inputs": [
        {
          "indexed": true,
          "internalType": "address",
          "name": "from",
          "type": "address"
        },
        {
          "indexed": true,
          "internalType": "address",
          "name": "to",
          "type": "address"
        },
        {
          "indexed": false,
          "internalType": "uint256",
          "name": "value",
          "type": "uint256"
        }
      ],
      "name": "Transfer",
      "type": "event"
    },
    {
      "inputs": [
        {
          "internalType": "address",
          "name": "owner",
          "type": "address"
        },
        {
          "internalType": "address",
          "name": "spender",
          "type": "address"
        }
      ],
      "name": "allowance",
      "outputs": [
        {
          "internalType": "uint256",
          "name": "",
          "type": "uint256"
        }
      ],
      "stateMutability": "view",
      "type": "function"
    },
    {
      "inputs": [
        {
          "internalType": "address",
          "name": "spender",
          "type": "address"
        },
        {
          "internalType": "uint256",
          "name": "amount",
          "type": "uint256"
        }
      ],
      "name": "approve",
      "outputs": [
        {
          "internalType": "bool",
          "name": "",
          "type": "bool"
        }
      ],
      "stateMutability": "nonpayable",
      "type": "function"
    },
    {
      "inputs": [
        {
          "internalType": "address",
          "name": "account",
          "type": "address"
        }
      ],
      "name": "balanceOf",
      "outputs": [
        {
          "internalType": "uint256",
          "name": "",
          "type": "uint256"
        }
      ],
      "stateMutability": "view",
      "type": "function"
    },
    {
      "inputs": [
        {
          "internalType": "address",
          "name": "sender",
          "type": "address"
        },
        {
          "internalType": "uint256",
          "name": "amount",
          "type": "uint256"
        }
      ],
      "name": "burn",
      "outputs": [],
      "stateMutability": "nonpayable",
      "type": "function"
    },
    {
      "inputs": [],
      "name": "decimals",
      "outputs": [
        {
          "internalType": "uint8",
          "name": "",
          "type": "uint8"
        }
      ],
      "stateMutability": "view",
      "type": "function"
    },
    {
      "inputs": [
        {
          "internalType": "address",
          "name": "spender",
          "type": "address"
        },
        {
          "internalType": "uint256",
          "name": "subtractedValue",
          "type": "uint256"
        }
      ],
      "name": "decreaseAllowance",
      "outputs": [
        {
          "internalType": "bool",
          "name": "",
          "type": "bool"
        }
      ],
      "stateMutability": "nonpayable",
      "type": "function"
    },
    {
      "inputs": [
        {
          "internalType": "address",
          "name": "spender",
          "type": "address"
        },
        {
          "internalType": "uint256",
          "name": "addedValue",
          "type": "uint256"
        }
      ],
      "name": "increaseAllowance",
      "outputs": [
        {
          "internalType": "bool",
          "name": "",
          "type": "bool"
        }
      ],
      "stateMutability": "nonpayable",
      "type": "function"
    },
    {
      "inputs": [
        {
          "internalType": "address",
          "name": "to",
          "type": "address"
        },
        {
          "internalType": "uint256",
          "name": "amount",
          "type": "uint256"
        }
      ],
      "name": "mint",
      "outputs": [],
      "stateMutability": "nonpayable",
      "type": "function"
    },
    {
      "inputs": [],
      "name": "name",
      "outputs": [
        {
          "internalType": "string",
          "name": "",
          "type": "string"
        }
      ],
      "stateMutability": "view",
      "type": "function"
    },
    {
      "inputs": [],
      "name": "owner",
      "outputs": [
        {
          "internalType": "address",
          "name": "",
          "type": "address"
        }
      ],
      "stateMutability": "view",
      "type": "function"
    },
    {
      "inputs": [
        {
          "internalType": "address",
          "name": "_owner",
          "type": "address"
        }
      ],
      "name": "setOwner",
      "outputs": [],
      "stateMutability": "nonpayable",
      "type": "function"
    },
    {
      "inputs": [],
      "name": "symbol",
      "outputs": [
        {
          "internalType": "string",
          "name": "",
          "type": "string"
        }
      ],
      "stateMutability": "view",
      "type": "function"
    },
    {
      "inputs": [],
      "name": "totalSupply",
      "outputs": [
        {
          "internalType": "uint256",
          "name": "",
          "type": "uint256"
        }
      ],
      "stateMutability": "view",
      "type": "function"
    },
    {
      "inputs": [
        {
          "internalType": "address",
          "name": "to",
          "type": "address"
        },
        {
          "internalType": "uint256",
          "name": "amount",
          "type": "uint256"
        }
      ],
      "name": "transfer",
      "outputs": [
        {
          "internalType": "bool",
          "name": "",
          "type": "bool"
        }
      ],
      "stateMutability": "nonpayable",
      "type": "function"
    },
    {
      "inputs": [
        {
          "internalType": "address",
          "name": "from",
          "type": "address"
        },
        {
          "internalType": "address",
          "name": "to",
          "type": "address"
        },
        {
          "internalType": "uint256",
          "name": "amount",
          "type": "uint256"
        }
      ],
      "name": "transferFrom",
      "outputs": [
        {
          "internalType": "bool",
          "name": "",
          "type": "bool"
        }
      ],
      "stateMutability": "nonpayable",
      "type": "function"
    }
  ],
  "transactionHash": "0x997833562d211f1fb689235ab285d87b1b2b75054944e16126bd4a2cdd6e470d",
  "args": [
    "SIDEToken0",
    "SIDETK0",
    0
  ],
  "numDeployments": 1,
  "solcInputHash": "310df9762748bfe64aebb5ab3f6df0e5",
  "bytecode": "0x60406080815234620003df5762001146803803806200001e81620003e4565b9283398101606082820312620003df5781516001600160401b039290838111620003df5782620000509183016200040a565b9260209283830151828111620003df5786916200006f9185016200040a565b92015193805191808311620002df5760038054936001938486811c96168015620003d4575b88871014620003be578190601f9687811162000368575b5088908783116001146200030157600092620002f5575b505060001982841b1c191690841b1781555b8451918211620002df5760049485548481811c91168015620002d4575b88821014620002bf5785811162000274575b5086908584116001146200020957938394918492600095620001fd575b50501b92600019911b1c19161782555b600580546001600160a01b0319163390811790915515620001be575060025490838201809211620001a957506000917fddf252ad1be2c89b69c2b068fc378daa952ba7f163c4a11628f55a4df523b3ef9160025533835282815284832084815401905584519384523393a351610cc990816200047d8239f35b601190634e487b7160e01b6000525260246000fd5b60649285519262461bcd60e51b845283015260248201527f45524332303a206d696e7420746f20746865207a65726f2061646472657373006044820152fd5b01519350388062000120565b9190601f198416928760005284896000209460005b8b898383106200025c575050501062000241575b50505050811b01825562000130565b01519060f884600019921b161c191690553880808062000232565b8686015189559097019694850194889350016200021e565b86600052876000208680860160051c8201928a8710620002b5575b0160051c019085905b828110620002a857505062000103565b6000815501859062000298565b925081926200028f565b602287634e487b7160e01b6000525260246000fd5b90607f1690620000f1565b634e487b7160e01b600052604160045260246000fd5b015190503880620000c2565b90869350601f19831691856000528a6000209260005b8c82821062000351575050841162000338575b505050811b018155620000d4565b015160001983861b60f8161c191690553880806200032a565b8385015186558a9790950194938401930162000317565b90915083600052886000208780850160051c8201928b8610620003b4575b918891869594930160051c01915b828110620003a4575050620000ab565b6000815585945088910162000394565b9250819262000386565b634e487b7160e01b600052602260045260246000fd5b95607f169562000094565b600080fd5b6040519190601f01601f191682016001600160401b03811183821017620002df57604052565b919080601f84011215620003df5782516001600160401b038111620002df5760209062000440601f8201601f19168301620003e4565b92818452828287010111620003df5760005b8181106200046857508260009394955001015290565b85810183015184820184015282016200045256fe608060408181526004918236101561001657600080fd5b600092833560e01c91826306fdde031461083657508163095ea7b31461080c57816313af40351461074257816318160ddd1461072357816323b872dd14610658578163313ce5671461063c57816339509351146105ed57816340c10f19146104db57816370a08231146104a55781638da5cb5b1461047d57816395d89b411461035e5781639dc29fac14610206578163a457c2d71461014557508063a9059cbb146101155763dd62ed3e146100ca57600080fd5b34610111578060031936011261011157806020926100e6610957565b6100ee610972565b6001600160a01b0391821683526001865283832091168252845220549051908152f35b5080fd5b503461011157806003193601126101115760209061013e610134610957565b60243590336109ab565b5160018152f35b90508234610203578260031936011261020357610160610957565b91836024359233815260016020528181206001600160a01b038616825260205220549082821061019a5760208561013e8585038733610b5f565b608490602086519162461bcd60e51b8352820152602560248201527f45524332303a2064656372656173656420616c6c6f77616e63652062656c6f7760448201527f207a65726f0000000000000000000000000000000000000000000000000000006064820152fd5b80fd5b83915034610111578260031936011261011157610221610957565b6001600160a01b0360243591169182156102f55782845283602052848420549082821061028c57508184957fddf252ad1be2c89b69c2b068fc378daa952ba7f163c4a11628f55a4df523b3ef936020938688528785520381872055816002540360025551908152a380f35b608490602087519162461bcd60e51b8352820152602260248201527f45524332303a206275726e20616d6f756e7420657863656564732062616c616e60448201527f63650000000000000000000000000000000000000000000000000000000000006064820152fd5b608490602086519162461bcd60e51b8352820152602160248201527f45524332303a206275726e2066726f6d20746865207a65726f2061646472657360448201527f73000000000000000000000000000000000000000000000000000000000000006064820152fd5b838334610111578160031936011261011157805190828454600181811c90808316928315610473575b60209384841081146104605783885290811561044457506001146103ef575b505050829003601f01601f191682019267ffffffffffffffff8411838510176103dc57508291826103d892528261090e565b0390f35b80604186634e487b7160e01b6024945252fd5b8787529192508591837f8a35acfbc15ff81a39ae7d344fd709f28e8600b4aa8c65c6b64bfe7fe36bd19b5b83851061043057505050508301018580806103a6565b80548886018301529301928490820161041a565b60ff1916878501525050151560051b84010190508580806103a6565b60248960228c634e487b7160e01b835252fd5b91607f1691610387565b5050346101115781600319360112610111576020906001600160a01b03600554169051908152f35b50503461011157602036600319011261011157806020926001600160a01b036104cc610957565b16815280845220549051908152f35b919050346105e957806003193601126105e9576104f6610957565b90602435916001600160a01b0390816005541633036105a6571692831561056457506020827fddf252ad1be2c89b69c2b068fc378daa952ba7f163c4a11628f55a4df523b3ef9261054a8795600254610988565b60025585855284835280852082815401905551908152a380f35b6020606492519162461bcd60e51b8352820152601f60248201527f45524332303a206d696e7420746f20746865207a65726f2061646472657373006044820152fd5b606485602085519162461bcd60e51b8352820152602060248201527f53696d706c6545524332303a206f6e6c79206f776e65722063616e206d696e746044820152fd5b8280fd5b50503461011157806003193601126101115761013e602092610635610610610957565b91338152600186528481206001600160a01b0384168252865284602435912054610988565b9033610b5f565b5050346101115781600319360112610111576020905160128152f35b8391503461011157606036600319011261011157610674610957565b61067c610972565b9184604435946001600160a01b0384168152600160205281812033825260205220549060001982036106b7575b60208661013e8787876109ab565b8482106106e057509183916106d56020969561013e95033383610b5f565b9193948193506106a9565b606490602087519162461bcd60e51b8352820152601d60248201527f45524332303a20696e73756666696369656e7420616c6c6f77616e63650000006044820152fd5b5050346101115781600319360112610111576020906002549051908152f35b839150346101115760203660031901126101115761075e610957565b90600554916001600160a01b039182841633036107a35750907fffffffffffffffffffffffff0000000000000000000000000000000000000000911691161760055580f35b608490602087519162461bcd60e51b8352820152602860248201527f53696d706c6545524332303a206f6e6c79206f776e65722063616e206368616e60448201527f6765206f776e65720000000000000000000000000000000000000000000000006064820152fd5b50503461011157806003193601126101115760209061013e61082c610957565b6024359033610b5f565b849084346105e957826003193601126105e95782600354600181811c90808316928315610904575b60209384841081146104605783885290811561044457506001146108ae57505050829003601f01601f191682019267ffffffffffffffff8411838510176103dc57508291826103d892528261090e565b600387529192508591837fc2575a0e9e593c00f959f8c92f12db2869c3395a3b0502d05e2516446f71f85b5b8385106108f057505050508301018580806103a6565b8054888601830152930192849082016108da565b91607f169161085e565b6020808252825181830181905290939260005b82811061094357505060409293506000838284010152601f8019910116010190565b818101860151848201604001528501610921565b600435906001600160a01b038216820361096d57565b600080fd5b602435906001600160a01b038216820361096d57565b9190820180921161099557565b634e487b7160e01b600052601160045260246000fd5b6001600160a01b03809116918215610af55716918215610a8b57600082815280602052604081205491808310610a2157604082827fddf252ad1be2c89b69c2b068fc378daa952ba7f163c4a11628f55a4df523b3ef958760209652828652038282205586815220818154019055604051908152a3565b608460405162461bcd60e51b815260206004820152602660248201527f45524332303a207472616e7366657220616d6f756e742065786365656473206260448201527f616c616e636500000000000000000000000000000000000000000000000000006064820152fd5b608460405162461bcd60e51b815260206004820152602360248201527f45524332303a207472616e7366657220746f20746865207a65726f206164647260448201527f65737300000000000000000000000000000000000000000000000000000000006064820152fd5b608460405162461bcd60e51b815260206004820152602560248201527f45524332303a207472616e736665722066726f6d20746865207a65726f20616460448201527f64726573730000000000000000000000000000000000000000000000000000006064820152fd5b6001600160a01b03809116918215610c2a5716918215610bc05760207f8c5be1e5ebec7d5bd14f71427d1e84f3dd0314c0f7b2291e5b200ac8c7c3b925918360005260018252604060002085600052825280604060002055604051908152a3565b608460405162461bcd60e51b815260206004820152602260248201527f45524332303a20617070726f766520746f20746865207a65726f20616464726560448201527f73730000000000000000000000000000000000000000000000000000000000006064820152fd5b608460405162461bcd60e51b8152602060048201526024808201527f45524332303a20617070726f76652066726f6d20746865207a65726f2061646460448201527f72657373000000000000000000000000000000000000000000000000000000006064820152fdfea264697066735822122046f1b108056ed220fe3d39a4fc1ecb414bf585e9b132d4e501ae2cec5bc65f4264736f6c63430008140033",
  "devdoc": {
    "events": {
      "Approval(address,address,uint256)": {
        "details": "Emitted when the allowance of a `spender` for an `owner` is set by a call to {approve}. `value` is the new allowance."
      },
      "Transfer(address,address,uint256)": {
        "details": "Emitted when `value` tokens are moved from one account (`from`) to another (`to`). Note that `value` may be zero."
      }
    },
    "kind": "dev",
    "methods": {
      "allowance(address,address)": {
        "details": "See {IERC20-allowance}."
      },
      "approve(address,uint256)": {
        "details": "See {IERC20-approve}. NOTE: If `amount` is the maximum `uint256`, the allowance is not updated on `transferFrom`. This is semantically equivalent to an infinite approval. Requirements: - `spender` cannot be the zero address."
      },
      "balanceOf(address)": {
        "details": "See {IERC20-balanceOf}."
      },
      "decimals()": {
        "details": "Returns the number of decimals used to get its user representation. For example, if `decimals` equals `2`, a balance of `505` tokens should be displayed to a user as `5.05` (`505 / 10 ** 2`). Tokens usually opt for a value of 18, imitating the relationship between Ether and Wei. This is the value {ERC20} uses, unless this function is overridden; NOTE: This information is only used for _display_ purposes: it in no way affects any of the arithmetic of the contract, including {IERC20-balanceOf} and {IERC20-transfer}."
      },
      "decreaseAllowance(address,uint256)": {
        "details": "Atomically decreases the allowance granted to `spender` by the caller. This is an alternative to {approve} that can be used as a mitigation for problems described in {IERC20-approve}. Emits an {Approval} event indicating the updated allowance. Requirements: - `spender` cannot be the zero address. - `spender` must have allowance for the caller of at least `subtractedValue`."
      },
      "increaseAllowance(address,uint256)": {
        "details": "Atomically increases the allowance granted to `spender` by the caller. This is an alternative to {approve} that can be used as a mitigation for problems described in {IERC20-approve}. Emits an {Approval} event indicating the updated allowance. Requirements: - `spender` cannot be the zero address."
      },
      "name()": {
        "details": "Returns the name of the token."
      },
      "symbol()": {
        "details": "Returns the symbol of the token, usually a shorter version of the name."
      },
      "totalSupply()": {
        "details": "See {IERC20-totalSupply}."
      },
      "transfer(address,uint256)": {
        "details": "See {IERC20-transfer}. Requirements: - `to` cannot be the zero address. - the caller must have a balance of at least `amount`."
      },
      "transferFrom(address,address,uint256)": {
        "details": "See {IERC20-transferFrom}. Emits an {Approval} event indicating the updated allowance. This is not required by the EIP. See the note at the beginning of {ERC20}. NOTE: Does not update the allowance if the current allowance is the maximum `uint256`. Requirements: - `from` and `to` cannot be the zero address. - `from` must have a balance of at least `amount`. - the caller must have allowance for ``from``'s tokens of at least `amount`."
      }
    },
    "version": 1
  },
  "userdoc": {
    "kind": "user",
    "methods": {},
    "version": 1
  },
  "storageLayout": {
    "storage": [
      {
        "astId": 532,
        "contract": "contracts/SimpleERC20.sol:SimpleERC20",
        "label": "_balances",
        "offset": 0,
        "slot": "0",
        "type": "t_mapping(t_address,t_uint256)"
      },
      {
        "astId": 538,
        "contract": "contracts/SimpleERC20.sol:SimpleERC20",
        "label": "_allowances",
        "offset": 0,
        "slot": "1",
        "type": "t_mapping(t_address,t_mapping(t_address,t_uint256))"
      },
      {
        "astId": 540,
        "contract": "contracts/SimpleERC20.sol:SimpleERC20",
        "label": "_totalSupply",
        "offset": 0,
        "slot": "2",
        "type": "t_uint256"
      },
      {
        "astId": 542,
        "contract": "contracts/SimpleERC20.sol:SimpleERC20",
        "label": "_name",
        "offset": 0,
        "slot": "3",
        "type": "t_string_storage"
      },
      {
        "astId": 544,
        "contract": "contracts/SimpleERC20.sol:SimpleERC20",
        "label": "_symbol",
        "offset": 0,
        "slot": "4",
        "type": "t_string_storage"
      },
      {
        "astId": 3544,
        "contract": "contracts/SimpleERC20.sol:SimpleERC20",
        "label": "owner",
        "offset": 0,
        "slot": "5",
        "type": "t_address"
      }
    ],
    "types": {
      "t_address": {
        "encoding": "inplace",
        "label": "address",
        "numberOfBytes": "20"
      },
      "t_mapping(t_address,t_mapping(t_address,t_uint256))": {
        "encoding": "mapping",
        "key": "t_address",
        "label": "mapping(address => mapping(address => uint256))",
        "numberOfBytes": "32",
        "value": "t_mapping(t_address,t_uint256)"
      },
      "t_mapping(t_address,t_uint256)": {
        "encoding": "mapping",
        "key": "t_address",
        "label": "mapping(address => uint256)",
        "numberOfBytes": "32",
        "value": "t_uint256"
      },
      "t_string_storage": {
        "encoding": "bytes",
        "label": "string",
        "numberOfBytes": "32"
      },
      "t_uint256": {
        "encoding": "inplace",
        "label": "uint256",
        "numberOfBytes": "32"
      }
    }
  }
}