{
  "address": "0xAf775F72fC4158e4A4bD6EA4B389B09DF556BD46",
  "abi": [
    {
      "inputs": [
        {
          "internalType": "address",
          "name": "headerStorage",
          "type": "address"
        },
        {
          "internalType": "address",
          "name": "yaho",
          "type": "address"
        },
        {
          "internalType": "address",
          "name": "hyperlaneMailbox",
          "type": "address"
        }
      ],
      "stateMutability": "nonpayable",
      "type": "constructor"
    },
    {
      "inputs": [],
      "name": "DomainNotAvailable",
      "type": "error"
    },
    {
      "inputs": [
        {
          "internalType": "address",
          "name": "sender",
          "type": "address"
        },
        {
          "internalType": "address",
          "name": "expectedYaho",
          "type": "address"
        }
      ],
      "name": "NotYaho",
      "type": "error"
    },
    {
      "anonymous": false,
      "inputs": [
        {
          "indexed": true,
          "internalType": "uint256",
          "name": "targetChainId",
          "type": "uint256"
        },
        {
          "indexed": false,
          "internalType": "contract IAdapter",
          "name": "adapter",
          "type": "address"
        },
        {
          "indexed": true,
          "internalType": "uint256",
          "name": "blockNumber",
          "type": "uint256"
        },
        {
          "indexed": false,
          "internalType": "bytes32",
          "name": "blockHeader",
          "type": "bytes32"
        }
      ],
      "name": "BlockDispatched",
      "type": "event"
    },
    {
      "anonymous": false,
      "inputs": [
        {
          "indexed": true,
          "internalType": "uint256",
          "name": "chainId",
          "type": "uint256"
        },
        {
          "indexed": true,
          "internalType": "uint32",
          "name": "domain",
          "type": "uint32"
        }
      ],
      "name": "DomainSet",
      "type": "event"
    },
    {
      "anonymous": false,
      "inputs": [
        {
          "indexed": true,
          "internalType": "uint256",
          "name": "targetChainId",
          "type": "uint256"
        },
        {
          "indexed": false,
          "internalType": "contract IAdapter",
          "name": "adapter",
          "type": "address"
        },
        {
          "indexed": true,
          "internalType": "uint256",
          "name": "messageId",
          "type": "uint256"
        },
        {
          "indexed": false,
          "internalType": "bytes32",
          "name": "messageHash",
          "type": "bytes32"
        }
      ],
      "name": "MessageDispatched",
      "type": "event"
    },
    {
      "anonymous": false,
      "inputs": [
        {
          "indexed": true,
          "internalType": "address",
          "name": "previousOwner",
          "type": "address"
        },
        {
          "indexed": true,
          "internalType": "address",
          "name": "newOwner",
          "type": "address"
        }
      ],
      "name": "OwnershipTransferred",
      "type": "event"
    },
    {
      "inputs": [],
      "name": "HEADER_STORAGE",
      "outputs": [
        {
          "internalType": "address",
          "name": "",
          "type": "address"
        }
      ],
      "stateMutability": "view",
      "type": "function"
    },
    {
      "inputs": [],
      "name": "HYPERLANE_MAILBOX",
      "outputs": [
        {
          "internalType": "contract IMailbox",
          "name": "",
          "type": "address"
        }
      ],
      "stateMutability": "view",
      "type": "function"
    },
    {
      "inputs": [],
      "name": "PROVIDER",
      "outputs": [
        {
          "internalType": "string",
          "name": "",
          "type": "string"
        }
      ],
      "stateMutability": "view",
      "type": "function"
    },
    {
      "inputs": [],
      "name": "YAHO",
      "outputs": [
        {
          "internalType": "address",
          "name": "",
          "type": "address"
        }
      ],
      "stateMutability": "view",
      "type": "function"
    },
    {
      "inputs": [
        {
          "internalType": "uint256",
          "name": "targetChainId",
          "type": "uint256"
        },
        {
          "internalType": "contract IAdapter",
          "name": "adapter",
          "type": "address"
        },
        {
          "internalType": "uint256[]",
          "name": "blockNumbers",
          "type": "uint256[]"
        }
      ],
      "name": "dispatchBlocks",
      "outputs": [
        {
          "internalType": "bytes32",
          "name": "",
          "type": "bytes32"
        }
      ],
      "stateMutability": "payable",
      "type": "function"
    },
    {
      "inputs": [
        {
          "internalType": "uint256",
          "name": "targetChainId",
          "type": "uint256"
        },
        {
          "internalType": "contract IAdapter",
          "name": "adapter",
          "type": "address"
        },
        {
          "internalType": "uint256[]",
          "name": "messageIds",
          "type": "uint256[]"
        },
        {
          "internalType": "bytes32[]",
          "name": "messageHashes",
          "type": "bytes32[]"
        }
      ],
      "name": "dispatchMessages",
      "outputs": [
        {
          "internalType": "bytes32",
          "name": "",
          "type": "bytes32"
        }
      ],
      "stateMutability": "payable",
      "type": "function"
    },
    {
      "inputs": [
        {
          "internalType": "uint256",
          "name": "",
          "type": "uint256"
        }
      ],
      "name": "domains",
      "outputs": [
        {
          "internalType": "uint32",
          "name": "",
          "type": "uint32"
        }
      ],
      "stateMutability": "view",
      "type": "function"
    },
    {
      "inputs": [],
      "name": "owner",
      "outputs": [
        {
          "internalType": "address",
          "name": "",
          "type": "address"
        }
      ],
      "stateMutability": "view",
      "type": "function"
    },
    {
      "inputs": [],
      "name": "renounceOwnership",
      "outputs": [],
      "stateMutability": "nonpayable",
      "type": "function"
    },
    {
      "inputs": [
        {
          "internalType": "uint256",
          "name": "chainId",
          "type": "uint256"
        },
        {
          "internalType": "uint32",
          "name": "domain",
          "type": "uint32"
        }
      ],
      "name": "setDomainByChainId",
      "outputs": [],
      "stateMutability": "nonpayable",
      "type": "function"
    },
    {
      "inputs": [
        {
          "internalType": "address",
          "name": "newOwner",
          "type": "address"
        }
      ],
      "name": "transferOwnership",
      "outputs": [],
      "stateMutability": "nonpayable",
      "type": "function"
    }
  ],
  "transactionHash": "0xfc4a76f0add73f9a19dbcce8d95762d3892f228e2d87627bc732957aa903bc1a",
  "args": [
    "0x690878fB6118d99882c6B27e495E2f07f6df3b2b",
    "0x73a7d1B252300b2e2e9a1119D1E490C6F9bf9c9B",
    "0xC946BF8e51E6861BEf8831a458cF174771a777F7"
  ],
  "numDeployments": 5,
  "solcInputHash": "960947c8ec317e86ce562757e19b2848",
  "bytecode": "0x60e0346100f357601f610cc638819003918201601f19168301916001600160401b038311848410176100f8578084926060946040528339810103126100f3576100478161010e565b9061006060406100596020840161010e565b920161010e565b60809290925260a05260008054336001600160a01b0319821681178355604051936001600160a01b039390928416907f8be0079c531659141344cd1fd0a4f28419497f9722a3daafe3b4186f6b6457e09080a31660c052610ba39081610123823960805181818161043f01526106ab015260a0518181816102740152610393015260c0518181816101aa01526109ba0152f35b600080fd5b634e487b7160e01b600052604160045260246000fd5b51906001600160a01b03821682036100f35756fe608060408181526004908136101561001657600080fd5b600092833560e01c908162d34411146106cf575080631073f93d1461068b57806320888ebc1461062057806366cf8fab146105f2578063715018a61461058c5780638da5cb5b146105665780639ac41b98146103b75780639e83334b14610373578063b4a90ff7146101d2578063c751fbfb1461018a5763f2fde38b1461009c57600080fd5b34610186576020366003190112610186578135916001600160a01b0391828416809403610182576100cb61085e565b831561011957505082548273ffffffffffffffffffffffffffffffffffffffff198216178455167f8be0079c531659141344cd1fd0a4f28419497f9722a3daafe3b4186f6b6457e08380a380f35b906020608492519162461bcd60e51b8352820152602660248201527f4f776e61626c653a206e6577206f776e657220697320746865207a65726f206160448201527f64647265737300000000000000000000000000000000000000000000000000006064820152fd5b8480fd5b8280fd5b8382346101ce57816003193601126101ce57602090516001600160a01b037f0000000000000000000000000000000000000000000000000000000000000000168152f35b5080fd5b509160803660031901126103705781356101ea6107cd565b67ffffffffffffffff926044358481116101ce5761020b9036908701610800565b90606435948511610370573660238601121561037057848601359061022f826107e8565b9561023c89519788610755565b82875260209260248489019160051b8301019136831161036c576024859101915b83831061035c57505050506001600160a01b0396877f0000000000000000000000000000000000000000000000000000000000000000168033036103265750505b825181101561030e57806102b4600192856108ea565b51867fd05d8e0013365e4d441d98e6459477af9dd142c5cf590e87ca927921993b6c626103056102e4858c6108ea565b518d516001600160a01b038b16815260208101919091529081906040820190565b0390a30161029e565b50959461031f949391921690610939565b9051908152f35b604492508951917fce98f81500000000000000000000000000000000000000000000000000000000835233908301526024820152fd5b823581529181019185910161025d565b8380fd5b80fd5b8382346101ce57816003193601126101ce57602090516001600160a01b037f0000000000000000000000000000000000000000000000000000000000000000168152f35b50919060603660031901126101ce5780356103d06107cd565b67ffffffffffffffff92604435848111610562576103f19036908301610800565b908651957fceee6e55000000000000000000000000000000000000000000000000000000008752602080928801528661042d60248201856108b6565b039681816001600160a01b039981838c7f0000000000000000000000000000000000000000000000000000000000000000165af19687156105585782976104c1575b50505b825181101561030e5780610488600192856108ea565b51867fdfde4db189423e6f919a3d3cb1306e03dc18b4e72bc0c6c13fe07c58b395335c6104b86102e4858c6108ea565b0390a301610472565b909196503d8088843e6104d48184610755565b820191838184031261055457805191821161055457019080601f83011215610550578151610501816107e8565b9261050e8b519485610755565b818452848085019260051b82010192831161054c5784809101915b83831061053c575050505094388061046f565b8251815291810191859101610529565b8880fd5b8680fd5b8780fd5b89513d84823e3d90fd5b8580fd5b8382346101ce57816003193601126101ce576001600160a01b0360209254169051908152f35b83346103705780600319360112610370576105a561085e565b806001600160a01b03815473ffffffffffffffffffffffffffffffffffffffff1981168355167f8be0079c531659141344cd1fd0a4f28419497f9722a3daafe3b4186f6b6457e08280a380f35b509034610186576020366003190112610186578160209363ffffffff92358152600185522054169051908152f35b509034610186578160031936011261018657356024359163ffffffff831680930361036c5761064d61085e565b81845260016020528320805463ffffffff1916831790557fd9c9e56222fe2b65a0022908f00615ccf568720470e84992da2945e08eae3bd48380a380f35b8382346101ce57816003193601126101ce57602090516001600160a01b037f0000000000000000000000000000000000000000000000000000000000000000168152f35b92939050346103705780600319360112610370578183019083821067ffffffffffffffff831117610742575061073e93508152600982527f68797065726c616e65000000000000000000000000000000000000000000000060208301525191829160208352602083019061078d565b0390f35b80604186634e487b7160e01b6024945252fd5b90601f8019910116810190811067ffffffffffffffff82111761077757604052565b634e487b7160e01b600052604160045260246000fd5b919082519283825260005b8481106107b9575050826000602080949584010152601f8019910116010190565b602081830181015184830182015201610798565b602435906001600160a01b03821682036107e357565b600080fd5b67ffffffffffffffff81116107775760051b60200190565b81601f820112156107e357803591610817836107e8565b926108256040519485610755565b808452602092838086019260051b8201019283116107e3578301905b82821061084f575050505090565b81358152908301908301610841565b6001600160a01b0360005416330361087257565b606460405162461bcd60e51b815260206004820152602060248201527f4f776e61626c653a2063616c6c6572206973206e6f7420746865206f776e65726044820152fd5b90815180825260208080930193019160005b8281106108d6575050505090565b8351855293810193928101926001016108c8565b80518210156108fe5760209160051b010190565b634e487b7160e01b600052603260045260246000fd5b610936939263ffffffff6060931682526020820152816040820152019061078d565b90565b9291600093845260019160209383855260409363ffffffff8588205416918215610b445790610976948651958691888a84015260608301906108b6565b92601f19928383860301898401528980835196878152019201908b5b8b878210610b2e57505050506109af935003908101855284610755565b6001600160a01b03807f0000000000000000000000000000000000000000000000000000000000000000169216908451907f9c42bd18000000000000000000000000000000000000000000000000000000008252868280610a1588878660048501610914565b0381875afa918215610b24578892610af5575b50348211610ab25791869391869593610a6f9751978895869485937ffa31de0100000000000000000000000000000000000000000000000000000000855260048501610914565b03925af1908115610aa95750610a8457505090565b813d8311610aa2575b610a978183610755565b810103126103705790565b503d610a8d565b513d85823e3d90fd5b60648787519062461bcd60e51b82526004820152601060248201527f496e73756666696369656e7420666565000000000000000000000000000000006044820152fd5b9091508681813d8311610b1d575b610b0d8183610755565b8101031261055457519038610a28565b503d610b03565b86513d8a823e3d90fd5b835185528a955093840193909201918101610992565b600486517f5cfc0eb6000000000000000000000000000000000000000000000000000000008152fdfea264697066735822122063829a7a656fca0b71effc200e3fe3fa3b70e978f0662fb637046b30b717748164736f6c63430008140033",
  "devdoc": {
    "events": {
      "BlockDispatched(uint256,address,uint256,bytes32)": {
        "details": "Emitted when a block is dispatched to another chain.",
        "params": {
          "adapter": "- The adapter address associated with the dispatched block.",
          "blockHeader": "- The dispatched block header as a bytes32 value.",
          "blockNumber": "- The block number associated with the dispatched block.",
          "targetChainId": "- The target chain's identifier associated with the dispatched block."
        }
      },
      "MessageDispatched(uint256,address,uint256,bytes32)": {
        "details": "Emitted when a message is dispatched to another chain.",
        "params": {
          "adapter": "- The adapter address associated with the dispatched message.",
          "messageHash": "- The dispatched message hash as a bytes32 value.",
          "messageId": "- The message identifier associated with the dispatched message.",
          "targetChainId": "- The target chain's identifier associated with the dispatched message."
        }
      }
    },
    "kind": "dev",
    "methods": {
      "dispatchBlocks(uint256,address,uint256[])": {
        "details": "Dispatches blocks to a given adapter on the target chaib.",
        "params": {
          "adapter": "- The adapter instance to use.",
          "blockNumbers": "- An array of Uint256 block numbers to dispatch.",
          "targetChainId": "- The target chain's Uint256 identifier."
        },
        "returns": {
          "_0": "result - The result returned by the adapter as bytes."
        }
      },
      "dispatchMessages(uint256,address,uint256[],bytes32[])": {
        "details": "Dispatches messages to a target chain using the specified adapter.",
        "params": {
          "adapter": "- The adapter instance to use.",
          "messageHashes": "- An array of bytes32 message hashes.",
          "messageIds": "- An array of Uint256 message identifiers.",
          "targetChainId": "- The target chain's Uint256 identifier."
        },
        "returns": {
          "_0": "result - The result returned by the adapter as bytes."
        }
      },
      "owner()": {
        "details": "Returns the address of the current owner."
      },
      "renounceOwnership()": {
        "details": "Leaves the contract without owner. It will not be possible to call `onlyOwner` functions anymore. Can only be called by the current owner. NOTE: Renouncing ownership will leave the contract without an owner, thereby removing any functionality that is only available to the owner."
      },
      "transferOwnership(address)": {
        "details": "Transfers ownership of the contract to a new account (`newOwner`). Can only be called by the current owner."
      }
    },
    "version": 1
  },
  "userdoc": {
    "kind": "user",
    "methods": {
      "dispatchBlocks(uint256,address,uint256[])": {
        "notice": "blockNumbers must include block numbers that are greater than or equal to (currentBlock - 256) due to EVM limitations."
      },
      "dispatchMessages(uint256,address,uint256[],bytes32[])": {
        "notice": "This function can be called only by Yaho"
      }
    },
    "version": 1
  },
  "storageLayout": {
    "storage": [
      {
        "astId": 296,
        "contract": "contracts/adapeters/Hyperlane/HyperlaneReporter.sol:HyperlaneReporter",
        "label": "_owner",
        "offset": 0,
        "slot": "0",
        "type": "t_address"
      },
      {
        "astId": 450,
        "contract": "contracts/adapeters/Hyperlane/HyperlaneReporter.sol:HyperlaneReporter",
        "label": "domains",
        "offset": 0,
        "slot": "1",
        "type": "t_mapping(t_uint256,t_uint32)"
      }
    ],
    "types": {
      "t_address": {
        "encoding": "inplace",
        "label": "address",
        "numberOfBytes": "20"
      },
      "t_mapping(t_uint256,t_uint32)": {
        "encoding": "mapping",
        "key": "t_uint256",
        "label": "mapping(uint256 => uint32)",
        "numberOfBytes": "32",
        "value": "t_uint32"
      },
      "t_uint256": {
        "encoding": "inplace",
        "label": "uint256",
        "numberOfBytes": "32"
      },
      "t_uint32": {
        "encoding": "inplace",
        "label": "uint32",
        "numberOfBytes": "4"
      }
    }
  }
}