{
  "address": "0x84827596bfd9d4e9f723d448c751d78fa506f386",
  "abi": [
    {
      "inputs": [
        {
          "internalType": "address",
          "name": "hyperlaneMailbox",
          "type": "address"
        }
      ],
      "stateMutability": "nonpayable",
      "type": "constructor"
    },
    {
      "inputs": [
        {
          "internalType": "uint256",
          "name": "blockNumber",
          "type": "uint256"
        },
        {
          "internalType": "bytes32",
          "name": "blockHash",
          "type": "bytes32"
        },
        {
          "internalType": "bytes32",
          "name": "storedBlockHash",
          "type": "bytes32"
        }
      ],
      "name": "ConflictingBlockHeader",
      "type": "error"
    },
    {
      "inputs": [
        {
          "internalType": "uint256",
          "name": "length",
          "type": "uint256"
        }
      ],
      "name": "InvalidBlockHeaderLength",
      "type": "error"
    },
    {
      "inputs": [],
      "name": "InvalidBlockHeaderRLP",
      "type": "error"
    },
    {
      "inputs": [],
      "name": "UnauthorizedHyperlaneReceive",
      "type": "error"
    },
    {
      "anonymous": false,
      "inputs": [
        {
          "indexed": true,
          "internalType": "uint256",
          "name": "id",
          "type": "uint256"
        },
        {
          "indexed": true,
          "internalType": "bytes32",
          "name": "hash",
          "type": "bytes32"
        }
      ],
      "name": "HashStored",
      "type": "event"
    },
    {
      "anonymous": false,
      "inputs": [
        {
          "indexed": true,
          "internalType": "address",
          "name": "previousOwner",
          "type": "address"
        },
        {
          "indexed": true,
          "internalType": "address",
          "name": "newOwner",
          "type": "address"
        }
      ],
      "name": "OwnershipTransferred",
      "type": "event"
    },
    {
      "anonymous": false,
      "inputs": [
        {
          "indexed": true,
          "internalType": "uint256",
          "name": "chainId",
          "type": "uint256"
        },
        {
          "indexed": true,
          "internalType": "uint32",
          "name": "domain",
          "type": "uint32"
        },
        {
          "indexed": true,
          "internalType": "bytes32",
          "name": "reporter",
          "type": "bytes32"
        }
      ],
      "name": "ReporterSet",
      "type": "event"
    },
    {
      "inputs": [],
      "name": "HYPERLANE_MAILBOX",
      "outputs": [
        {
          "internalType": "address",
          "name": "",
          "type": "address"
        }
      ],
      "stateMutability": "view",
      "type": "function"
    },
    {
      "inputs": [],
      "name": "PROVIDER",
      "outputs": [
        {
          "internalType": "string",
          "name": "",
          "type": "string"
        }
      ],
      "stateMutability": "view",
      "type": "function"
    },
    {
      "inputs": [
        {
          "internalType": "uint32",
          "name": "",
          "type": "uint32"
        }
      ],
      "name": "chainIds",
      "outputs": [
        {
          "internalType": "uint256",
          "name": "",
          "type": "uint256"
        }
      ],
      "stateMutability": "view",
      "type": "function"
    },
    {
      "inputs": [
        {
          "internalType": "uint32",
          "name": "",
          "type": "uint32"
        }
      ],
      "name": "enabledReporters",
      "outputs": [
        {
          "internalType": "bytes32",
          "name": "",
          "type": "bytes32"
        }
      ],
      "stateMutability": "view",
      "type": "function"
    },
    {
      "inputs": [
        {
          "internalType": "uint256",
          "name": "domain",
          "type": "uint256"
        },
        {
          "internalType": "uint256",
          "name": "id",
          "type": "uint256"
        }
      ],
      "name": "getHash",
      "outputs": [
        {
          "internalType": "bytes32",
          "name": "",
          "type": "bytes32"
        }
      ],
      "stateMutability": "view",
      "type": "function"
    },
    {
      "inputs": [
        {
          "internalType": "uint32",
          "name": "origin",
          "type": "uint32"
        },
        {
          "internalType": "bytes32",
          "name": "sender",
          "type": "bytes32"
        },
        {
          "internalType": "bytes",
          "name": "message",
          "type": "bytes"
        }
      ],
      "name": "handle",
      "outputs": [],
      "stateMutability": "payable",
      "type": "function"
    },
    {
      "inputs": [],
      "name": "owner",
      "outputs": [
        {
          "internalType": "address",
          "name": "",
          "type": "address"
        }
      ],
      "stateMutability": "view",
      "type": "function"
    },
    {
      "inputs": [
        {
          "internalType": "uint256",
          "name": "chainId",
          "type": "uint256"
        },
        {
          "internalType": "bytes[]",
          "name": "blockHeaders",
          "type": "bytes[]"
        }
      ],
      "name": "proveAncestralBlockHashes",
      "outputs": [],
      "stateMutability": "nonpayable",
      "type": "function"
    },
    {
      "inputs": [],
      "name": "renounceOwnership",
      "outputs": [],
      "stateMutability": "nonpayable",
      "type": "function"
    },
    {
      "inputs": [
        {
          "internalType": "uint256",
          "name": "chainId",
          "type": "uint256"
        },
        {
          "internalType": "uint32",
          "name": "domain",
          "type": "uint32"
        },
        {
          "internalType": "bytes32",
          "name": "reporter",
          "type": "bytes32"
        }
      ],
      "name": "setReporterByChain",
      "outputs": [],
      "stateMutability": "nonpayable",
      "type": "function"
    },
    {
      "inputs": [
        {
          "internalType": "address",
          "name": "newOwner",
          "type": "address"
        }
      ],
      "name": "transferOwnership",
      "outputs": [],
      "stateMutability": "nonpayable",
      "type": "function"
    }
  ],
  "transactionHash": "0xcdc9bb617aa46cdf167af2868c6ee125038609e1ea7d5cb30a28ee24bae63527",
  "args": [
    "0xC946BF8e51E6861BEf8831a458cF174771a777F7"
  ],
  "numDeployments": 1,
  "solcInputHash": "310df9762748bfe64aebb5ab3f6df0e5",
  "bytecode": "0x60a0346100af57601f610ed638819003918201601f19168301916001600160401b038311848410176100b4578084926020946040528339810103126100af57516001600160a01b039081811681036100af5760018054336001600160a01b03198216811790925560405193167f8be0079c531659141344cd1fd0a4f28419497f9722a3daafe3b4186f6b6457e0600080a3608052610e0b90816100cb823960805181818161028101526104d40152f35b600080fd5b634e487b7160e01b600052604160045260246000fdfe6080604052600436101561001257600080fd5b60003560e01c8062d34411146100c65780631b855044146100c157806356d5d475146100bc5780636558b681146100b7578063715018a6146100b25780638da5cb5b146100ad5780639c475207146100a8578063c751fbfb146100a3578063e53091b71461009e578063e81900a6146100995763f2fde38b1461009457600080fd5b610652565b610584565b6104f8565b6104b4565b61047d565b610456565b6103ea565b6103b3565b61022a565b6101dd565b610148565b634e487b7160e01b600052604160045260246000fd5b604051906040820182811067ffffffffffffffff82111761010157604052565b6100cb565b6040519190601f01601f1916820167ffffffffffffffff81118382101761010157604052565b67ffffffffffffffff811161010157601f01601f191660200190565b346101d85760003660031901126101d8576101616100e1565b6009815260207f68797065726c616e650000000000000000000000000000000000000000000000818301526040908151928184928352815191828285015260005b8381106101c2575050600083830185015250601f01601f19168101030190f35b81810183015187820187015286945082016101a2565b600080fd5b346101d85760403660031901126101d857600435600052600060205260406000206024356000526020526020604060002054604051908152f35b6004359063ffffffff821682036101d857565b60603660031901126101d85761023e610217565b60443567ffffffffffffffff8082116101d857366023830112156101d85781600401358181116101d85782019060248201903682116101d8576001600160a01b037f0000000000000000000000000000000000000000000000000000000000000000163314801590610393575b6103695763ffffffff600095168552602091600383526040858188205495031261034e5760248501358281116103655785019281604385011215610365576024840135936103006102fb8661056c565b610106565b9460448387838152019160051b8301019184831161036157604401905b8282106103525750505050604485013591821161034e5760246103459261034b960101610a4d565b91610aa3565b80f35b8580fd5b8135815290830190830161031d565b8980fd5b8680fd5b60046040517ff920c49e000000000000000000000000000000000000000000000000000000008152fd5b5063ffffffff8516600052600260205260243560406000205414156102ab565b346101d85760203660031901126101d85763ffffffff6103d1610217565b1660005260036020526020604060002054604051908152f35b346101d857600080600319360112610453576104046106f7565b806001600160a01b0360015473ffffffffffffffffffffffffffffffffffffffff198116600155167f8be0079c531659141344cd1fd0a4f28419497f9722a3daafe3b4186f6b6457e08280a380f35b80fd5b346101d85760003660031901126101d85760206001600160a01b0360015416604051908152f35b346101d85760203660031901126101d85763ffffffff61049b610217565b1660005260026020526020604060002054604051908152f35b346101d85760003660031901126101d85760206040516001600160a01b037f0000000000000000000000000000000000000000000000000000000000000000168152f35b346101d85760603660031901126101d85760043560243563ffffffff81168091036101d857604435906105296106f7565b600092818452600260205282604085205560036020528060408520557f33650c025ba183d07fb1e4533c7f06438835fff96b46d07d6112ed2dda6149ba8480a480f35b67ffffffffffffffff81116101015760051b60200190565b346101d85760403660031901126101d857602467ffffffffffffffff81358181116101d857366023820112156101d8578060040135926105c66102fb8561056c565b9384938186528260208097019260051b850101933685116101d857838101925b8584106105fb576105f987600435610866565b005b83358381116101d857820190366043830112156101d85785820135906106236102fb8361012c565b828152604493368585830101116101d8578b8481969582966000940183860137830101528152019301926105e6565b346101d85760203660031901126101d8576004356001600160a01b0381168082036101d85761067f6106f7565b1561068d576105f99061074f565b608460405162461bcd60e51b815260206004820152602660248201527f4f776e61626c653a206e6577206f776e657220697320746865207a65726f206160448201527f64647265737300000000000000000000000000000000000000000000000000006064820152fd5b6001600160a01b0360015416330361070b57565b606460405162461bcd60e51b815260206004820152602060248201527f4f776e61626c653a2063616c6c6572206973206e6f7420746865206f776e65726044820152fd5b600154906001600160a01b03809116918273ffffffffffffffffffffffffffffffffffffffff19821617600155167f8be0079c531659141344cd1fd0a4f28419497f9722a3daafe3b4186f6b6457e0600080a3565b634e487b7160e01b600052601160045260246000fd5b60001981146107c95760010190565b6107a4565b634e487b7160e01b600052603260045260246000fd5b8051156107f15760200190565b6107ce565b8051600810156107f1576101200190565b80518210156107f15760209160051b010190565b6000198101919082116107c957565b60bf198101919082116107c957565b607f198101919082116107c957565b60f6198101919082116107c957565b60b6198101919082116107c957565b91909160005b83518110156109df576108886108828286610807565b51610af8565b61089861089482610c06565b1590565b6109b5576108a590610b3d565b8051600f811080156109ab575b61097857506108d56108c96108cf6108c9846107e4565b51610c2d565b926107f6565b6108df8387610807565b516020815191012061090e826108ff876000526000602052604060002090565b90600052602052604060002090565b54808203610939575050610934929161092961092f9261081b565b856109e5565b6107ba565b61086c565b6040517fc442fd2b0000000000000000000000000000000000000000000000000000000081526004810184905260248101929092526044820152606490fd5b6040517f9fd6e11c0000000000000000000000000000000000000000000000000000000081526004810191909152602490fd5b50601181116108b2565b60046040517fe4508b9f000000000000000000000000000000000000000000000000000000008152fd5b50509050565b6000818152806020526040812083825260205283604082205403610a0a575b50505050565b7f7c57815e36323391c63e53a2fe2969599eb6dbcf52484a3bd8909aef4a6704d7918152806020526040812083825260205283604082205580a338808080610a04565b9080601f830112156101d857813590610a686102fb8361056c565b9182938184526020808095019260051b8201019283116101d8578301905b828210610a94575050505090565b81358152908301908301610a86565b92919060005b8151811015610adb5780610ad5610ac260019385610807565b51610acd8387610807565b5190886109e5565b01610aa9565b5050509050565b610aea6100e1565b906000825260006020830152565b60006020610b046100e1565b82815201526020815191610b166100e1565b92835201602082015290565b90600182018092116107c957565b919082018092116107c957565b610b4681610c06565b156101d857610b5481610c8c565b610b606102fb8261056c565b81815291601f19610b708361056c565b0160005b818110610bef575050610b95602080920151610b8f81610d75565b90610b30565b6000905b838210610ba7575050505090565b610be381610bb7610be993610cee565b90610bc06100e1565b8281528187820152610bd2868a610807565b52610bdd8589610807565b50610b30565b916107ba565b90610b99565b602090610bfa610ae2565b82828801015201610b74565b805115610c2757602060c09101515160001a10610c2257600190565b600090565b50600090565b80518015159081610c80575b50156101d8576020810190610c4e8251610d75565b9151908282018092116107c957519182039182116107c957519060208110610c74575090565b6020036101000a900490565b60219150111538610c39565b805115610c275760009060208101908151610ca681610d75565b81018091116107c9579151905181018091116107c95791905b828110610ccc5750905090565b610cd581610cee565b81018091116107c957610ce890916107ba565b90610cbf565b805160001a906080821015610d0557505060015b90565b60b8821015610d205750610d1b610d0291610839565b610b22565b9060c0811015610d445760b51991600160b783602003016101000a91015104010190565b9060f8821015610d5b5750610d1b610d029161082a565b60010151602082900360f7016101000a90040160f5190190565b5160001a6080811015610d885750600090565b60b881108015610dbf575b15610d9e5750600190565b60c0811015610db357610d1b610d0291610857565b610d1b610d0291610848565b5060c08110158015610d93575060f88110610d9356fea2646970667358221220d74882bcfbfb503365471b9cd2106ebddec2e8496ae0b3ad1859dc695e47c2bd64736f6c63430008140033",
  "devdoc": {
    "events": {
      "HashStored(uint256,bytes32)": {
        "details": "Emitted when a hash is stored.",
        "params": {
          "hash": "- The stored hash as bytes32 values.",
          "id": "- The ID of the stored hash."
        }
      }
    },
    "kind": "dev",
    "methods": {
      "getHash(uint256,uint256)": {
        "details": "Returns the hash for a given ID.",
        "params": {
          "domain": "- Identifier for the domain to query.",
          "id": "- Identifier for the ID to query."
        },
        "returns": {
          "_0": "Bytes32 hash for the given ID on the given domain."
        }
      },
      "owner()": {
        "details": "Returns the address of the current owner."
      },
      "proveAncestralBlockHashes(uint256,bytes[])": {
        "details": "Proves and stores valid ancestral block hashes for a given chain ID.",
        "params": {
          "blockHeaders": "- The RLP encoded block headers to prove the hashes for.",
          "chainId": "- The ID of the chain to prove block hashes for."
        }
      },
      "renounceOwnership()": {
        "details": "Leaves the contract without owner. It will not be possible to call `onlyOwner` functions anymore. Can only be called by the current owner. NOTE: Renouncing ownership will leave the contract without an owner, thereby removing any functionality that is only available to the owner."
      },
      "transferOwnership(address)": {
        "details": "Transfers ownership of the contract to a new account (`newOwner`). Can only be called by the current owner."
      }
    },
    "version": 1
  },
  "userdoc": {
    "kind": "user",
    "methods": {
      "getHash(uint256,uint256)": {
        "notice": "MUST return bytes32(0) if the hash is not present."
      },
      "proveAncestralBlockHashes(uint256,bytes[])": {
        "notice": "Block headers should be ordered by descending block number and should start with a known block header."
      }
    },
    "version": 1
  },
  "storageLayout": {
    "storage": [
      {
        "astId": 4737,
        "contract": "contracts/adapeters/Hyperlane/HyperlaneAdapter.sol:HyperlaneAdapter",
        "label": "_hashes",
        "offset": 0,
        "slot": "0",
        "type": "t_mapping(t_uint256,t_mapping(t_uint256,t_bytes32))"
      },
      {
        "astId": 354,
        "contract": "contracts/adapeters/Hyperlane/HyperlaneAdapter.sol:HyperlaneAdapter",
        "label": "_owner",
        "offset": 0,
        "slot": "1",
        "type": "t_address"
      },
      {
        "astId": 4992,
        "contract": "contracts/adapeters/Hyperlane/HyperlaneAdapter.sol:HyperlaneAdapter",
        "label": "enabledReporters",
        "offset": 0,
        "slot": "2",
        "type": "t_mapping(t_uint32,t_bytes32)"
      },
      {
        "astId": 4996,
        "contract": "contracts/adapeters/Hyperlane/HyperlaneAdapter.sol:HyperlaneAdapter",
        "label": "chainIds",
        "offset": 0,
        "slot": "3",
        "type": "t_mapping(t_uint32,t_uint256)"
      }
    ],
    "types": {
      "t_address": {
        "encoding": "inplace",
        "label": "address",
        "numberOfBytes": "20"
      },
      "t_bytes32": {
        "encoding": "inplace",
        "label": "bytes32",
        "numberOfBytes": "32"
      },
      "t_mapping(t_uint256,t_bytes32)": {
        "encoding": "mapping",
        "key": "t_uint256",
        "label": "mapping(uint256 => bytes32)",
        "numberOfBytes": "32",
        "value": "t_bytes32"
      },
      "t_mapping(t_uint256,t_mapping(t_uint256,t_bytes32))": {
        "encoding": "mapping",
        "key": "t_uint256",
        "label": "mapping(uint256 => mapping(uint256 => bytes32))",
        "numberOfBytes": "32",
        "value": "t_mapping(t_uint256,t_bytes32)"
      },
      "t_mapping(t_uint32,t_bytes32)": {
        "encoding": "mapping",
        "key": "t_uint32",
        "label": "mapping(uint32 => bytes32)",
        "numberOfBytes": "32",
        "value": "t_bytes32"
      },
      "t_mapping(t_uint32,t_uint256)": {
        "encoding": "mapping",
        "key": "t_uint32",
        "label": "mapping(uint32 => uint256)",
        "numberOfBytes": "32",
        "value": "t_uint256"
      },
      "t_uint256": {
        "encoding": "inplace",
        "label": "uint256",
        "numberOfBytes": "32"
      },
      "t_uint32": {
        "encoding": "inplace",
        "label": "uint32",
        "numberOfBytes": "4"
      }
    }
  }
}