{
  "address": "0x73a7d1B252300b2e2e9a1119D1E490C6F9bf9c9B",
  "abi": [
    {
      "inputs": [
        {
          "components": [
            {
              "internalType": "uint256",
              "name": "nonce",
              "type": "uint256"
            },
            {
              "internalType": "uint256",
              "name": "targetChainId",
              "type": "uint256"
            },
            {
              "internalType": "uint256",
              "name": "threshold",
              "type": "uint256"
            },
            {
              "internalType": "address",
              "name": "sender",
              "type": "address"
            },
            {
              "internalType": "address",
              "name": "receiver",
              "type": "address"
            },
            {
              "internalType": "bytes",
              "name": "data",
              "type": "bytes"
            },
            {
              "internalType": "contract IReporter[]",
              "name": "reporters",
              "type": "address[]"
            },
            {
              "internalType": "contract IAdapter[]",
              "name": "adapters",
              "type": "address[]"
            }
          ],
          "internalType": "struct Message",
          "name": "message",
          "type": "tuple"
        }
      ],
      "name": "InvalidMessage",
      "type": "error"
    },
    {
      "inputs": [
        {
          "internalType": "uint256",
          "name": "threshold",
          "type": "uint256"
        },
        {
          "internalType": "uint256",
          "name": "maxThreshold",
          "type": "uint256"
        }
      ],
      "name": "InvalidThreshold",
      "type": "error"
    },
    {
      "inputs": [
        {
          "internalType": "uint256",
          "name": "messageId",
          "type": "uint256"
        }
      ],
      "name": "MessageHashNotFound",
      "type": "error"
    },
    {
      "inputs": [],
      "name": "NoAdaptersGiven",
      "type": "error"
    },
    {
      "inputs": [],
      "name": "NoMessageIdsGiven",
      "type": "error"
    },
    {
      "inputs": [],
      "name": "NoMessagesGiven",
      "type": "error"
    },
    {
      "inputs": [],
      "name": "NoReportersGiven",
      "type": "error"
    },
    {
      "inputs": [
        {
          "internalType": "uint256",
          "name": "arrayOne",
          "type": "uint256"
        },
        {
          "internalType": "uint256",
          "name": "arrayTwo",
          "type": "uint256"
        }
      ],
      "name": "UnequalArrayLengths",
      "type": "error"
    },
    {
      "anonymous": false,
      "inputs": [
        {
          "indexed": true,
          "internalType": "uint256",
          "name": "messageId",
          "type": "uint256"
        },
        {
          "components": [
            {
              "internalType": "uint256",
              "name": "nonce",
              "type": "uint256"
            },
            {
              "internalType": "uint256",
              "name": "targetChainId",
              "type": "uint256"
            },
            {
              "internalType": "uint256",
              "name": "threshold",
              "type": "uint256"
            },
            {
              "internalType": "address",
              "name": "sender",
              "type": "address"
            },
            {
              "internalType": "address",
              "name": "receiver",
              "type": "address"
            },
            {
              "internalType": "bytes",
              "name": "data",
              "type": "bytes"
            },
            {
              "internalType": "contract IReporter[]",
              "name": "reporters",
              "type": "address[]"
            },
            {
              "internalType": "contract IAdapter[]",
              "name": "adapters",
              "type": "address[]"
            }
          ],
          "indexed": false,
          "internalType": "struct Message",
          "name": "message",
          "type": "tuple"
        }
      ],
      "name": "MessageDispatched",
      "type": "event"
    },
    {
      "inputs": [
        {
          "components": [
            {
              "internalType": "uint256",
              "name": "nonce",
              "type": "uint256"
            },
            {
              "internalType": "uint256",
              "name": "targetChainId",
              "type": "uint256"
            },
            {
              "internalType": "uint256",
              "name": "threshold",
              "type": "uint256"
            },
            {
              "internalType": "address",
              "name": "sender",
              "type": "address"
            },
            {
              "internalType": "address",
              "name": "receiver",
              "type": "address"
            },
            {
              "internalType": "bytes",
              "name": "data",
              "type": "bytes"
            },
            {
              "internalType": "contract IReporter[]",
              "name": "reporters",
              "type": "address[]"
            },
            {
              "internalType": "contract IAdapter[]",
              "name": "adapters",
              "type": "address[]"
            }
          ],
          "internalType": "struct Message",
          "name": "message",
          "type": "tuple"
        }
      ],
      "name": "calculateMessageHash",
      "outputs": [
        {
          "internalType": "bytes32",
          "name": "",
          "type": "bytes32"
        }
      ],
      "stateMutability": "pure",
      "type": "function"
    },
    {
      "inputs": [
        {
          "internalType": "uint256",
          "name": "sourceChainId",
          "type": "uint256"
        },
        {
          "internalType": "address",
          "name": "dispatcherAddress",
          "type": "address"
        },
        {
          "internalType": "bytes32",
          "name": "messageHash",
          "type": "bytes32"
        }
      ],
      "name": "calculateMessageId",
      "outputs": [
        {
          "internalType": "uint256",
          "name": "",
          "type": "uint256"
        }
      ],
      "stateMutability": "pure",
      "type": "function"
    },
    {
      "inputs": [],
      "name": "currentNonce",
      "outputs": [
        {
          "internalType": "uint256",
          "name": "",
          "type": "uint256"
        }
      ],
      "stateMutability": "view",
      "type": "function"
    },
    {
      "inputs": [
        {
          "internalType": "uint256",
          "name": "targetChainId",
          "type": "uint256"
        },
        {
          "internalType": "uint256",
          "name": "threshold",
          "type": "uint256"
        },
        {
          "internalType": "address",
          "name": "receiver",
          "type": "address"
        },
        {
          "internalType": "bytes",
          "name": "data",
          "type": "bytes"
        },
        {
          "internalType": "contract IReporter[]",
          "name": "reporters",
          "type": "address[]"
        },
        {
          "internalType": "contract IAdapter[]",
          "name": "adapters",
          "type": "address[]"
        }
      ],
      "name": "dispatchMessage",
      "outputs": [
        {
          "internalType": "uint256",
          "name": "",
          "type": "uint256"
        }
      ],
      "stateMutability": "nonpayable",
      "type": "function"
    },
    {
      "inputs": [
        {
          "internalType": "uint256",
          "name": "targetChainId",
          "type": "uint256"
        },
        {
          "internalType": "uint256",
          "name": "threshold",
          "type": "uint256"
        },
        {
          "internalType": "address",
          "name": "receiver",
          "type": "address"
        },
        {
          "internalType": "bytes",
          "name": "data",
          "type": "bytes"
        },
        {
          "internalType": "contract IReporter[]",
          "name": "reporters",
          "type": "address[]"
        },
        {
          "internalType": "contract IAdapter[]",
          "name": "adapters",
          "type": "address[]"
        }
      ],
      "name": "dispatchMessageToAdapters",
      "outputs": [
        {
          "internalType": "uint256",
          "name": "",
          "type": "uint256"
        },
        {
          "internalType": "bytes32[]",
          "name": "",
          "type": "bytes32[]"
        }
      ],
      "stateMutability": "payable",
      "type": "function"
    },
    {
      "inputs": [
        {
          "internalType": "uint256",
          "name": "targetChainId",
          "type": "uint256"
        },
        {
          "internalType": "uint256[]",
          "name": "thresholds",
          "type": "uint256[]"
        },
        {
          "internalType": "address[]",
          "name": "receivers",
          "type": "address[]"
        },
        {
          "internalType": "bytes[]",
          "name": "data",
          "type": "bytes[]"
        },
        {
          "internalType": "contract IReporter[]",
          "name": "reporters",
          "type": "address[]"
        },
        {
          "internalType": "contract IAdapter[]",
          "name": "adapters",
          "type": "address[]"
        }
      ],
      "name": "dispatchMessagesToAdapters",
      "outputs": [
        {
          "internalType": "uint256[]",
          "name": "",
          "type": "uint256[]"
        },
        {
          "internalType": "bytes32[]",
          "name": "",
          "type": "bytes32[]"
        }
      ],
      "stateMutability": "payable",
      "type": "function"
    },
    {
      "inputs": [
        {
          "internalType": "uint256",
          "name": "messageId",
          "type": "uint256"
        }
      ],
      "name": "getPendingMessageHash",
      "outputs": [
        {
          "internalType": "bytes32",
          "name": "",
          "type": "bytes32"
        }
      ],
      "stateMutability": "view",
      "type": "function"
    },
    {
      "inputs": [
        {
          "components": [
            {
              "internalType": "uint256",
              "name": "nonce",
              "type": "uint256"
            },
            {
              "internalType": "uint256",
              "name": "targetChainId",
              "type": "uint256"
            },
            {
              "internalType": "uint256",
              "name": "threshold",
              "type": "uint256"
            },
            {
              "internalType": "address",
              "name": "sender",
              "type": "address"
            },
            {
              "internalType": "address",
              "name": "receiver",
              "type": "address"
            },
            {
              "internalType": "bytes",
              "name": "data",
              "type": "bytes"
            },
            {
              "internalType": "contract IReporter[]",
              "name": "reporters",
              "type": "address[]"
            },
            {
              "internalType": "contract IAdapter[]",
              "name": "adapters",
              "type": "address[]"
            }
          ],
          "internalType": "struct Message[]",
          "name": "messages",
          "type": "tuple[]"
        }
      ],
      "name": "relayMessagesToAdapters",
      "outputs": [
        {
          "internalType": "bytes32[]",
          "name": "",
          "type": "bytes32[]"
        }
      ],
      "stateMutability": "payable",
      "type": "function"
    }
  ],
  "transactionHash": "0xa4afbd701587d5f63c86e1ee878fd20fc91cd7b31a2fae6bbd3247ec52f5f1b7",
  "args": [],
  "numDeployments": 1,
  "solcInputHash": "310df9762748bfe64aebb5ab3f6df0e5",
  "bytecode": "0x6080806040523461001657611109908161001c8239f35b600080fdfe610140604052600436101561001357600080fd5b60003560e01c806331fa321b1461094757806339d0bf63146108af5780633db59eeb1461079a578063543836b114610757578063553c19dd14610405578063adb610a3146103e7578063b38fda7c146100a65763feed46df1461007557600080fd5b346100a15760203660031901126100a15760043560005260006020526020604060002054604051908152f35b600080fd5b60c03660031901126100a15760243567ffffffffffffffff81116100a1576100d2903690600401610991565b9060443567ffffffffffffffff81116100a1576100f3903690600401610991565b9260643567ffffffffffffffff81116100a157610114903690600401610991565b94909160843567ffffffffffffffff81116100a157610137903690600401610991565b6101205260e05260a43567ffffffffffffffff81116100a15761015e903690600401610991565b60c052610100528181036103ca578581036103ac5761017c82610ca2565b60a05261018882610ca2565b60805260005b82811061020d576101a161012051610ca2565b506101ad60a051611040565b6102096101e26101c3366101205160e051610b61565b6101d33660c05161010051610b61565b9060805160a051600435610f26565b604051918291604083526101fb6040840160a051610a5d565b908382036020850152610a5d565b0390f35b610218818388610cd4565b3561012051156103825760c051156103585760c051610120510361033657610120518111801561032e575b61030d5750610253818388610cd4565b3590610260818588610cd4565b35916001600160a01b03831683036100a157888210156102f7578160051b860135601e19873603018112156100a15786019267ffffffffffffffff8435116100a1578335360360208501136100a1576001936102d79260c051926101005192610120519260e0519260208335930191600435610e59565b6102e383608051610cf1565b526102f08260a051610cf1565b520161018e565b634e487b7160e01b600052603260045260246000fd5b60449060405190637b7a98f160e01b82526004820152610120516024820152fd5b508015610243565b604460405163df9ccef560e01b815261012051600482015260c0516024820152fd5b60046040517fc77f9c81000000000000000000000000000000000000000000000000000000008152fd5b60046040517f66ab7afe000000000000000000000000000000000000000000000000000000008152fd5b604490866040519163df9ccef560e01b835260048301526024820152fd5b6044916040519163df9ccef560e01b835260048301526024820152fd5b346100a15760003660031901126100a1576020600154604051908152f35b60203660031901126100a15760043567ffffffffffffffff81116100a157610431903690600401610991565b801561072d5760206104438284610d05565b013561045c6104528385610d05565b60c0810190610d20565b6104736104698587610d05565b60e0810190610d20565b919060405193828593602085019760808601908952606060408701525260a08401919060005b8181106106fd57505050602090601f1984820301606085015284815201909260005b8181106106cf5750506104d7925003601f198101835282610ae0565b5190206104e382610ca2565b906104ed83610ca2565b9060005b84811061055e5761020961054a8688878761054460206105118686610d05565b01359461053c61053261046961052a610452858a610d05565b949098610d05565b9690923691610b61565b943691610b61565b93610f26565b604051918291602083526020830190610a5d565b8060051b86013560fe19873603018112156100a1576105809036908801610bb7565b8115158061066d575b610633576105996105a091611075565b3046611090565b8060005260006020526040600020548015610602576105bf8387610cf1565b52806105cb8386610cf1565b5260005260006020526000604081205560001981146105ec576001016104f1565b634e487b7160e01b600052601160045260246000fd5b602482604051907f92e4a25e0000000000000000000000000000000000000000000000000000000082526004820152fd5b610669906040519182917f69b2c1a400000000000000000000000000000000000000000000000000000000835260048301610d93565b0390fd5b5060208101516106a46106c460c08401516106b660e086015160405194859360208501978852606060408601526080850190610d56565b838103601f1901606085015290610d56565b03601f198101835282610ae0565b519020831415610589565b916001919350602080916001600160a01b036106ea8861097d565b16815201940191019184929391936104bb565b9193959450916020806001926001600160a01b0361071a8861097d565b1681520194019101918694959392610499565b60046040517f6832f637000000000000000000000000000000000000000000000000000000008152fd5b346100a15760203660031901126100a15760043567ffffffffffffffff81116100a15761079261078d6020923690600401610bb7565b611075565b604051908152f35b6107a3366109c2565b9490929391969795871561038257851561035857858803610891578789118015610889575b61086b57858489876107fa97966107f2966107e89661084e9e9f8e610e59565b9490983691610b61565b933691610b61565b926040519061080882610ac4565b60018252602036818401376040519261082084610ac4565b60018452602036818601378761083584610ce4565b5261083f84610ce4565b5261084982611040565b610f26565b906102096040519283928352604060208401526040830190610a5d565b6044898960405191637b7a98f160e01b835260048301526024820152fd5b5088156107c8565b604488876040519163df9ccef560e01b835260048301526024820152fd5b346100a1576108bd366109c2565b978296929791979593951561038257881561035857888703610929578682118015610921575b61090357916108fa97959391602099979593610e59565b50604051908152f35b6044828860405191637b7a98f160e01b835260048301526024820152fd5b5081156108e3565b6044878a6040519163df9ccef560e01b835260048301526024820152fd5b346100a15760603660031901126100a1576024356001600160a01b03811681036100a15761079260209160443590600435611090565b35906001600160a01b03821682036100a157565b9181601f840112156100a15782359167ffffffffffffffff83116100a1576020808501948460051b0101116100a157565b60c06003198201126100a15760043591602435916044356001600160a01b03811681036100a157916064359167ffffffffffffffff908184116100a157806023850112156100a1578360040135938285116100a15781602486830101116100a15760240193926084358381116100a15782610a3f91600401610991565b9390939260a4359182116100a157610a5991600401610991565b9091565b90815180825260208080930193019160005b828110610a7d575050505090565b835185529381019392810192600101610a6f565b610100810190811067ffffffffffffffff821117610aae57604052565b634e487b7160e01b600052604160045260246000fd5b6040810190811067ffffffffffffffff821117610aae57604052565b90601f8019910116810190811067ffffffffffffffff821117610aae57604052565b92919267ffffffffffffffff8211610aae5760405191610b2c601f8201601f191660200184610ae0565b8294818452818301116100a1578281602093846000960137010152565b67ffffffffffffffff8111610aae5760051b60200190565b9291610b6c82610b49565b91610b7a6040519384610ae0565b829481845260208094019160051b81019283116100a157905b828210610ba05750505050565b838091610bac8461097d565b815201910190610b93565b9190610100838203126100a15760405190610bd182610a91565b8193803583526020810135602084015260408101356040840152610bf76060820161097d565b6060840152610c086080820161097d565b608084015267ffffffffffffffff9060a08101358281116100a157810183601f820112156100a15783816020610c4093359101610b02565b60a085015260c08101358281116100a157810183601f820112156100a15783816020610c6e93359101610b61565b60c085015260e08101359182116100a1570181601f820112156100a15760e091816020610c9d93359101610b61565b910152565b90610cac82610b49565b610cb96040519182610ae0565b8281528092610cca601f1991610b49565b0190602036910137565b91908110156102f75760051b0190565b8051156102f75760200190565b80518210156102f75760209160051b010190565b90156102f75780359060fe19813603018212156100a1570190565b903590601e19813603018212156100a1570180359067ffffffffffffffff82116100a157602001918160051b360383136100a157565b90815180825260208080930193019160005b828110610d76575050505090565b83516001600160a01b031685529381019392810192600101610d68565b6020808252825181830152808301516040830152604083015160608301526001600160a01b0380606085015116608084015260808401511660a083015260a0830151610100918260c085015281519061012092828487015260005b838110610e44575050509160e0610e31610e41969593601f9561014090600082828901015287199788910116860160c08901519287820301858801520190610d56565b9401519282850301910152610d56565b90565b81810183015187820161014001528201610dee565b989795939190600154996040519a610e708c610a91565b8b5260208b015260408a01523360608a01526001600160a01b031660808901523690610e9b92610b02565b60a08701523690610eab92610b61565b60c08501523690610ebb92610b61565b60e0830152610ec982611075565b91610ed5833046611090565b809181600052600060205284604060002055600154600101600155604051610efe819282610d93565b037f218247aabc759e65b5bb92ccc074f9d62cd187259f2a0984c3c9cf91f67ff7cf91a29190565b9194939094610f358451610ca2565b9360005b815181101561103657610fce906001600160a01b0380610f598386610cf1565b511690610f668388610cf1565b51166040918251917fb4a90ff700000000000000000000000000000000000000000000000000000000835289600484015260248301526080604483015281610fb28d6084830190610a5d565b91600319828403016064830152816000816020998a968d610a5d565b03925af191821561102c5750600091610ff8575b5060019250610ff18289610cf1565b5201610f39565b919282813d8311611025575b61100e8183610ae0565b810103126110225750906001915138610fe2565b80fd5b503d611004565b513d6000823e3d90fd5b5093955050505050565b9060005b8251811015611070578061105a60019285610cf1565b5160005260006020526000604081205501611044565b509050565b60405161108a816106b6602082019485610d93565b51902090565b916001600160a01b0360405192602084019485521660408301526060820152606081526080810181811067ffffffffffffffff821117610aae576040525190209056fea2646970667358221220f224c1de115054c97ac2e3bf07a1e51c985a6dc579acb1677658d319741b026664736f6c63430008140033",
  "devdoc": {
    "events": {
      "MessageDispatched(uint256,(uint256,uint256,uint256,address,address,bytes,address[],address[]))": {
        "details": "Emitted when a message is dispatched with its associated message ID and message struct.",
        "params": {
          "message": "- The message struct associated with this event.",
          "messageId": "- The message ID associated with the dispatched message."
        }
      }
    },
    "kind": "dev",
    "methods": {
      "calculateMessageHash((uint256,uint256,uint256,address,address,bytes,address[],address[]))": {
        "details": "Calculates and returns the hash of a given message.",
        "params": {
          "message": "- The `Message` structure containing various fields to be hashed."
        },
        "returns": {
          "_0": "hash The keccak256 hash of the message, represented as a 32-byte hexadecimal string."
        }
      },
      "calculateMessageId(uint256,address,bytes32)": {
        "details": "Calculates and returns a unique identifier (ID) for a message.",
        "params": {
          "dispatcherAddress": "- The address of the dispatcher sending the message.",
          "messageHash": "- The keccak256 hash of the message, represented as a 32-byte hexadecimal string.",
          "sourceChainId": "- The ID of the chain from which the message originates."
        },
        "returns": {
          "_0": "messageId The unique identifier for the message, calculated based on the input parameters."
        }
      },
      "dispatchMessage(uint256,uint256,address,bytes,address[],address[])": {
        "details": "Dispatches a message to a specified chain with a set of validation parameters without calling the reporters. It just write in storage a commitment of message. In order to dispatch it to the reporters, you must then invoke `relayMessagesToAdapters`",
        "params": {
          "adapters": "- An array of `IAdapter` contracts (for later validation use).",
          "data": "- The data being sent in the message, represented as a byte array.",
          "receiver": "- The address of the receiver on the target chain.",
          "reporters": "- An array of `IReporter` contracts (not actively used in this step).",
          "targetChainId": "- The ID of the target chain to which the message is being sent.",
          "threshold": "- The minimum number of adapters required to have stored the same message."
        },
        "returns": {
          "_0": "messageId A unique identifier for the dispatched message, used for tracking and subsequent validation."
        }
      },
      "dispatchMessageToAdapters(uint256,uint256,address,bytes,address[],address[])": {
        "details": "Dispatches a message to a specified chain with a set of validation parameters and calls the reporters.",
        "params": {
          "adapters": "- An array of `IAdapter` contracts (for later validation use).",
          "data": "- The data being sent in the message, represented as a byte array.",
          "receiver": "- The address of the receiver on the target chain.",
          "reporters": "- An array of `IReporter` contracts (not actively used in this step).",
          "targetChainId": "- The ID of the target chain to which the message is being sent.",
          "threshold": "- The minimum number of adapters required to have stored the same message."
        },
        "returns": {
          "_0": "(messageId, result) A unique identifier for the dispatched message and an array of byte arrays, where each element is the result of dispatching a respective message to the corresponding Reporter."
        }
      },
      "dispatchMessagesToAdapters(uint256,uint256[],address[],bytes[],address[],address[])": {
        "details": "Dispatches an array of messages to specified chains and calls the reporters.",
        "params": {
          "adapters": "- An array of `IAdapter` contracts used for the validation of each message.",
          "data": "- An array of data payloads for each message, represented as byte arrays.",
          "receivers": "- An array of addresses for the receivers on the target chain, one for each message.",
          "reporters": "- An array of `IReporter` contracts for reporting the status of each message.",
          "targetChainId": "- The ID of the target chain for all messages.",
          "thresholds": "- An array of minimum validation thresholds required for each message."
        },
        "returns": {
          "_0": "(messageIds, result) An array of unique identifiers for the dispatched messages and an array of bytes32 arrays, where each element is the result of dispatching a respective message to the corresponding Reporter."
        }
      },
      "getPendingMessageHash(uint256)": {
        "details": "Retrieves the hash of a pending message that was dispatched via `dispatchMessage` but has not yet been relayed to adapters using `relayingMessagesToAdapters`.",
        "params": {
          "messageId": "- The unique identifier of the message for which the hash is being retrieved."
        },
        "returns": {
          "_0": "messageHash The hash of the pending message if it exists."
        }
      },
      "relayMessagesToAdapters((uint256,uint256,uint256,address,address,bytes,address[],address[])[])": {
        "details": "Relays an array of messages to their respective adapters. In order to be able to aggregate messages within the reporter, it's mandatory that all messages have the same targetChainId, reporters and adapters.",
        "params": {
          "messages": "- An array of `Message` structures to be relayed to the adapters."
        },
        "returns": {
          "_0": "result An array of bytes32 arrays, where each element is the result of dispatching a respective all messages to the corresponding Reporter."
        }
      }
    },
    "version": 1
  },
  "userdoc": {
    "kind": "user",
    "methods": {},
    "version": 1
  },
  "storageLayout": {
    "storage": [
      {
        "astId": 3641,
        "contract": "contracts/Yaho.sol:Yaho",
        "label": "_pendingMessageHashes",
        "offset": 0,
        "slot": "0",
        "type": "t_mapping(t_uint256,t_bytes32)"
      },
      {
        "astId": 3643,
        "contract": "contracts/Yaho.sol:Yaho",
        "label": "currentNonce",
        "offset": 0,
        "slot": "1",
        "type": "t_uint256"
      }
    ],
    "types": {
      "t_bytes32": {
        "encoding": "inplace",
        "label": "bytes32",
        "numberOfBytes": "32"
      },
      "t_mapping(t_uint256,t_bytes32)": {
        "encoding": "mapping",
        "key": "t_uint256",
        "label": "mapping(uint256 => bytes32)",
        "numberOfBytes": "32",
        "value": "t_bytes32"
      },
      "t_uint256": {
        "encoding": "inplace",
        "label": "uint256",
        "numberOfBytes": "32"
      }
    }
  }
}