{
  "address": "0x6Ed1337F73D96F2ccE29BcA18553cE270478CF06",
  "abi": [
    {
      "inputs": [
        {
          "internalType": "uint32",
          "name": "_mainChain",
          "type": "uint32"
        },
        {
          "internalType": "uint32",
          "name": "_chainId",
          "type": "uint32"
        },
        {
          "components": [
            {
              "internalType": "address",
              "name": "_address",
              "type": "address"
            },
            {
              "internalType": "uint256",
              "name": "_quantity",
              "type": "uint256"
            },
            {
              "internalType": "uint32",
              "name": "_chainId",
              "type": "uint32"
            },
            {
              "internalType": "address",
              "name": "_contributor",
              "type": "address"
            },
            {
              "internalType": "address",
              "name": "_aggregator",
              "type": "address"
            }
          ],
          "internalType": "struct TokenQuantity[]",
          "name": "_requiredTokens",
          "type": "tuple[]"
        },
        {
          "internalType": "address",
          "name": "_etfToken",
          "type": "address"
        },
        {
          "internalType": "uint256",
          "name": "_etfTokenPerVault",
          "type": "uint256"
        }
      ],
      "stateMutability": "nonpayable",
      "type": "constructor"
    },
    {
      "anonymous": false,
      "inputs": [
        {
          "indexed": false,
          "internalType": "uint256",
          "name": "_vaultId",
          "type": "uint256"
        },
        {
          "indexed": false,
          "internalType": "address",
          "name": "_address",
          "type": "address"
        },
        {
          "indexed": false,
          "internalType": "uint256",
          "name": "_quantity",
          "type": "uint256"
        },
        {
          "indexed": false,
          "internalType": "uint32",
          "name": "_chainId",
          "type": "uint32"
        },
        {
          "indexed": false,
          "internalType": "address",
          "name": "_contributor",
          "type": "address"
        }
      ],
      "name": "Deposit",
      "type": "event"
    },
    {
      "inputs": [
        {
          "internalType": "uint256",
          "name": "",
          "type": "uint256"
        },
        {
          "internalType": "address",
          "name": "",
          "type": "address"
        }
      ],
      "name": "accountContributionsPerVault",
      "outputs": [
        {
          "internalType": "uint256",
          "name": "",
          "type": "uint256"
        }
      ],
      "stateMutability": "view",
      "type": "function"
    },
    {
      "inputs": [
        {
          "internalType": "address",
          "name": "",
          "type": "address"
        }
      ],
      "name": "addressToToken",
      "outputs": [
        {
          "internalType": "address",
          "name": "_address",
          "type": "address"
        },
        {
          "internalType": "uint256",
          "name": "_quantity",
          "type": "uint256"
        },
        {
          "internalType": "uint32",
          "name": "_chainId",
          "type": "uint32"
        },
        {
          "internalType": "address",
          "name": "_contributor",
          "type": "address"
        },
        {
          "internalType": "address",
          "name": "_aggregator",
          "type": "address"
        }
      ],
      "stateMutability": "view",
      "type": "function"
    },
    {
      "inputs": [
        {
          "internalType": "uint256",
          "name": "_vaultId",
          "type": "uint256"
        }
      ],
      "name": "burn",
      "outputs": [],
      "stateMutability": "nonpayable",
      "type": "function"
    },
    {
      "inputs": [],
      "name": "chainId",
      "outputs": [
        {
          "internalType": "uint32",
          "name": "",
          "type": "uint32"
        }
      ],
      "stateMutability": "view",
      "type": "function"
    },
    {
      "inputs": [
        {
          "components": [
            {
              "internalType": "uint256",
              "name": "vaultId",
              "type": "uint256"
            },
            {
              "components": [
                {
                  "internalType": "address",
                  "name": "_address",
                  "type": "address"
                },
                {
                  "internalType": "uint256",
                  "name": "_quantity",
                  "type": "uint256"
                },
                {
                  "internalType": "uint32",
                  "name": "_chainId",
                  "type": "uint32"
                },
                {
                  "internalType": "address",
                  "name": "_contributor",
                  "type": "address"
                },
                {
                  "internalType": "address",
                  "name": "_aggregator",
                  "type": "address"
                }
              ],
              "internalType": "struct TokenQuantity[]",
              "name": "tokens",
              "type": "tuple[]"
            }
          ],
          "internalType": "struct DepositInfo",
          "name": "_depositInfo",
          "type": "tuple"
        }
      ],
      "name": "deposit",
      "outputs": [],
      "stateMutability": "payable",
      "type": "function"
    },
    {
      "inputs": [],
      "name": "etfToken",
      "outputs": [
        {
          "internalType": "address",
          "name": "",
          "type": "address"
        }
      ],
      "stateMutability": "view",
      "type": "function"
    },
    {
      "inputs": [],
      "name": "etfTokenPerVault",
      "outputs": [
        {
          "internalType": "uint256",
          "name": "",
          "type": "uint256"
        }
      ],
      "stateMutability": "view",
      "type": "function"
    },
    {
      "inputs": [
        {
          "components": [
            {
              "internalType": "address",
              "name": "_address",
              "type": "address"
            },
            {
              "internalType": "uint256",
              "name": "_quantity",
              "type": "uint256"
            },
            {
              "internalType": "uint32",
              "name": "_chainId",
              "type": "uint32"
            },
            {
              "internalType": "address",
              "name": "_contributor",
              "type": "address"
            },
            {
              "internalType": "address",
              "name": "_aggregator",
              "type": "address"
            }
          ],
          "internalType": "struct TokenQuantity",
          "name": "_tokenQuantity",
          "type": "tuple"
        }
      ],
      "name": "getIndexForDepositInfo",
      "outputs": [
        {
          "internalType": "uint256",
          "name": "",
          "type": "uint256"
        }
      ],
      "stateMutability": "view",
      "type": "function"
    },
    {
      "inputs": [],
      "name": "getRequiredTokens",
      "outputs": [
        {
          "components": [
            {
              "internalType": "address",
              "name": "_address",
              "type": "address"
            },
            {
              "internalType": "uint256",
              "name": "_quantity",
              "type": "uint256"
            },
            {
              "internalType": "uint32",
              "name": "_chainId",
              "type": "uint32"
            },
            {
              "internalType": "address",
              "name": "_contributor",
              "type": "address"
            },
            {
              "internalType": "address",
              "name": "_aggregator",
              "type": "address"
            }
          ],
          "internalType": "struct TokenQuantity[]",
          "name": "",
          "type": "tuple[]"
        }
      ],
      "stateMutability": "view",
      "type": "function"
    },
    {
      "inputs": [
        {
          "internalType": "uint256",
          "name": "_vaultId",
          "type": "uint256"
        }
      ],
      "name": "getVault",
      "outputs": [
        {
          "components": [
            {
              "components": [
                {
                  "internalType": "address",
                  "name": "_address",
                  "type": "address"
                },
                {
                  "internalType": "uint256",
                  "name": "_quantity",
                  "type": "uint256"
                },
                {
                  "internalType": "uint32",
                  "name": "_chainId",
                  "type": "uint32"
                },
                {
                  "internalType": "address",
                  "name": "_contributor",
                  "type": "address"
                },
                {
                  "internalType": "address",
                  "name": "_aggregator",
                  "type": "address"
                }
              ],
              "internalType": "struct TokenQuantity[]",
              "name": "_tokens",
              "type": "tuple[]"
            },
            {
              "internalType": "enum VaultState",
              "name": "state",
              "type": "uint8"
            }
          ],
          "internalType": "struct Vault",
          "name": "",
          "type": "tuple"
        }
      ],
      "stateMutability": "view",
      "type": "function"
    },
    {
      "inputs": [],
      "name": "getVaultStates",
      "outputs": [
        {
          "internalType": "enum VaultState[]",
          "name": "",
          "type": "uint8[]"
        }
      ],
      "stateMutability": "view",
      "type": "function"
    },
    {
      "inputs": [
        {
          "internalType": "uint32",
          "name": "_origin",
          "type": "uint32"
        },
        {
          "internalType": "bytes32",
          "name": "_sender",
          "type": "bytes32"
        },
        {
          "internalType": "bytes",
          "name": "_message",
          "type": "bytes"
        }
      ],
      "name": "handle",
      "outputs": [],
      "stateMutability": "payable",
      "type": "function"
    },
    {
      "inputs": [],
      "name": "isMainChain",
      "outputs": [
        {
          "internalType": "bool",
          "name": "",
          "type": "bool"
        }
      ],
      "stateMutability": "view",
      "type": "function"
    },
    {
      "inputs": [],
      "name": "latestCommitment",
      "outputs": [
        {
          "internalType": "bytes32",
          "name": "",
          "type": "bytes32"
        }
      ],
      "stateMutability": "view",
      "type": "function"
    },
    {
      "inputs": [],
      "name": "mainChainId",
      "outputs": [
        {
          "internalType": "uint32",
          "name": "",
          "type": "uint32"
        }
      ],
      "stateMutability": "view",
      "type": "function"
    },
    {
      "inputs": [],
      "name": "mainChainLock",
      "outputs": [
        {
          "internalType": "address",
          "name": "",
          "type": "address"
        }
      ],
      "stateMutability": "view",
      "type": "function"
    },
    {
      "inputs": [
        {
          "internalType": "uint256",
          "name": "",
          "type": "uint256"
        }
      ],
      "name": "receivedMessages",
      "outputs": [
        {
          "internalType": "uint32",
          "name": "",
          "type": "uint32"
        }
      ],
      "stateMutability": "view",
      "type": "function"
    },
    {
      "inputs": [
        {
          "internalType": "uint256",
          "name": "",
          "type": "uint256"
        }
      ],
      "name": "requiredTokens",
      "outputs": [
        {
          "internalType": "address",
          "name": "_address",
          "type": "address"
        },
        {
          "internalType": "uint256",
          "name": "_quantity",
          "type": "uint256"
        },
        {
          "internalType": "uint32",
          "name": "_chainId",
          "type": "uint32"
        },
        {
          "internalType": "address",
          "name": "_contributor",
          "type": "address"
        },
        {
          "internalType": "address",
          "name": "_aggregator",
          "type": "address"
        }
      ],
      "stateMutability": "view",
      "type": "function"
    },
    {
      "inputs": [
        {
          "internalType": "address",
          "name": "_sideChainLock",
          "type": "address"
        },
        {
          "internalType": "uint32",
          "name": "_sideChainId",
          "type": "uint32"
        },
        {
          "internalType": "address",
          "name": "_outbox",
          "type": "address"
        },
        {
          "internalType": "address",
          "name": "_securityModule",
          "type": "address"
        }
      ],
      "name": "setMainChainParams",
      "outputs": [],
      "stateMutability": "nonpayable",
      "type": "function"
    },
    {
      "inputs": [
        {
          "internalType": "address",
          "name": "_mainChainLock",
          "type": "address"
        },
        {
          "internalType": "address",
          "name": "_outbox",
          "type": "address"
        },
        {
          "internalType": "address",
          "name": "_securityModule",
          "type": "address"
        }
      ],
      "name": "setSideChainParams",
      "outputs": [],
      "stateMutability": "nonpayable",
      "type": "function"
    },
    {
      "inputs": [
        {
          "internalType": "uint256",
          "name": "_vaultId",
          "type": "uint256"
        },
        {
          "internalType": "enum VaultState",
          "name": "_state",
          "type": "uint8"
        }
      ],
      "name": "setVaultState",
      "outputs": [],
      "stateMutability": "nonpayable",
      "type": "function"
    },
    {
      "inputs": [],
      "name": "sideChainId",
      "outputs": [
        {
          "internalType": "uint32",
          "name": "",
          "type": "uint32"
        }
      ],
      "stateMutability": "view",
      "type": "function"
    },
    {
      "inputs": [],
      "name": "sideChainLock",
      "outputs": [
        {
          "internalType": "address",
          "name": "",
          "type": "address"
        }
      ],
      "stateMutability": "view",
      "type": "function"
    },
    {
      "inputs": [],
      "name": "updateCommitment",
      "outputs": [],
      "stateMutability": "nonpayable",
      "type": "function"
    },
    {
      "inputs": [
        {
          "internalType": "uint256",
          "name": "",
          "type": "uint256"
        }
      ],
      "name": "vaults",
      "outputs": [
        {
          "internalType": "enum VaultState",
          "name": "state",
          "type": "uint8"
        }
      ],
      "stateMutability": "view",
      "type": "function"
    }
  ],
  "transactionHash": "0x9397e43f41180858f5a5acbd8576b232eedf1d09cf6e849dca0979d57fd9f3f2",
  "args": [
    10200,
    10200,
    [
      {
        "_address": "0x13F5e337ea0fe2ff0470a6e29E4D10D6B0Da2c58",
        "_quantity": "100000000000000000000",
        "_chainId": 10200,
        "_contributor": "0x2a1F5eB3e84e58e6F1e565306298B9dE1273f203",
        "_aggregator": "0xd1977cd0A0641E1Dc235317CE64edBFd36Ec7fb6"
      },
      {
        "_address": "0x9e5a623144cA45d8d340c3287CB38A0f6D3CBb35",
        "_quantity": "200000000000000000000",
        "_chainId": 10200,
        "_contributor": "0x2a1F5eB3e84e58e6F1e565306298B9dE1273f203",
        "_aggregator": "0xC46eb6Da421904f0f99a9DDB7221699BA850B706"
      },
      {
        "_address": "0x5e3eFC5b603d0AfD11f664d8d58DA94159247f60",
        "_quantity": "100000000000000000000",
        "_chainId": 11155111,
        "_contributor": "0x2a1F5eB3e84e58e6F1e565306298B9dE1273f203",
        "_aggregator": "0x837C6E31E0E8F8b7FE4fb5Ffdaf45Db044864ABF"
      }
    ],
    "0x8e976B0eDFBF405976608B7FEa3a5b7F34f0BD17",
    "100000000000000000000"
  ],
  "numDeployments": 2,
  "solcInputHash": "43fe18fe7dd10bd26c0a3eaa65dca6aa",
  "bytecode": "0x604060808152346200036b576200226d90813803806200001f8162000386565b938439820160a09182848303126200036b576200003c84620003ac565b6020906200004c828701620003ac565b868401519095906001600160401b03908181116200036b5788019086601f830112156200036b5781519080821162000370576200008e868360051b0162000386565b978685818b868152019402850101938185116200036b578701925b848410620002db575050505050506080620000c760608801620003be565b960151600480546001600160401b03191692841b67ffffffff00000000169290921763ffffffff909616959095178155600980546001600160a01b0319166001600160a01b03978816179055600a9490945560005b8351811015620002cc57620001328185620003d3565b516002805468010000000000000000811015620002b75760018101808355811015620002a257600082815285902083519190921b90910180546001600160a01b03199081166001600160a01b039384161782556020808501516001840155604085015160028401805460608801516001600160c01b031990911663ffffffff93909316929092179190921b600160201b600160c01b03161790556080909301516003909101805490931691161790556200027a620001f18286620003d3565b5187620001ff8488620003d3565b515116600052600384528460002060018060a01b0360806003828551169360018060a01b03199485825416178155602086015160018201556002810163ffffffff604088015116815490640100000000600160c01b0360608a015160201b169160018060c01b03191617179055019301511690825416179055565b60001981146200028d576001016200011c565b601185634e487b7160e01b6000525260246000fd5b603288634e487b7160e01b6000525260246000fd5b604188634e487b7160e01b6000525260246000fd5b8251611e6e9081620003ff8239f35b85848303126200036b578851908682019082821085831117620003565787928a928c526200030987620003be565b81528287015183820152620003208c8801620003ac565b8c820152606062000333818901620003be565b90820152608062000346818901620003be565b90820152815201930192620000a9565b60246000634e487b7160e01b81526041600452fd5b600080fd5b634e487b7160e01b600052604160045260246000fd5b6040519190601f01601f191682016001600160401b038111838210176200037057604052565b519063ffffffff821682036200036b57565b51906001600160a01b03821682036200036b57565b8051821015620003e85760209160051b010190565b634e487b7160e01b600052603260045260246000fdfe608060408181526004918236101561001657600080fd5b600092833560e01c918263014372eb14610b2d575081630badce4114610af15781630f45ad4314610acb578163250cab3914610aac578163309bfe4a14610a4357816342966c6814610a2657816356d5d475146109c45781636059f096146108ef5781636268acb2146108d257816369abaac91461083e5781636b8cf65e146108165781637fcee997146107fa57816384710c91146107735781638c64ea4a1461073e5781639403b63414610620578163956a45a61461059a5781639a8a0592146105735781639a9176c21461054b5781639c58a5a414610523578163b834f6fb146104ee578163b98ee2b6146103f7578163cca3ce2b1461031e578163d030366c146102bd578163e1a2d42414610162575063eb6a9aa01461013857600080fd5b3461015e578160031936011261015e576020906001600160a01b03600954169051908152f35b5080fd5b9050346102b95760803660031901126102b95761017d610b86565b916024359263ffffffff841684036102b557610197610b9c565b92606435906001600160a01b03938483168093036102b1576101c660045463ffffffff808260201c1691161490565b156102485750509177ffffffff0000000000000000000000000000000000000000917fffffffffffffffff000000000000000000000000000000000000000000000000938273ffffffffffffffffffffffffffffffffffffffff199616866007541617600755600154956008541617600855169360a01b169116171760015580f35b906020608492519162461bcd60e51b8352820152603160248201527f5369646520436861696e206c6f636b20616464726573732063616e206f6e6c7960448201527f20626520736574206d61696e636861696e0000000000000000000000000000006064820152fd5b8780fd5b8480fd5b8280fd5b9050346102b95760203660031901126102b95735906005548210156102b95763ffffffff9060056020945260e08360031c7f036b6384b5eca791c62761152d0c79bb0604c104a5fb6f4eb0703f3154bb3db0015491519360051b161c168152f35b919050346102b957826003193601126102b957829060029283549061034282610c6d565b9461034f84519687610c4b565b828652808552602094907f405787fa12a823e0f2b7631cc41b3ba8828b3321ca811111fa75cd3aa3bb5ace90868089015b86851061039d578751828152806103998185018d610cf0565b0390f35b600191869189516103ad81610c1b565b6001600160a01b03808854168252858801548483015280878901548d63ffffffff821690850152851c16606083015260038801541660808201528152019301930192918790610380565b9050346102b95760603660031901126102b957610412610b86565b9161041b610b6b565b91610424610b9c565b9161043c60045463ffffffff808260201c1691161490565b6104855750506001600160a01b0380928173ffffffffffffffffffffffffffffffffffffffff199516856006541617600655168360075416176007551690600854161760085580f35b906020608492519162461bcd60e51b8352820152603360248201527f4d61696e20636861696e206c6f636b20616464726573732063616e6e6f74206260448201527f6520736574206f6e206d61696e20636861696e000000000000000000000000006064820152fd5b50503461015e578160031936011261015e5760209061051a60045463ffffffff808260201c1691161490565b90519015158152f35b50503461015e578160031936011261015e576020906001600160a01b03600154169051908152f35b50503461015e578160031936011261015e5760209063ffffffff60015460a01c169051908152f35b8284346105975780600319360112610597575063ffffffff60209254169051908152f35b80fd5b9050346102b95760203660031901126102b957359160025483101561059757506103996105cb63ffffffff93610d62565b5080546001820154600283015460039093015494516001600160a01b03928316815260208082019290925295831663ffffffff1660408701529190911c811660608501529091166080830152819060a0820190565b905082346105975760208060031936011261015e578380519261064284610be9565b8083606095868152015284358152600d83528181209082519561066487610be9565b82549061067082610c6d565b9261067d86519485610c4b565b8284528481528681208785015b8483106106d65750505050509260ff60016106cb93610399968952015416946106b68288019687610e6d565b83519788978389525192880152860190610cf0565b925190840190610bc6565b9288600192939489839798999a51906106ee82610c1b565b8d6001600160a01b038092818a54168552888a01548786015260028a01549063ffffffff821690860152861c169083015260038701541660808201528152019201920190918a969594939261068a565b9050346102b95760203660031901126102b95760ff60018360209561077194358152600d87522001541691518092610bc6565bf35b8284346105975760a03660031901126105975781519261079284610c1b565b35906001600160a01b0391828116810361015e578452602435602085015260443563ffffffff8116810361015e5783850152606435828116810361015e57606085015260843591821682036105975750826107f39160806020950152610eec565b9051908152f35b8334610597578060031936011261059757610813610dce565b80f35b50503461015e578160031936011261015e576020906001600160a01b03600654169051908152f35b50503461015e57602036600319011261015e57906103998263ffffffff936001600160a01b03938461086e610b86565b16815260036020522083815416600182015485600360028501549401541693519687968460201c1693169186939060809396959163ffffffff60a08701986001600160a01b0395868095168952602089015216604087015216606085015216910152565b50503461015e578160031936011261015e57602091549051908152f35b90506020916003199280843601126102b55782359367ffffffffffffffff908186116109c057839086360301126109bc5782519461092c86610be9565b80850135865260248101359182116109c05701366023820112156109bc57838101359061096461095b83610c6d565b94519485610c4b565b818452828401602460a0809402830101913683116109b857602401905b8282106109a057886108138963ffffffff8a8a8a840152541690610f72565b8484916109ad3685610c85565b815201910190610981565b8880fd5b8580fd5b8680fd5b8390606036600319011261015e57803563ffffffff81160361015e576044359067ffffffffffffffff90818311610a225736602384011215610a22578201359081116102b95736602482840101116102b95760246108139201611996565b8380fd5b83903461015e57602036600319011261015e576108139035611a92565b50503461015e578160031936011261015e57610a5d610e79565b815192839260208080860192818752855180945286019401925b828110610a8657505050500390f35b9193839550908082610a9c600194839751610bc6565b0195019101918594939192610a77565b50503461015e578160031936011261015e57602090600a549051908152f35b8284346105975780600319360112610597575063ffffffff60209254915191831c168152f35b9050346102b957816003193601126102b9576024359181831015610a2257600191358452600d6020528320019060ff8019835416911617905580f35b92915034610a225781600319360112610a225792602093610b4c610b6b565b90358252600c85526001600160a01b0383832091168252845220548152f35b602435906001600160a01b0382168203610b8157565b600080fd5b600435906001600160a01b0382168203610b8157565b604435906001600160a01b0382168203610b8157565b35906001600160a01b0382168203610b8157565b906004821015610bd35752565b634e487b7160e01b600052602160045260246000fd5b6040810190811067ffffffffffffffff821117610c0557604052565b634e487b7160e01b600052604160045260246000fd5b60a0810190811067ffffffffffffffff821117610c0557604052565b67ffffffffffffffff8111610c0557604052565b90601f8019910116810190811067ffffffffffffffff821117610c0557604052565b67ffffffffffffffff8111610c055760051b60200190565b91908260a0910312610b8157604051610c9d81610c1b565b8092610ca881610bb2565b82526020810135602083015260408101359063ffffffff82168203610b81576080610ceb9181936040860152610ce060608201610bb2565b606086015201610bb2565b910152565b90815180825260208080930193019160005b828110610d10575050505090565b835180516001600160a01b039081168752818401518785015260408083015163ffffffff1690880152606080830151821690880152608091820151169086015260a09094019392810192600101610d02565b600254811015610d9c57600260005260021b7f405787fa12a823e0f2b7631cc41b3ba8828b3321ca811111fa75cd3aa3bb5ace0190600090565b634e487b7160e01b600052603260045260246000fd5b8054821015610d9c5760005260206000209060021b0190600090565b610dd6610e79565b60405160208181810193848382519192019360005b828110610e1057505050610e08925003601f198101835282610c4b565b519020600055565b91935091828082610e246001948951610bc6565b0195019101918593919492610deb565b6000198114610e435760010190565b634e487b7160e01b600052601160045260246000fd5b8051821015610d9c5760209160051b010190565b6004821015610bd35752565b6040805190610b60820182811067ffffffffffffffff821117610c05578152605a82526020610b403682850137600090815b8451811015610ee55780610ee0918452600d8352610edb60ff6001878720015416610ed68389610e59565b610e6d565b610e34565b610eab565b5050505090565b6002549060005b828110610f0257505050600090565b610f0b81610d62565b506001600160a01b03809154169083511614610f2f57610f2a90610e34565b610ef3565b91505090565b91908201809211610e4357565b90816020910312610b8157518015158103610b815790565b8054821015610d9c5760005260206000200190600090565b9081519060208301519382600052600d60205260ff600160406000200154166004811015610bd35760011480156118f1575b156118ad5782600052600d60205260ff600160406000200154166004811015610bd3571561170a575b60005b85518110156113945761100d6020610fe88389610e59565b51015185600052600d6020526001611004846040600020610db2565b50015490610f35565b6001600160a01b0361101f8389610e59565b51511660005260036020526001604060002001541061132a5761104b6110458288610e59565b51610eec565b63ffffffff604061105c848a610e59565b5101511663ffffffff85161461125f575b6110a260016110986020611081868c610e59565b5101519388600052600d6020526040600020610db2565b5001918254610f35565b90557f80590f9d7015c327349ea64242fc29353801fcad956721a0e45f725338db06f460a06001600160a01b036110d9848a610e59565b51511660206110e8858b610e59565b510151896001600160a01b0360606111158863ffffffff604061110b8388610e59565b5101511694610e59565b5101511691604051938a85526020850152604084015260608301526080820152a161114d60045463ffffffff808260201c1691161490565b611160575b61115b90610e34565b610fd0565b83600052600c60205260406000206001600160a01b036060611182848a610e59565b51015116600052602052604060002054156111f0575b8060206111a861115b9389610e59565b51015185600052600c60205260406000206001600160a01b0360606111cd858c610e59565b510151166000526020526111e76040600020918254610f35565b90559050611152565b83600052600b6020526040600020906001600160a01b036060611213838a610e59565b5101511682549268010000000000000000841015610c05578361123e91600161115b96018155610f5a565b6001600160a01b03829392549160031b92831b921b19161790559050611198565b6001600160a01b036112718389610e59565b51511660206001600160a01b03606061128a868c610e59565b5101511660648261129b878d610e59565b51015191600060405195869485937f23b872dd000000000000000000000000000000000000000000000000000000008552600485015230602485015260448401525af1801561131e576112ef575b5061106d565b6113109060203d602011611317575b6113088183610c4b565b810190610f42565b50386112e9565b503d6112fe565b6040513d6000823e3d90fd5b608460405162461bcd60e51b815260206004820152602a60248201527f546f6b656e207175616e7469747920657863656564732074686520726571756960448201527f72656420616d6f756e74000000000000000000000000000000000000000000006064820152fd5b50935050906000600254905b8181106116c757505081600052600d6020526001604060002001600260ff198254161790556113cd610dce565b6113e460045463ffffffff808260201c1691161490565b1561158a5750600091825b82600052600b80602052604060002054851015611458576114529161144c91600c6020526040600020906020526001600160a01b03611432886040600020610f5a565b90549060031b1c1660005260205260406000205490610f35565b93610e34565b926113ef565b50925060005b82600052600b908160205260406000205481101561158357600c602052604060002082602052611492826040600020610f5a565b916001600160a01b03809254600394851b1c1660005260205260406000205491600a5492838102938185041490151715610e4357871561156d57816009541694876000526020526114e7846040600020610f5a565b9054911b1c16833b15610b81576040517f40c10f190000000000000000000000000000000000000000000000000000000081526001600160a01b03919091166004820152908690046024820152916000908390604490829084905af191821561131e576115599261155e575b50610e34565b61145e565b61156790610c37565b38611553565b634e487b7160e01b600052601260045260246000fd5b5050915050565b90506001600160a01b03906115f3826006541692600754169163ffffffff60045460201c1690604051906020826115c383838301611916565b03926115d7601f1994858101835282610c4b565b6040518096819263138857a360e31b83528a886004850161193a565b0381885afa93841561131e57600094611688575b5092602094926116336116509793611627966040519788918a8301611916565b03908101875286610c4b565b6040519687958694859363fa31de0160e01b85526004850161193a565b03925af1801561131e576116615750565b602090813d8311611681575b6116778183610c4b565b81010312610b8157565b503d61166d565b9492959193506020853d6020116116bf575b816116a760209383610c4b565b81010312610b81579351909491939092906020611607565b3d915061169a565b83600052600d60205260016116e0826040600020610db2565b50015460016116ee83610d62565b50015411611704576116ff90610e34565b6113a0565b50505050565b9391929060005b60025481101561187f5784600052600d6020526040600020906001600160a01b0361173b82610d62565b5054169163ffffffff600261174f84610d62565b500154166001600160a01b03600361176685610d62565b50015416906040519461177886610c1b565b8552600060208601526040850152600060608501526080840152805468010000000000000000811015610c05576117b491600182018155610db2565b92909261186957611864926001600160a01b0360806003828551169373ffffffffffffffffffffffffffffffffffffffff199485825416178155602086015160018201556002810163ffffffff6040880151168154907fffffffffffffffff00000000000000000000000000000000000000000000000077ffffffffffffffffffffffffffffffffffffffff0000000060608b015160201b16921617179055019301511690825416179055610e34565b611711565b634e487b7160e01b600052600060045260246000fd5b509092919382600052600d6020526001604060002001600160ff198254161790556118a8610dce565b610fcd565b606460405162461bcd60e51b815260206004820152601a60248201527f5661756c74206973206e6f74206f70656e206f7220656d7074790000000000006044820152fd5b5082600052600d60205260ff600160406000200154166004811015610bd35715610fa4565b60606020611937938184528051828501520151916040808201520190610cf0565b90565b9193929063ffffffff168252602093848301526060604083015280519081606084015260005b82811061198257505060809293506000838284010152601f8019910116010190565b818101860151848201608001528501611960565b91906119af60045463ffffffff808260201c1691161490565b15611a7e578201916020928382820312610b8157813567ffffffffffffffff92838211610b81570191604083830312610b8157604051926119ef84610be9565b8035845285810135918211610b8157019381601f86011215610b8157843594611a1786610c6d565b92611a256040519485610c4b565b868452828401908360a080990284010192818411610b81578401915b838310611a665750505050611a6493945082015263ffffffff6004541690610f72565b565b848991611a738486610c85565b815201920191611a41565b82602091819394010312610b8157611a6490355b600090808252600d602092818452600160409260ff828585200154169160049182841015611e25576002809403611de357611ada60045463ffffffff808260201c1691161490565b15611da1576001600160a01b03938460095416600a54813b156102b15788517f9dc29fac00000000000000000000000000000000000000000000000000000000815233878201908152602081019290925291889183919082908490829060400103925af18015611d9757611d84575b50829086825b611c71575b50505086855287528484208101805460ff19166003179055611b74610dce565b5490611bba63ffffffff84841694600754169360a01c16918887518982820152818152611ba081610be9565b88518094819263138857a360e31b8352898887850161193a565b0381875afa918215611c6757908995949392918792611c36575b50875198868a0152858952611be889610be9565b611c058851998a968795869463fa31de0160e01b8652850161193a565b03925af1918215611c2c575050611c1a575050565b813d8311611681576116778183610c4b565b51903d90823e3d90fd5b8681979293503d8311611c60575b611c4e8183610c4b565b81010312610b81578894519038611bd4565b503d611c44565b87513d88823e3d90fd5b898852838b52878b8b8b8084208054861015611d7a57611c92868892610db2565b5001548a5463ffffffff908116911614611cba575b50505050611cb490610e34565b82611b4f565b95611cea858596979884611d309697528a87528d611cda83838b20610db2565b5054169488528a87528720610db2565b5001548c517fa9059cbb000000000000000000000000000000000000000000000000000000008152338b8201908152602081019290925294859384928391604090910190565b03925af18015611d705791611cb491869493611d53575b509050878b8b8b611ca7565b611d69908d803d10611317576113088183610c4b565b5038611d47565b89513d8a823e3d90fd5b5050505050611b54565b95611d90849297610c37565b9590611b49565b88513d89823e3d90fd5b6064838988519162461bcd60e51b8352820152601860248201527f4f6e6c79206d61696e20636861696e2063616e206275726e00000000000000006044820152fd5b6064838988519162461bcd60e51b8352820152601360248201527f5661756c74206973206e6f74206d696e746564000000000000000000000000006044820152fd5b602485602185634e487b7160e01b835252fdfea26469706673582212201532db53023d2fa3dcdfabc0f3d8b13942738c3e0a95a5a9b6d4351eee25854d64736f6c63430008140033",
  "devdoc": {
    "kind": "dev",
    "methods": {},
    "version": 1
  },
  "userdoc": {
    "kind": "user",
    "methods": {},
    "version": 1
  },
  "storageLayout": {
    "storage": [
      {
        "astId": 1191,
        "contract": "contracts/ETFIssuingChain.sol:ETFIssuingChain",
        "label": "latestCommitment",
        "offset": 0,
        "slot": "0",
        "type": "t_bytes32"
      },
      {
        "astId": 1193,
        "contract": "contracts/ETFIssuingChain.sol:ETFIssuingChain",
        "label": "sideChainLock",
        "offset": 0,
        "slot": "1",
        "type": "t_address"
      },
      {
        "astId": 1195,
        "contract": "contracts/ETFIssuingChain.sol:ETFIssuingChain",
        "label": "sideChainId",
        "offset": 20,
        "slot": "1",
        "type": "t_uint32"
      },
      {
        "astId": 1199,
        "contract": "contracts/ETFIssuingChain.sol:ETFIssuingChain",
        "label": "requiredTokens",
        "offset": 0,
        "slot": "2",
        "type": "t_array(t_struct(TokenQuantity)1160_storage)dyn_storage"
      },
      {
        "astId": 1204,
        "contract": "contracts/ETFIssuingChain.sol:ETFIssuingChain",
        "label": "addressToToken",
        "offset": 0,
        "slot": "3",
        "type": "t_mapping(t_address,t_struct(TokenQuantity)1160_storage)"
      },
      {
        "astId": 1206,
        "contract": "contracts/ETFIssuingChain.sol:ETFIssuingChain",
        "label": "chainId",
        "offset": 0,
        "slot": "4",
        "type": "t_uint32"
      },
      {
        "astId": 1208,
        "contract": "contracts/ETFIssuingChain.sol:ETFIssuingChain",
        "label": "mainChainId",
        "offset": 4,
        "slot": "4",
        "type": "t_uint32"
      },
      {
        "astId": 1211,
        "contract": "contracts/ETFIssuingChain.sol:ETFIssuingChain",
        "label": "receivedMessages",
        "offset": 0,
        "slot": "5",
        "type": "t_array(t_uint32)dyn_storage"
      },
      {
        "astId": 1213,
        "contract": "contracts/ETFIssuingChain.sol:ETFIssuingChain",
        "label": "mainChainLock",
        "offset": 0,
        "slot": "6",
        "type": "t_address"
      },
      {
        "astId": 1216,
        "contract": "contracts/ETFIssuingChain.sol:ETFIssuingChain",
        "label": "outbox",
        "offset": 0,
        "slot": "7",
        "type": "t_contract(IMailbox)247"
      },
      {
        "astId": 1219,
        "contract": "contracts/ETFIssuingChain.sol:ETFIssuingChain",
        "label": "securityModule",
        "offset": 0,
        "slot": "8",
        "type": "t_contract(IInterchainSecurityModule)73"
      },
      {
        "astId": 1221,
        "contract": "contracts/ETFIssuingChain.sol:ETFIssuingChain",
        "label": "etfToken",
        "offset": 0,
        "slot": "9",
        "type": "t_address"
      },
      {
        "astId": 1223,
        "contract": "contracts/ETFIssuingChain.sol:ETFIssuingChain",
        "label": "etfTokenPerVault",
        "offset": 0,
        "slot": "10",
        "type": "t_uint256"
      },
      {
        "astId": 1228,
        "contract": "contracts/ETFIssuingChain.sol:ETFIssuingChain",
        "label": "contributorsByVault",
        "offset": 0,
        "slot": "11",
        "type": "t_mapping(t_uint256,t_array(t_address)dyn_storage)"
      },
      {
        "astId": 1234,
        "contract": "contracts/ETFIssuingChain.sol:ETFIssuingChain",
        "label": "accountContributionsPerVault",
        "offset": 0,
        "slot": "12",
        "type": "t_mapping(t_uint256,t_mapping(t_address,t_uint256))"
      },
      {
        "astId": 1251,
        "contract": "contracts/ETFIssuingChain.sol:ETFIssuingChain",
        "label": "vaults",
        "offset": 0,
        "slot": "13",
        "type": "t_mapping(t_uint256,t_struct(Vault)1168_storage)"
      }
    ],
    "types": {
      "t_address": {
        "encoding": "inplace",
        "label": "address",
        "numberOfBytes": "20"
      },
      "t_array(t_address)dyn_storage": {
        "base": "t_address",
        "encoding": "dynamic_array",
        "label": "address[]",
        "numberOfBytes": "32"
      },
      "t_array(t_struct(TokenQuantity)1160_storage)dyn_storage": {
        "base": "t_struct(TokenQuantity)1160_storage",
        "encoding": "dynamic_array",
        "label": "struct TokenQuantity[]",
        "numberOfBytes": "32"
      },
      "t_array(t_uint32)dyn_storage": {
        "base": "t_uint32",
        "encoding": "dynamic_array",
        "label": "uint32[]",
        "numberOfBytes": "32"
      },
      "t_bytes32": {
        "encoding": "inplace",
        "label": "bytes32",
        "numberOfBytes": "32"
      },
      "t_contract(IInterchainSecurityModule)73": {
        "encoding": "inplace",
        "label": "contract IInterchainSecurityModule",
        "numberOfBytes": "20"
      },
      "t_contract(IMailbox)247": {
        "encoding": "inplace",
        "label": "contract IMailbox",
        "numberOfBytes": "20"
      },
      "t_enum(VaultState)1173": {
        "encoding": "inplace",
        "label": "enum VaultState",
        "numberOfBytes": "1"
      },
      "t_mapping(t_address,t_struct(TokenQuantity)1160_storage)": {
        "encoding": "mapping",
        "key": "t_address",
        "label": "mapping(address => struct TokenQuantity)",
        "numberOfBytes": "32",
        "value": "t_struct(TokenQuantity)1160_storage"
      },
      "t_mapping(t_address,t_uint256)": {
        "encoding": "mapping",
        "key": "t_address",
        "label": "mapping(address => uint256)",
        "numberOfBytes": "32",
        "value": "t_uint256"
      },
      "t_mapping(t_uint256,t_array(t_address)dyn_storage)": {
        "encoding": "mapping",
        "key": "t_uint256",
        "label": "mapping(uint256 => address[])",
        "numberOfBytes": "32",
        "value": "t_array(t_address)dyn_storage"
      },
      "t_mapping(t_uint256,t_mapping(t_address,t_uint256))": {
        "encoding": "mapping",
        "key": "t_uint256",
        "label": "mapping(uint256 => mapping(address => uint256))",
        "numberOfBytes": "32",
        "value": "t_mapping(t_address,t_uint256)"
      },
      "t_mapping(t_uint256,t_struct(Vault)1168_storage)": {
        "encoding": "mapping",
        "key": "t_uint256",
        "label": "mapping(uint256 => struct Vault)",
        "numberOfBytes": "32",
        "value": "t_struct(Vault)1168_storage"
      },
      "t_struct(TokenQuantity)1160_storage": {
        "encoding": "inplace",
        "label": "struct TokenQuantity",
        "members": [
          {
            "astId": 1151,
            "contract": "contracts/ETFIssuingChain.sol:ETFIssuingChain",
            "label": "_address",
            "offset": 0,
            "slot": "0",
            "type": "t_address"
          },
          {
            "astId": 1153,
            "contract": "contracts/ETFIssuingChain.sol:ETFIssuingChain",
            "label": "_quantity",
            "offset": 0,
            "slot": "1",
            "type": "t_uint256"
          },
          {
            "astId": 1155,
            "contract": "contracts/ETFIssuingChain.sol:ETFIssuingChain",
            "label": "_chainId",
            "offset": 0,
            "slot": "2",
            "type": "t_uint32"
          },
          {
            "astId": 1157,
            "contract": "contracts/ETFIssuingChain.sol:ETFIssuingChain",
            "label": "_contributor",
            "offset": 4,
            "slot": "2",
            "type": "t_address"
          },
          {
            "astId": 1159,
            "contract": "contracts/ETFIssuingChain.sol:ETFIssuingChain",
            "label": "_aggregator",
            "offset": 0,
            "slot": "3",
            "type": "t_address"
          }
        ],
        "numberOfBytes": "128"
      },
      "t_struct(Vault)1168_storage": {
        "encoding": "inplace",
        "label": "struct Vault",
        "members": [
          {
            "astId": 1164,
            "contract": "contracts/ETFIssuingChain.sol:ETFIssuingChain",
            "label": "_tokens",
            "offset": 0,
            "slot": "0",
            "type": "t_array(t_struct(TokenQuantity)1160_storage)dyn_storage"
          },
          {
            "astId": 1167,
            "contract": "contracts/ETFIssuingChain.sol:ETFIssuingChain",
            "label": "state",
            "offset": 0,
            "slot": "1",
            "type": "t_enum(VaultState)1173"
          }
        ],
        "numberOfBytes": "64"
      },
      "t_uint256": {
        "encoding": "inplace",
        "label": "uint256",
        "numberOfBytes": "32"
      },
      "t_uint32": {
        "encoding": "inplace",
        "label": "uint32",
        "numberOfBytes": "4"
      }
    }
  }
}