{
  "address": "0x99E3741F2cccb266fAd7680E1777eCA8E9C1c763",
  "abi": [
    {
      "inputs": [
        {
          "internalType": "uint32",
          "name": "_mainChain",
          "type": "uint32"
        },
        {
          "internalType": "uint32",
          "name": "_chainId",
          "type": "uint32"
        },
        {
          "components": [
            {
              "internalType": "address",
              "name": "_address",
              "type": "address"
            },
            {
              "internalType": "uint256",
              "name": "_quantity",
              "type": "uint256"
            },
            {
              "internalType": "uint32",
              "name": "_chainId",
              "type": "uint32"
            },
            {
              "internalType": "address",
              "name": "_contributor",
              "type": "address"
            },
            {
              "internalType": "address",
              "name": "_aggregator",
              "type": "address"
            }
          ],
          "internalType": "struct TokenQuantity[]",
          "name": "_requiredTokens",
          "type": "tuple[]"
        },
        {
          "internalType": "address",
          "name": "_hashi",
          "type": "address"
        },
        {
          "internalType": "address",
          "name": "_hyperlaneAdapter",
          "type": "address"
        },
        {
          "internalType": "address",
          "name": "_hyperlaneReporter",
          "type": "address"
        },
        {
          "internalType": "address",
          "name": "_yahoAddress",
          "type": "address"
        },
        {
          "internalType": "address",
          "name": "_etfToken",
          "type": "address"
        },
        {
          "internalType": "uint256",
          "name": "_etfTokenPerVault",
          "type": "uint256"
        }
      ],
      "stateMutability": "nonpayable",
      "type": "constructor"
    },
    {
      "anonymous": false,
      "inputs": [
        {
          "indexed": false,
          "internalType": "uint256",
          "name": "_vaultId",
          "type": "uint256"
        },
        {
          "indexed": false,
          "internalType": "address",
          "name": "_address",
          "type": "address"
        },
        {
          "indexed": false,
          "internalType": "uint256",
          "name": "_quantity",
          "type": "uint256"
        },
        {
          "indexed": false,
          "internalType": "uint32",
          "name": "_chainId",
          "type": "uint32"
        },
        {
          "indexed": false,
          "internalType": "address",
          "name": "_contributor",
          "type": "address"
        }
      ],
      "name": "Deposit",
      "type": "event"
    },
    {
      "inputs": [
        {
          "internalType": "uint256",
          "name": "",
          "type": "uint256"
        },
        {
          "internalType": "address",
          "name": "",
          "type": "address"
        }
      ],
      "name": "accountContributionsPerVault",
      "outputs": [
        {
          "internalType": "uint256",
          "name": "",
          "type": "uint256"
        }
      ],
      "stateMutability": "view",
      "type": "function"
    },
    {
      "inputs": [
        {
          "internalType": "address",
          "name": "",
          "type": "address"
        }
      ],
      "name": "addressToToken",
      "outputs": [
        {
          "internalType": "address",
          "name": "_address",
          "type": "address"
        },
        {
          "internalType": "uint256",
          "name": "_quantity",
          "type": "uint256"
        },
        {
          "internalType": "uint32",
          "name": "_chainId",
          "type": "uint32"
        },
        {
          "internalType": "address",
          "name": "_contributor",
          "type": "address"
        },
        {
          "internalType": "address",
          "name": "_aggregator",
          "type": "address"
        }
      ],
      "stateMutability": "view",
      "type": "function"
    },
    {
      "inputs": [
        {
          "internalType": "uint256",
          "name": "_vaultId",
          "type": "uint256"
        },
        {
          "components": [
            {
              "internalType": "uint256",
              "name": "blockNumber",
              "type": "uint256"
            },
            {
              "internalType": "uint256",
              "name": "nonce",
              "type": "uint256"
            },
            {
              "internalType": "bytes",
              "name": "blockHeader",
              "type": "bytes"
            },
            {
              "internalType": "bytes32",
              "name": "storageRoot",
              "type": "bytes32"
            },
            {
              "internalType": "bytes",
              "name": "accountProof",
              "type": "bytes"
            },
            {
              "internalType": "bytes",
              "name": "storageProof",
              "type": "bytes"
            }
          ],
          "internalType": "struct Proof",
          "name": "proof",
          "type": "tuple"
        }
      ],
      "name": "burn",
      "outputs": [],
      "stateMutability": "nonpayable",
      "type": "function"
    },
    {
      "inputs": [],
      "name": "chainId",
      "outputs": [
        {
          "internalType": "uint32",
          "name": "",
          "type": "uint32"
        }
      ],
      "stateMutability": "view",
      "type": "function"
    },
    {
      "inputs": [
        {
          "components": [
            {
              "internalType": "uint256",
              "name": "vaultId",
              "type": "uint256"
            },
            {
              "components": [
                {
                  "internalType": "address",
                  "name": "_address",
                  "type": "address"
                },
                {
                  "internalType": "uint256",
                  "name": "_quantity",
                  "type": "uint256"
                },
                {
                  "internalType": "uint32",
                  "name": "_chainId",
                  "type": "uint32"
                },
                {
                  "internalType": "address",
                  "name": "_contributor",
                  "type": "address"
                },
                {
                  "internalType": "address",
                  "name": "_aggregator",
                  "type": "address"
                }
              ],
              "internalType": "struct TokenQuantity[]",
              "name": "tokens",
              "type": "tuple[]"
            }
          ],
          "internalType": "struct DepositInfo",
          "name": "_depositInfo",
          "type": "tuple"
        }
      ],
      "name": "deposit",
      "outputs": [],
      "stateMutability": "payable",
      "type": "function"
    },
    {
      "inputs": [
        {
          "internalType": "contract IReporter[]",
          "name": "reporters",
          "type": "address[]"
        },
        {
          "internalType": "contract IAdapter[]",
          "name": "adapters",
          "type": "address[]"
        }
      ],
      "name": "dispatchCommitment",
      "outputs": [],
      "stateMutability": "nonpayable",
      "type": "function"
    },
    {
      "inputs": [],
      "name": "etfToken",
      "outputs": [
        {
          "internalType": "address",
          "name": "",
          "type": "address"
        }
      ],
      "stateMutability": "view",
      "type": "function"
    },
    {
      "inputs": [],
      "name": "etfTokenPerVault",
      "outputs": [
        {
          "internalType": "uint256",
          "name": "",
          "type": "uint256"
        }
      ],
      "stateMutability": "view",
      "type": "function"
    },
    {
      "inputs": [
        {
          "components": [
            {
              "internalType": "address",
              "name": "_address",
              "type": "address"
            },
            {
              "internalType": "uint256",
              "name": "_quantity",
              "type": "uint256"
            },
            {
              "internalType": "uint32",
              "name": "_chainId",
              "type": "uint32"
            },
            {
              "internalType": "address",
              "name": "_contributor",
              "type": "address"
            },
            {
              "internalType": "address",
              "name": "_aggregator",
              "type": "address"
            }
          ],
          "internalType": "struct TokenQuantity",
          "name": "_tokenQuantity",
          "type": "tuple"
        }
      ],
      "name": "getIndexForDepositInfo",
      "outputs": [
        {
          "internalType": "uint256",
          "name": "",
          "type": "uint256"
        }
      ],
      "stateMutability": "view",
      "type": "function"
    },
    {
      "inputs": [],
      "name": "getRequiredTokens",
      "outputs": [
        {
          "components": [
            {
              "internalType": "address",
              "name": "_address",
              "type": "address"
            },
            {
              "internalType": "uint256",
              "name": "_quantity",
              "type": "uint256"
            },
            {
              "internalType": "uint32",
              "name": "_chainId",
              "type": "uint32"
            },
            {
              "internalType": "address",
              "name": "_contributor",
              "type": "address"
            },
            {
              "internalType": "address",
              "name": "_aggregator",
              "type": "address"
            }
          ],
          "internalType": "struct TokenQuantity[]",
          "name": "",
          "type": "tuple[]"
        }
      ],
      "stateMutability": "view",
      "type": "function"
    },
    {
      "inputs": [
        {
          "internalType": "uint256",
          "name": "_vaultId",
          "type": "uint256"
        }
      ],
      "name": "getVault",
      "outputs": [
        {
          "components": [
            {
              "components": [
                {
                  "internalType": "address",
                  "name": "_address",
                  "type": "address"
                },
                {
                  "internalType": "uint256",
                  "name": "_quantity",
                  "type": "uint256"
                },
                {
                  "internalType": "uint32",
                  "name": "_chainId",
                  "type": "uint32"
                },
                {
                  "internalType": "address",
                  "name": "_contributor",
                  "type": "address"
                },
                {
                  "internalType": "address",
                  "name": "_aggregator",
                  "type": "address"
                }
              ],
              "internalType": "struct TokenQuantity[]",
              "name": "_tokens",
              "type": "tuple[]"
            },
            {
              "internalType": "enum VaultState",
              "name": "state",
              "type": "uint8"
            }
          ],
          "internalType": "struct Vault",
          "name": "",
          "type": "tuple"
        }
      ],
      "stateMutability": "view",
      "type": "function"
    },
    {
      "inputs": [],
      "name": "getVaultStates",
      "outputs": [
        {
          "internalType": "enum VaultState[]",
          "name": "",
          "type": "uint8[]"
        }
      ],
      "stateMutability": "view",
      "type": "function"
    },
    {
      "inputs": [
        {
          "internalType": "uint32",
          "name": "_origin",
          "type": "uint32"
        },
        {
          "internalType": "bytes32",
          "name": "_sender",
          "type": "bytes32"
        },
        {
          "internalType": "bytes",
          "name": "_message",
          "type": "bytes"
        }
      ],
      "name": "handle",
      "outputs": [],
      "stateMutability": "payable",
      "type": "function"
    },
    {
      "inputs": [],
      "name": "isMainChain",
      "outputs": [
        {
          "internalType": "bool",
          "name": "",
          "type": "bool"
        }
      ],
      "stateMutability": "view",
      "type": "function"
    },
    {
      "inputs": [],
      "name": "latestCommitment",
      "outputs": [
        {
          "internalType": "bytes32",
          "name": "",
          "type": "bytes32"
        }
      ],
      "stateMutability": "view",
      "type": "function"
    },
    {
      "inputs": [],
      "name": "mainChainId",
      "outputs": [
        {
          "internalType": "uint32",
          "name": "",
          "type": "uint32"
        }
      ],
      "stateMutability": "view",
      "type": "function"
    },
    {
      "inputs": [],
      "name": "mainChainLock",
      "outputs": [
        {
          "internalType": "address",
          "name": "",
          "type": "address"
        }
      ],
      "stateMutability": "view",
      "type": "function"
    },
    {
      "inputs": [
        {
          "internalType": "uint256",
          "name": "",
          "type": "uint256"
        }
      ],
      "name": "receivedMessages",
      "outputs": [
        {
          "internalType": "uint32",
          "name": "",
          "type": "uint32"
        }
      ],
      "stateMutability": "view",
      "type": "function"
    },
    {
      "inputs": [
        {
          "internalType": "uint256",
          "name": "",
          "type": "uint256"
        }
      ],
      "name": "requiredTokens",
      "outputs": [
        {
          "internalType": "address",
          "name": "_address",
          "type": "address"
        },
        {
          "internalType": "uint256",
          "name": "_quantity",
          "type": "uint256"
        },
        {
          "internalType": "uint32",
          "name": "_chainId",
          "type": "uint32"
        },
        {
          "internalType": "address",
          "name": "_contributor",
          "type": "address"
        },
        {
          "internalType": "address",
          "name": "_aggregator",
          "type": "address"
        }
      ],
      "stateMutability": "view",
      "type": "function"
    },
    {
      "inputs": [
        {
          "internalType": "uint256",
          "name": "_vaultId",
          "type": "uint256"
        },
        {
          "internalType": "bytes32",
          "name": "mainChainLastCommitment",
          "type": "bytes32"
        },
        {
          "components": [
            {
              "internalType": "uint256",
              "name": "blockNumber",
              "type": "uint256"
            },
            {
              "internalType": "uint256",
              "name": "nonce",
              "type": "uint256"
            },
            {
              "internalType": "bytes",
              "name": "blockHeader",
              "type": "bytes"
            },
            {
              "internalType": "bytes32",
              "name": "storageRoot",
              "type": "bytes32"
            },
            {
              "internalType": "bytes",
              "name": "accountProof",
              "type": "bytes"
            },
            {
              "internalType": "bytes",
              "name": "storageProof",
              "type": "bytes"
            }
          ],
          "internalType": "struct Proof",
          "name": "proof",
          "type": "tuple"
        }
      ],
      "name": "secureBurn",
      "outputs": [],
      "stateMutability": "nonpayable",
      "type": "function"
    },
    {
      "inputs": [
        {
          "internalType": "address",
          "name": "_sideChainLock",
          "type": "address"
        },
        {
          "internalType": "uint32",
          "name": "_sideChainId",
          "type": "uint32"
        },
        {
          "internalType": "address",
          "name": "_outbox",
          "type": "address"
        },
        {
          "internalType": "address",
          "name": "_securityModule",
          "type": "address"
        }
      ],
      "name": "setMainChainParams",
      "outputs": [],
      "stateMutability": "nonpayable",
      "type": "function"
    },
    {
      "inputs": [
        {
          "internalType": "address",
          "name": "_mainChainLock",
          "type": "address"
        },
        {
          "internalType": "address",
          "name": "_outbox",
          "type": "address"
        },
        {
          "internalType": "address",
          "name": "_securityModule",
          "type": "address"
        }
      ],
      "name": "setSideChainParams",
      "outputs": [],
      "stateMutability": "nonpayable",
      "type": "function"
    },
    {
      "inputs": [
        {
          "internalType": "uint256",
          "name": "_vaultId",
          "type": "uint256"
        },
        {
          "internalType": "enum VaultState",
          "name": "_state",
          "type": "uint8"
        }
      ],
      "name": "setVaultState",
      "outputs": [],
      "stateMutability": "nonpayable",
      "type": "function"
    },
    {
      "inputs": [],
      "name": "sideChainId",
      "outputs": [
        {
          "internalType": "uint32",
          "name": "",
          "type": "uint32"
        }
      ],
      "stateMutability": "view",
      "type": "function"
    },
    {
      "inputs": [],
      "name": "sideChainLock",
      "outputs": [
        {
          "internalType": "address",
          "name": "",
          "type": "address"
        }
      ],
      "stateMutability": "view",
      "type": "function"
    },
    {
      "inputs": [],
      "name": "updateCommitment",
      "outputs": [],
      "stateMutability": "nonpayable",
      "type": "function"
    },
    {
      "inputs": [
        {
          "internalType": "uint256",
          "name": "",
          "type": "uint256"
        }
      ],
      "name": "vaults",
      "outputs": [
        {
          "internalType": "enum VaultState",
          "name": "state",
          "type": "uint8"
        }
      ],
      "stateMutability": "view",
      "type": "function"
    }
  ],
  "transactionHash": "0xe7b2743b98f60c0a18dd366bf102a84b31c7437a72f1b38888ef0bf71124fe8e",
  "args": [
    10200,
    11155111,
    [
      {
        "_address": "0x97A1E783eE95F15A5205433Cd0224C7d91f63EBA",
        "_quantity": "100000000000000000000",
        "_chainId": 11155111,
        "_contributor": "0x2a1F5eB3e84e58e6F1e565306298B9dE1273f203",
        "_aggregator": "0x0000000000000000000000000000000000000000"
      }
    ],
    "0xFC2c9d0094c6D64F3a4e4C6BF30E2229F4268b70",
    "0x6869B0EbdC183Ab4cFc297B32214B21A417E76B2",
    "0x0000000000000000000000000000000000000000",
    "0x0000000000000000000000000000000000000000",
    "0x0000000000000000000000000000000000000000",
    "100000000000000000000"
  ],
  "numDeployments": 1,
  "solcInputHash": "fb181255c617a521725c73fda7868f82",
  "bytecode": "0x608060405234620004d45762006bea803803806200001d81620004d9565b92833981019061012081830312620004d4576200003a81620004ff565b906200004960208201620004ff565b60408201519092906001600160401b038111620004d45782019284601f85011215620004d4578351946001600160401b0386116200030a576200009260208760051b01620004d9565b946020868881520190602060a080990282010192808411620004d4579190602001915b838310620004365750505050620000cf6060840162000511565b620000ea620000e16080860162000511565b96850162000511565b620000f860c0860162000511565b936101006200010a60e0880162000511565b960151600160115560006012819055600480546001600160401b03191660209490941b67ffffffff00000000169390931763ffffffff871617909255600f80546001600160a01b03199081166001600160a01b039099169890981790556010555b8651811015620003205762000181818862000526565b5160025490680100000000000000008210156200030a576001820180600255821015620002f4576200022991600260005260206000209060021b0160018060a01b0360806003828551169360018060a01b03199485825416178155602086015160018201556002810163ffffffff604088015116815490640100000000600160c01b0360608a015160201b169160018060c01b03191617179055019301511690825416179055565b620002cb62000239828962000526565b516001600160a01b036200024e848b62000526565b5151166000526003602052604060002060018060a01b0360806003828551169360018060a01b03199485825416178155602086015160018201556002810163ffffffff604088015116815490640100000000600160c01b0360608a015160201b169160018060c01b03191617179055019301511690825416179055565b6000198114620002de576001016200016b565b634e487b7160e01b600052601160045260246000fd5b634e487b7160e01b600052603260045260246000fd5b634e487b7160e01b600052604160045260246000fd5b508660018060a01b031685600b541617600b5560018060a01b031684600c541617600c5560018060a01b03168084600a541617600a556040519061316680830183811060018060401b038211176200030a57606092849262003a84843933825260208201523360408201520301906000f080156200042a57600e805485166001600160a01b039290921691821790556040519161122491828401906001600160401b038211858310176200030a5763ffffffff85936060956200286086391682526000602083015260408201520301906000f080156200042a576009805484166001600160a01b03928316179055600d8054909316911617905560405161232490816200053c8239f35b6040513d6000823e3d90fd5b8883820312620004d4576040518981016001600160401b03811182821017620004bf578a9384926020926040526200046e8762000511565b815282870151838201526200048660408801620004ff565b604082015260606200049a81890162000511565b908201526080620004ad81890162000511565b908201528152019301929150620000b5565b60246000634e487b7160e01b81526041600452fd5b600080fd5b6040519190601f01601f191682016001600160401b038111838210176200030a57604052565b519063ffffffff82168203620004d457565b51906001600160a01b0382168203620004d457565b8051821015620002f45760209160051b01019056fe608080604052600436101561001357600080fd5b600090813560e01c908163014372eb146110e0575080630badce41146110a15780630f45ad431461107b578063250cab391461105d578063309bfe4a1461102d5780633f75864c14610c4757806356d5d47514610be65780636059f09614610b175780636268acb214610afa57806369abaac914610a635780636b8cf65e14610a3c5780637fcee99714610a2057806384710c91146109995780638c64ea4a146109625780639403b63414610850578063956a45a6146107d35780639a8a0592146107af5780639a9176c2146107885780639c58a5a414610761578063b834f6fb1461072d578063b98ee2b61461063b578063cca3ce2b14610562578063d030366c14610501578063d7f126fa146104a3578063e1a2d4241461035a578063eb6a9aa0146103335763fc606cbe1461014a57600080fd5b346103305760403660031901126103305767ffffffffffffffff60043581811161032c5761017c9036906004016113be565b916024359081116103285790610197849236906004016113be565b92906001600160a01b03600d54169363ffffffff60045416936011549660206102256001600160a01b036001541687549060405191848301528382526101dc82611203565b6040519b8c9a7f39d0bf63000000000000000000000000000000000000000000000000000000008c5260048c015260248b015260448a015260c060648a015260c4890190611f13565b87810360031901608489015282815201919085905b8082106102ed575050508481036003190160a4860152818152602001919083905b8082106102b6575050506020939183809203925af180156102ab5761027e575080f35b602090813d83116102a4575b610294818361123b565b8101031261029f5780f35b600080fd5b503d61028a565b6040513d84823e3d90fd5b9291945092508335906001600160a01b0382168092036102e957602081600193829352019401920191869286949261025b565b8780fd5b92919496509294508335906001600160a01b038216809203610324576020816001938293520194019201918894928896949261023a565b8980fd5b8380fd5b8280fd5b80fd5b503461033057806003193601126103305760206001600160a01b03600f5416604051908152f35b503461033057608036600319011261033057610374611136565b6024359063ffffffff8216820361029f5761038d61114c565b906064356001600160a01b0380821680920361029f576103ba60045463ffffffff808260201c1691161490565b15610439577fffffffffffffffff0000000000000000000000000000000000000000000000009277ffffffff0000000000000000000000000000000000000000928273ffffffffffffffffffffffffffffffffffffffff199616866007541617600755600154956008541617600855169360a01b169116171760015580f35b608460405162461bcd60e51b815260206004820152603160248201527f5369646520436861696e206c6f636b20616464726573732063616e206f6e6c7960448201527f20626520736574206d61696e636861696e0000000000000000000000000000006064820152fd5b5034610330576003196060368201126104fd57600435906044359067ffffffffffffffff82116103285760c091360301126104fd576104e1816121bf565b8152601560205260408120600101805460ff1916600317905580f35b5080fd5b5034610330576020366003190112610330576004356005548110156104fd5760056020925263ffffffff8160031c7f036b6384b5eca791c62761152d0c79bb0604c104a5fb6f4eb0703f3154bb3db0015460e06040519360051b161c168152f35b503461033057806003193601126103305760028054906105818261125d565b9161058f604051938461123b565b80835260008281526020927f405787fa12a823e0f2b7631cc41b3ba8828b3321ca811111fa75cd3aa3bb5ace90848087015b8585106105df57604051828152806105db8185018b6112e0565b0390f35b6001916004916040516105f18161121f565b6001600160a01b038088541682528588015484830152808789015463ffffffff81166040850152851c166060830152600388015416608082015281520193019301929185906105c1565b503461033057606036600319011261033057610655611136565b61065d611120565b61066561114c565b61067c60045463ffffffff808260201c1691161490565b6106c3576001600160a01b0380928173ffffffffffffffffffffffffffffffffffffffff199516856006541617600655168360075416176007551690600854161760085580f35b608460405162461bcd60e51b815260206004820152603360248201527f4d61696e20636861696e206c6f636b20616464726573732063616e6e6f74206260448201527f6520736574206f6e206d61696e20636861696e000000000000000000000000006064820152fd5b5034610330578060031936011261033057602061075760045463ffffffff808260201c1691161490565b6040519015158152f35b503461033057806003193601126103305760206001600160a01b0360015416604051908152f35b5034610330578060031936011261033057602063ffffffff60015460a01c16604051908152f35b5034610330578060031936011261033057602063ffffffff60045416604051908152f35b503461033057602036600319011261033057600435906002548210156103305763ffffffff61080183611352565b50805460018201546002830154600390930154604080516001600160a01b03948516815260208082019490945295851663ffffffff169086015292901c8116606084015216608082015260a090f35b5034610330576020908160031936011261033057604080519161087283611203565b8084606094858152015260043581526015845220906040519161089483611203565b805461089f8161125d565b906108ad604051928361123b565b80825260008381528681208784015b83831061090857604088886105db6108fc8d60ff60018d8d8852015416936108e78287019586611473565b865196879683885251928701528501906112e0565b91516040840190611176565b60048960019260405161091a8161121f565b6001600160a01b03808754168252858701548483015280600288015463ffffffff81166040850152851c168c83015260038701541660808201528152019201920191906108bc565b50346103305760203660031901126103305760ff60016040602093600435815260158552200154166109976040518092611176565bf35b50346103305760a0366003190112610330576040516109b78161121f565b6001600160a01b03600435818116810361029f578252602435602083015260443563ffffffff8116810361029f576040830152606435818116810361029f576060830152608435908116810361029f5781610a1891608060209401526114f2565b604051908152f35b5034610330578060031936011261033057610a396113ef565b80f35b503461033057806003193601126103305760206001600160a01b0360065416604051908152f35b50346103305760203660031901126103305763ffffffff906105db60406001600160a01b039283610a92611136565b1681526003602052208281541690600181015491846003600284015493015416926040519687968460201c1693169186939060809396959163ffffffff60a08701986001600160a01b0395868095168952602089015216604087015216606085015216910152565b503461033057806003193601126103305760209054604051908152f35b50602090600319828136011261029f576004359067ffffffffffffffff9081831161029f57604090833603011261029f5760405191610b5583611203565b80600401358352602481013591821161029f57013660238201121561029f57600481013593610b838561125d565b91610b91604051938461123b565b858352818301602460a08098028301019136831161029f57602401905b828210610bce5786610a3987878782015263ffffffff6004541690611578565b838891610bdb3685611275565b815201910190610bae565b5060603660031901126103305760043563ffffffff81160361029f5760443567ffffffffffffffff80821161032c573660238301121561032c57816004013590811161032c57366024828401011161032c576024610a399201602435611f75565b5034610330576003196040368201126104fd57600435906024359067ffffffffffffffff82116103285760c091360301126104fd578082526015602091818352600160ff816040872001541692600484101561101957610caa6002809514612174565b610cc160045463ffffffff808260201c1691161490565b15610faf576001600160a01b03938685600f5416601054813b1561032c576040517f9dc29fac000000000000000000000000000000000000000000000000000000008152336004820152602481019190915291908290604490829084905af18015610fa457610f91575b508693929190825b610e87575b508287528552604086208101805460ff19166003179055610da19250610d5c6113ef565b5463ffffffff84821694600754169160a01c1693856040518482820152818152610d8581611203565b6040518096819263138857a360e31b8352858a60048501611f53565b0381855afa8015610e7c5786948891610e49575b50610e04956040519486860152858552610dce85611203565b604051968795869485937ffa31de0100000000000000000000000000000000000000000000000000000000855260048501611f53565b03925af18015610e3e57610e16578280f35b813d8311610e37575b610e29818361123b565b8101031261029f5738808280f35b503d610e1f565b6040513d85823e3d90fd5b85819692503d8311610e75575b610e60818361123b565b8101031261029f579251859390610e04610db5565b503d610e56565b6040513d89823e3d90fd5b8388528187526040882094888654821015610f8a5782610eac838798999796976113a2565b50015460045463ffffffff908116911614610ed5575b50610ecc9061143a565b94939291610d33565b925085835283885287610f3388610eef84604088206113a2565b50541688865286835287610f0685604089206113a2565b50015460405163a9059cbb60e01b8152336004820152602481019190915295869283919082906044820190565b03925af1908115610f7f578593610ecc92610f52575b50905088610ec2565b610f71908a3d8c11610f78575b610f69818361123b565b810190611548565b5038610f49565b503d610f5f565b6040513d8b823e3d90fd5b5050610d38565b96610f9d8492986111d9565b9690610d2b565b6040513d8a823e3d90fd5b6084856040519062461bcd60e51b82526004820152602560248201527f4275726e2063616e206f6e6c792062652063616c6c6564206f6e206d61696e2060448201527f636861696e0000000000000000000000000000000000000000000000000000006064820152fd5b602486634e487b7160e01b81526021600452fd5b50346103305780600319360112610330576105db61104961147f565b604051918291602083526020830190611199565b50346103305780600319360112610330576020601054604051908152f35b5034610330578060031936011261033057602060045463ffffffff60405191831c168152f35b50346103305760403660031901126103305760243560048110156104fd5760043582526015602052600160408320019060ff8019835416911617905580f35b9050346104fd5760403660031901126104fd576040602092611100611120565b6004358252601485526001600160a01b0383832091168252845220548152f35b602435906001600160a01b038216820361029f57565b600435906001600160a01b038216820361029f57565b604435906001600160a01b038216820361029f57565b35906001600160a01b038216820361029f57565b9060048210156111835752565b634e487b7160e01b600052602160045260246000fd5b90815180825260208080930193019160005b8281106111b9575050505090565b909192938280826111cd6001948951611176565b019501939291016111ab565b67ffffffffffffffff81116111ed57604052565b634e487b7160e01b600052604160045260246000fd5b6040810190811067ffffffffffffffff8211176111ed57604052565b60a0810190811067ffffffffffffffff8211176111ed57604052565b90601f8019910116810190811067ffffffffffffffff8211176111ed57604052565b67ffffffffffffffff81116111ed5760051b60200190565b91908260a091031261029f5760405161128d8161121f565b809261129881611162565b82526020810135602083015260408101359063ffffffff8216820361029f5760806112db91819360408601526112d060608201611162565b606086015201611162565b910152565b90815180825260208080930193019160005b828110611300575050505090565b835180516001600160a01b039081168752818401518785015260408083015163ffffffff1690880152606080830151821690880152608091820151169086015260a090940193928101926001016112f2565b60025481101561138c57600260005260021b7f405787fa12a823e0f2b7631cc41b3ba8828b3321ca811111fa75cd3aa3bb5ace0190600090565b634e487b7160e01b600052603260045260246000fd5b805482101561138c5760005260206000209060021b0190600090565b9181601f8401121561029f5782359167ffffffffffffffff831161029f576020808501948460051b01011161029f57565b6113f761147f565b601254611432604051809261141e6020830195468752606060408501526080840190611199565b90606083015203601f19810183528261123b565b519020600055565b60001981146114495760010190565b634e487b7160e01b600052601160045260246000fd5b805182101561138c5760209160051b010190565b60048210156111835752565b6040805190610b60820182811067ffffffffffffffff8211176111ed578152605a82526020610b403682850137600090815b84518110156114eb57806114e6918452601583526114e160ff60018787200154166114dc838961145f565b611473565b61143a565b6114b1565b5050505090565b6002549060005b82811061150857505050600090565b61151181611352565b506001600160a01b03809154169083511614611535576115309061143a565b6114f9565b91505090565b9190820180921161144957565b9081602091031261029f5751801515810361029f5790565b805482101561138c5760005260206000200190600090565b9081519060208301519382600052601560205260ff600160406000200154166004811015611183576001148015611eca575b15611e865782600052601560205260ff6001604060002001541660048110156111835715611ce3575b60005b855181101561198a5761161360206115ee838961145f565b510151856000526015602052600161160a8460406000206113a2565b5001549061153b565b6001600160a01b03611625838961145f565b5151166000526003602052600160406000200154106119205761165161164b828861145f565b516114f2565b63ffffffff6040611662848a61145f565b5101511663ffffffff851614611865575b6116a8600161169e6020611687868c61145f565b5101519388600052601560205260406000206113a2565b500191825461153b565b90557f80590f9d7015c327349ea64242fc29353801fcad956721a0e45f725338db06f460a06001600160a01b036116df848a61145f565b51511660206116ee858b61145f565b510151896001600160a01b03606061171b8863ffffffff6040611711838861145f565b510151169461145f565b5101511691604051938a85526020850152604084015260608301526080820152a161175360045463ffffffff808260201c1691161490565b611766575b6117619061143a565b6115d6565b83600052601460205260406000206001600160a01b036060611788848a61145f565b51015116600052602052604060002054156117f6575b8060206117ae611761938961145f565b51015185600052601460205260406000206001600160a01b0360606117d3858c61145f565b510151166000526020526117ed604060002091825461153b565b90559050611758565b8360005260136020526040600020906001600160a01b036060611819838a61145f565b51015116825492680100000000000000008410156111ed578361184491600161176196018155611560565b6001600160a01b03829392549160031b92831b921b1916179055905061179e565b6001600160a01b03611877838961145f565b51511660206001600160a01b036060611890868c61145f565b510151166064826118a1878d61145f565b51015191600060405195869485937f23b872dd000000000000000000000000000000000000000000000000000000008552600485015230602485015260448401525af18015611914576118f5575b50611673565b61190d9060203d602011610f7857610f69818361123b565b50386118ef565b6040513d6000823e3d90fd5b608460405162461bcd60e51b815260206004820152602a60248201527f546f6b656e207175616e7469747920657863656564732074686520726571756960448201527f72656420616d6f756e74000000000000000000000000000000000000000000006064820152fd5b50935050906000600254905b818110611ca05750508160005260156020526001604060002001600260ff198254161790556119c36113ef565b6119da60045463ffffffff808260201c1691161490565b15611b805750600091825b82600052601380602052604060002054851015611a4e57611a4891611a429160146020526040600020906020526001600160a01b03611a28886040600020611560565b90549060031b1c166000526020526040600020549061153b565b9361143a565b926119e5565b50925060005b8260005260139081602052604060002054811015611b79576014602052604060002082602052611a88826040600020611560565b916001600160a01b03809254600394851b1c166000526020526040600020549160105492838102938185041490151715611449578715611b635781600f54169487600052602052611add846040600020611560565b9054911b1c16833b1561029f576040517f40c10f190000000000000000000000000000000000000000000000000000000081526001600160a01b03919091166004820152908690046024820152916000908390604490829084905af191821561191457611b4f92611b54575b5061143a565b611a54565b611b5d906111d9565b38611b49565b634e487b7160e01b600052601260045260246000fd5b5050915050565b90506001600160a01b0390611be9826006541692600754169163ffffffff60045460201c169060405190602082611bb983838301611eef565b0392611bcd601f199485810183528261123b565b6040518096819263138857a360e31b83528a8860048501611f53565b0381885afa93841561191457600094611c61575b509260209492610dce611c299793611c1d966040519788918a8301611eef565b0390810187528661123b565b03925af1801561191457611c3a5750565b602090813d8311611c5a575b611c50818361123b565b8101031261029f57565b503d611c46565b9492959193506020853d602011611c98575b81611c806020938361123b565b8101031261029f579351909491939092906020611bfd565b3d9150611c73565b8360005260156020526001611cb98260406000206113a2565b5001546001611cc783611352565b50015411611cdd57611cd89061143a565b611996565b50505050565b9391929060005b600254811015611e58578460005260156020526040600020906001600160a01b03611d1482611352565b5054169163ffffffff6002611d2884611352565b500154166001600160a01b036003611d3f85611352565b500154169060405194611d518661121f565b85526000602086015260408501526000606085015260808401528054680100000000000000008110156111ed57611d8d916001820181556113a2565b929092611e4257611e3d926001600160a01b0360806003828551169373ffffffffffffffffffffffffffffffffffffffff199485825416178155602086015160018201556002810163ffffffff6040880151168154907fffffffffffffffff00000000000000000000000000000000000000000000000077ffffffffffffffffffffffffffffffffffffffff0000000060608b015160201b1692161717905501930151169082541617905561143a565b611cea565b634e487b7160e01b600052600060045260246000fd5b50909291938260005260156020526001604060002001600160ff19825416179055611e816113ef565b6115d3565b606460405162461bcd60e51b815260206004820152601a60248201527f5661756c74206973206e6f74206f70656e206f7220656d7074790000000000006044820152fd5b5082600052601560205260ff60016040600020015416600481101561118357156115aa565b60606020611f109381845280518285015201519160408082015201906112e0565b90565b919082519283825260005b848110611f3f575050826000602080949584010152601f8019910116010190565b602081830181015184830182015201611f1e565b611f10939263ffffffff60609316825260208201528160408201520190611f13565b92919092611f9060045463ffffffff808260201c1691161490565b156120dd576001600160a01b03806001541691160361207357820191602092838282031261029f57813567ffffffffffffffff9283821161029f57019160408383031261029f5760405192611fe484611203565b803584528581013591821161029f57019381601f8601121561029f5784359461200c8661125d565b9261201a604051948561123b565b868452828401908360a08099028401019281841161029f578401915b83831061205b575050505061205993945082015263ffffffff6004541690611578565b565b8489916120688486611275565b815201920191612036565b608460405162461bcd60e51b815260206004820152602c60248201527f53656e64657220746f206d61696e436861696e206973206e6f7420746865207360448201527f696465436861696e4c6f636b00000000000000000000000000000000000000006064820152fd5b6001600160a01b03939293806006541691160361210a57816020918101031261029f5761205990356121bf565b608460405162461bcd60e51b815260206004820152602c60248201527f53656e64657220746f2073696465436861696e206973206e6f7420746865206d60448201527f61696e436861696e4c6f636b00000000000000000000000000000000000000006064820152fd5b1561217b57565b606460405162461bcd60e51b815260206004820152601360248201527f5661756c74206973206e6f74206d696e746564000000000000000000000000006044820152fd5b60009080825260159160209280845260019360409360ff86868620015416600490818110156122db5760026121f49114612174565b84875b612216575b50508352522001805460ff191660031790556120596113ef565b828652848452858488822080548410156122d3576001600160a01b0361223f85612289936113a2565b5054168684528883528b612255868d87206113a2565b5001548b5194858094819363a9059cbb60e01b8352338b8401602090939291936001600160a01b0360408201951681520152565b03925af180156122c957916122a5918a94936122ac575061143a565b90916121f7565b6122c290873d8911610f7857610f69818361123b565b5038611b49565b88513d89823e3d90fd5b5050506121fc565b602486602184634e487b7160e01b835252fdfea2646970667358221220724f3ec3f5be14041695fc9f9ab1783465dd22c3797944245c961c8876f6301a64736f6c6343000814003360e03461009057601f61122438819003918201601f19168301916001600160401b0383118484101761009557808492606094604052833981010312610090578051602082015160409092015191906001600160a01b03831683036100905760805260a05260c05260405161117890816100ac823960805181610284015260a05181610249015260c051816102d40152f35b600080fd5b634e487b7160e01b600052604160045260246000fdfe6080604052600436101561001257600080fd5b6000803560e01c90816307b244581461008a5750806329f6d57c1461008557806332b55cbf1461008057806374be21501461007b578063cb7cf18114610076578063e90524f2146100715763ebe445fc1461006c57600080fd5b61032c565b6102f8565b6102a7565b61026c565b610231565b6101d1565b3461010a5760031960403682011261010d576004359167ffffffffffffffff9182841161010d5760c090843603011261010a5760243591821161010a573660238301121561010a576101066100f4846100eb36600487013560248801610195565b906004016103df565b60405190151581529081906020820190565b0390f35b80fd5b5080fd5b634e487b7160e01b600052604160045260246000fd5b6040810190811067ffffffffffffffff82111761014357604052565b610111565b90601f8019910116810190811067ffffffffffffffff82111761014357604052565b6040519061017782610127565b565b67ffffffffffffffff811161014357601f01601f191660200190565b9291926101a182610179565b916101af6040519384610148565b8294818452818301116101cc578281602093846000960137010152565b600080fd5b346101cc5760203660031901126101cc5760043573ffffffffffffffffffffffffffffffffffffffff81168091036101cc577fffffffffffffffffffffffff00000000000000000000000000000000000000006000541617600055600080f35b346101cc5760003660031901126101cc5760206040517f00000000000000000000000000000000000000000000000000000000000000008152f35b346101cc5760003660031901126101cc5760206040517f00000000000000000000000000000000000000000000000000000000000000008152f35b346101cc5760003660031901126101cc57602060405173ffffffffffffffffffffffffffffffffffffffff7f0000000000000000000000000000000000000000000000000000000000000000168152f35b346101cc5760003660031901126101cc57602073ffffffffffffffffffffffffffffffffffffffff60005416604051908152f35b346101cc5760003660031901126101cc576020600154604051908152f35b903590601e19813603018212156101cc570180359067ffffffffffffffff82116101cc576020019181360383136101cc57565b919082519283825260005b8481106103a9575050826000602080949584010152601f8019910116010190565b602081830181015184830182015201610388565b9392916103da90604092865260606020870152606086019061037d565b930152565b6104236104d061043961043361042e6104296103fe604088018861034a565b61041b61041160808b9a949a018b61034a565b9990923691610195565b973691610195565b95610d9b565b610dd9565b6105ad565b51610f02565b6104b96104ca61042961046160005473ffffffffffffffffffffffffffffffffffffffff1690565b956104c5604051978861048f6020820192836014916bffffffffffffffffffffffff199060601b1681520190565b03986104a3601f199a8b8101835282610148565b5190206040519586916020830160209181520190565b03888101865285610148565b610d9b565b9161075f565b6104e76104336104e261042984610d9b565b6105c2565b506104f461042982610d9b565b90600482510361055d575061053f9161052861051561043361054b946105c2565b61052260a087018761034a565b91610d42565b9460405193849160208084019701359046886103bd565b03908101835282610148565b5190200361055857600190565b600090565b610593906040519182917fffdec2a500000000000000000000000000000000000000000000000000000000835260048301610614565b0390fd5b634e487b7160e01b600052603260045260246000fd5b8051600310156105bd5760800190565b610597565b8051600210156105bd5760600190565b8051601010156105bd576102200190565b8051156105bd5760200190565b8051600110156105bd5760400190565b80518210156105bd5760209160051b010190565b90602061062592818152019061037d565b90565b6040519061063582610127565b60006020838281520152565b156101cc57565b6040516020810181811067ffffffffffffffff8211176101435760405260008152906000368137565b9061067b82610179565b6106886040519182610148565b8281528092610699601f1991610179565b0190602036910137565b634e487b7160e01b600052601160045260246000fd5b60001981146106c85760010190565b6106a3565b6000198101919082116106c857565b60bf198101919082116106c857565b607f198101919082116106c857565b60200390602082116106c857565b60f6198101919082116106c857565b60b6198101919082116106c857565b919082039182116106c857565b9081518110156105bd570160200190565b90600182018092116106c857565b919082018092116106c857565b9061076b606091610c1e565b906000928390610779610628565b50855115610a1e57916000959195925b8251841015610a1457831580806109fe575b6101cc5715806109e2575b6101cc576107bd6107b78585610600565b51610dd9565b968751600281146000146108c55750506107e76107e26107dc896105e3565b51610f44565b610ab0565b966107fd6107f6898984610cbb565b8092610752565b9751116108a6571561083557505061081590516106cd565b116101cc57511161082c576107dc610625916105f0565b50610625610648565b9092919561084387516106cd565b83146101cc578061086661086261085c610883946105f0565b51610eac565b1590565b1561088d5761087761087d916105f0565b51610ec8565b926106b9565b9290959195610789565b61089961087d916105f0565b5160208101519051902090565b505050915092506108b89150516106cd565b116101cc57610625610648565b6011909891949895929395146108e0575b50610883906106b9565b8551919796959493509085146109c05760ff61093761093161092b6109058989610733565b517fff000000000000000000000000000000000000000000000000000000000000001690565b60f81c90565b96610744565b95169060108210156101cc576109566109508383610600565b51610a93565b156109785750505050505061096b90516106cd565b036101cc57610625610648565b908161099361086261085c84610883969c98999a9b9c610600565b156109ad576109a59161087791610600565b925b906108d6565b6109ba9161089991610600565b926109a7565b9594925050506109d19150516106cd565b036101cc576107dc610625916105d2565b506109f66109f08585610600565b51610a58565b8714156107a6565b50610a0c6108998686610600565b82141561079b565b5095945050505050565b92505050610a5092507f56e81f171bcc55a6ff8345e692c0f86e5b48e01b996cadc001622fb5e363b421915014610641565b610625610648565b80516020811015610a70575060208101519051902090565b9060200151206040516020810191825260208152610a8d81610127565b51902090565b6001815103610aaa57602001515160001a60801490565b50600090565b908151156101cc57610ac1826105e3565b5160009060fc1c80610baf5750506002906000925b610b0083610aef8351610aea811515610641565b610beb565b610afb81831115610641565b610726565b91610b0a83610671565b94849360005b610b1a8288610752565b861015610b985790610b74610931610b1a93600f60f81b89600180821615600014610b7d5761092b610905610b5d93610b54931c8d610733565b60041c600f1690565b60f81b1660001a610b6e828d610733565b53610744565b95909150610b10565b61092b610905610b5d93610b92931c8d610733565b60ff1690565b929550509250610bab9150845114610c01565b9190565b60018103610bc4575050600190600092610ad6565b60028103610bd9575050600290600192610ad6565b60030361010a57506001908192610ad6565b908160011b91808304600214901517156106c857565b15610c0857565b634e487b7160e01b600052600160045260246000fd5b90610c2f8251610aea811515610641565b91610c3983610671565b9260009081925b818410610c565750506101779150835114610c01565b9091610c98610c9e91600f60f81b86600180821615600014610ca65761092b610905610c8793610b54931c89610733565b60f81b1660001a610b6e828a610733565b93610744565b929190610c40565b61092b610905610c8793610b92931c89610733565b919060005b8381018082116106c8578251811080610d38575b15610d3057610d07907fff0000000000000000000000000000000000000000000000000000000000000091829185610733565b511690610d148386610733565b511603610d2957610d24906106b9565b610cc0565b9250505090565b509250505090565b5083518210610cd4565b610625926104ca6104296104c5610d8d9560405160208101906000825260208152610d6c81610127565b5190209460405195602087015260208652610d8686610127565b3691610195565b805115610aaa576021015190565b610da3610628565b50602081519160405192610db684610127565b835201602082015290565b67ffffffffffffffff81116101435760051b60200190565b610de281610eac565b156101cc57610df081610f6e565b610df981610dc1565b91610e076040519384610148565b818352601f19610e1683610dc1565b0160005b818110610e95575050610e3b602080920151610e3581611056565b90610752565b6000905b838210610e4d575050505090565b610e8981610e5d610e8f93610fd0565b90610e6661016a565b8281528187820152610e78868a610600565b52610e838589610600565b50610752565b916106b9565b90610e3f565b602090610ea0610628565b82828801015201610e1a565b805115610aaa57602060c09101515160001a1061055857600190565b610ed190610ed6565b902090565b906020820191610ee68351611056565b9251908382018092116106c857519283039283116106c8579190565b80518015159081610f38575b50156101cc57610f1d90610ed6565b90519060208110610f2c575090565b6020036101000a900490565b60219150111538610f0e565b8051156101cc57610f5761062591610ed6565b610f6381939293610671565b9283602001906110c5565b805115610aaa5760009060208101908151610f8881611056565b81018091116106c8579151905181018091116106c85791905b828110610fae5750905090565b610fb781610fd0565b81018091116106c857610fca90916106b9565b90610fa1565b805160001a906080821015610fe6575050600190565b60b88210156110015750610ffc610625916106eb565b610744565b9060c08110156110255760b51991600160b783602003016101000a91015104010190565b9060f882101561103c5750610ffc610625916106dc565b60010151602082900360f7016101000a90040160f5190190565b5160001a60808110156110695750600090565b60b8811080156110a0575b1561107f5750600190565b60c081101561109457610ffc61062591610717565b610ffc61062591610708565b5060c08110158015611074575060f88110611074565b601f81116106c8576101000a90565b92909192831561113c5792915b60209384841061110757805182528481018091116106c8579381018091116106c85791601f1981019081116106c857916110d2565b919350918061111557505050565b61112961112461112e926106fa565b6110b6565b6106cd565b905182518216911916179052565b5091505056fea264697066735822122017932524ef2fadebde2f3158acf5862936f2bc55c8ae93cf983550cb1ad9189f64736f6c634300081400336080346200033d57601f6200316638819003918201601f1916830192916001600160401b039182851184861017620003275781606092859260409788528339810103126200033d57620000528262000342565b906200006e84620000666020860162000342565b940162000342565b9084516020810160018060a01b03809516815284878301961686528682526060820192828410908411176200032757828752600091825460ff8160081c16159485809662000319575b801562000300575b15620002a8575060ff19811660011784558891908562000296575b508051810103126200029257620000f19062000342565b94519484861680960362000292578416916200011f60ff835460081c16620001198162000357565b62000357565b6200012a3362000411565b6200013c60ff835460081c1662000357565b62000146620003b8565b6065549580868816146200027b576001600160a01b03199687168117606555807f1e44815867bf36700178046dec2874b58492fa049a6775df578903717bb05b358480a262000194620003b8565b83156200022857620001a68462000411565b8751937f45acd56f401dc3db1d520e5e214f090b4ab3e3fbf42fd24596cb511edaad876a8480a3620001ed575b50501690606854161760685551612d0b90816200045b8239f35b805461ff0019169055600181527f7f26b83ff96e1f2b6a682f133852f6798a09c465da95921460cefb384740249890602090a13880620001d3565b875162461bcd60e51b815260206004820152602660248201527f4f776e61626c653a206e6577206f776e657220697320746865207a65726f206160448201526564647265737360d01b6064820152608490fd5b602490885190634636033760e01b82526004820152fd5b5080fd5b61ffff191661010117845538620000da565b6084906d191e481a5b9a5d1a585b1a5e995960921b60c48562461bcd60e51b845260206064820152602e858201527f496e697469616c697a61626c653a20636f6e747261637420697320616c72656160a48201520152fd5b50303b158015620000bf5750600160ff831614620000bf565b50600160ff831610620000b7565b634e487b7160e01b600052604160045260246000fd5b600080fd5b51906001600160a01b03821682036200033d57565b156200035f57565b60405162461bcd60e51b815260206004820152602b60248201527f496e697469616c697a61626c653a20636f6e7472616374206973206e6f74206960448201526a6e697469616c697a696e6760a81b6064820152608490fd5b6033546001600160a01b03163303620003cd57565b606460405162461bcd60e51b815260206004820152602060248201527f4f776e61626c653a2063616c6c6572206973206e6f7420746865206f776e65726044820152fd5b603380546001600160a01b039283166001600160a01b0319821681179092559091167f8be0079c531659141344cd1fd0a4f28419497f9722a3daafe3b4186f6b6457e0600080a356fe6080604052600436101561001257600080fd5b60003560e01c806314223645146120c957806314d338301461209f5780631a7a98e21461206f5780631ad367b714611fd457806323edb2e014611fad5780633f22822914611f945780634056608914611eb7578063458d2bf114611e335780634ddf47d414611b5957806364cae93c14611aed57806367e2120e14611a3b578063715018a6146119e0578063800c31911461172857806389208ba9146116fc5780638c634d0b146116c55780638da5cb5b1461169e578063958f9ee8146114355780639720c96914611409578063a6cf64bf1461111a578063b3105439146110f5578063b89bff5f146110de578063b9c3620914610f7b578063d155591b14610d46578063d3a5458b14610d02578063e25650161461076c578063ead227541461074b578063ec2cf2d514610724578063f2fde38b146106945763fa2280391461015b57600080fd5b346105465760803660031901126105465760446001600160a01b038135168135036105465760643567ffffffffffffffff8111610546576101a0903690600401612287565b6101b08235602435600435612570565b9182600052606c6020526001600160a01b03604060002054161561063f5760005b8251811015610258576001600160a01b038235166001600160a01b036101f7838661254f565b511614610206576001016101d1565b61024c83836001600160a01b036040519384937f0f0c8b8800000000000000000000000000000000000000000000000000000000855260406004860152838501906123a2565b91351660248301520390fd5b50919081600052606c602052604060002090600435600052606b60205260406000206001600160a01b038535166000526020526040600020906040516306e1541160e21b81526004356004820152602435602482015260208187816001600160a01b038235165afa90811561039e5760009161060d575b50806103ee5750506102ea6001830154600483015490612563565b42106103b357600160ff1982541617905560008080806001600160a01b038554166002860154908282156103aa575bf11561039e576020926000600181936001600160a01b031982945b825490600284019687546040519a8b526024358c8c015260408b01521515988960608201526001600160a01b03808416923516907f8880e140a32834a22772dd913417182bb2b6f3d8765010fdaed6af36e3c9eb10608060043592a4168155015555604051908152f35b6040513d6000823e3d90fd5b506108fc610319565b6024846001600160a01b03604051917f0ac9901000000000000000000000000000000000000000000000000000000000835235166004820152fd5b909182516103fd600435612ad0565b51806000198101116105f7576000190103610553575061041f826004356128ba565b6001600160a01b036065541660206040518092633ab489d560e21b8252818061045188602435600435600485016124f2565b03915afa90811561039e5760009161051c575b50036104b2575060008080806001600160a01b03606854166002860154908282156104a9575bf11561039e576020926000600181936001600160a01b03198394610334565b506108fc61048a565b808491511561050657602001516040517f435065db0000000000000000000000000000000000000000000000000000000081526001600160a01b0392358316600482015291166024820152604490fd5b0390fd5b634e487b7160e01b600052603260045260246000fd5b90506020813d60201161054b575b816105376020938361224d565b81010312610546575138610464565b600080fd5b3d915061052a565b91610563906024356004356125bd565b036105a6575060008080806001600160a01b03606854166002860154908282156104a957f11561039e576020926000600181936001600160a01b03198394610334565b600160ff1982541617905560008080806001600160a01b038554166002860154908282156105ee575bf11561039e576020926000600181936001600160a01b03198294610334565b506108fc6105cf565b634e487b7160e01b600052601160045260246000fd5b90506020813d602011610637575b816106286020938361224d565b810103126105465751386102cf565b3d915061061b565b6040517f73ade2130000000000000000000000000000000000000000000000000000000081526004808201949094529235602480850191909152356044840152356001600160a01b0316606483015250608490fd5b34610546576020366003190112610546576004356001600160a01b038116808203610546576106c1612445565b156106d1576106cf9061249d565b005b608460405162461bcd60e51b815260206004820152602660248201527f4f776e61626c653a206e6577206f776e657220697320746865207a65726f206160448201526564647265737360d01b6064820152fd5b346105465760003660031901126105465760206001600160a01b0360655416604051908152f35b3461054657602061076461075e36612412565b916125bd565b604051908152f35b3461054657608036600319011261054657602467ffffffffffffffff6004358235828111610546576107a2903690600401612287565b90604435838111610546576107bb903690600401612287565b92606435908111610546576107d49036906004016122f5565b6107dc612445565b82518451811490811591610cf6575b50610ccc5760005b835181101561087d57826000526020606b815260406000206001600160a01b03918261081f858961254f565b51166000525260ff6040600020541615610842575061083d90612540565b6107f3565b61084d87928661254f565b5116604051907fa21811f60000000000000000000000000000000000000000000000000000000082526004820152fd5b509291610888612445565b81600052606790602091808352600191826040600020015415610cb557805115610ad55784906000845b610b4e575b506108ef7f445aa3dd0c2baa28306a020b0ad28802dac8ce56b94bf9ae2521afa90f855bfb91604051918291888352888301906123a2565b0390a26108fa612445565b8360005260669081845260406000208360005284526001600160a01b03918284604060002001541615610aff575b865115610ad55790916000845b61097f575b6106cf898989807fded0d38026c6e9ca7e2ee1647ae6f70e2306bcc9dcabbb9888888683513e16096109778c6040519181839283528201876123a2565b0390a26126f4565b8751811015610ad05781610993828a61254f565b511680158015610ac7575b610ab05787600052838752604060002081600052875282866040600020015416610a99578594939291610a90918960005284895260406000208760005289528360406000205416908a600052858a526040600020826000528a5287604060002001916001600160a01b03199282848254161790558b600052868b526040600020826000528b52604060002090838254161790558a600052858a526040600020886000528a52604060002081838254161790558a600052858a5260406000209060005289528680604060002001918254161790558860005284885285604060002001610a898154612540565b9055612540565b90919293610935565b8a9060405190635bdca25960e11b82526004820152fd5b8a9060405190633283c86d60e21b82526004820152fd5b5085811461099e565b61093a565b60046040517fc77f9c81000000000000000000000000000000000000000000000000000000008152fd5b856000528085526040600020846000528552836040600020016001600160a01b031990858282541617905586600052818652604060002085600052865284604060002091825416179055610928565b90918251821015610cae57506001600160a01b0380610b6d838561254f565b511680158015610ca5575b610ab0578760005260668088526040600020826000528852604060002092808860405195610ba587612231565b8281541687520154168985019080825215610c8e5781905116935116928960005281895260406000208160005289526040600020936001600160a01b03199481868254161790558a600052828a52604060002090600052895287604060002001908482541617905588600052808852604060002082600052885286604060002001838154169055886000528752604060002090600052865260406000209081541690558560005282855283604060002001908154908115610c79578592610c7192600019019055612540565b8692916108b2565b8a634e487b7160e01b60005260116004526000fd5b8d846040519063950764a360e01b82526004820152fd5b50858114610b78565b91906108b7565b87856040519063cf9349b160e01b82526004820152fd5b60046040517f11e86f73000000000000000000000000000000000000000000000000000000008152fd5b905081511415866107eb565b34610546576040366003190112610546576040610d28610d206121b9565b6004356129b9565b81519060206001600160a01b03918281511684520151166020820152f35b3461054657610d5436612412565b9091610d6082826128ba565b610d6981612b0f565b8391935103610f5d57610d7c815161250e565b926000805b8351811015610e60576001600160a01b03610d9c828661254f565b511660405180916306e1541160e21b825287600483015289602483015281604460209485935afa91821561039e57600092610e32575b5050610dde828861254f565b52610de9818761254f565b5115610e22575b828214610e0557610e0090612540565b610d81565b604051635812992d60e11b815280610502868a89600485016124f2565b90610e2c90612540565b90610df0565b90809250813d8311610e59575b610e49818361224d565b8101031261054657518880610dd2565b503d610e3f565b50939490926000925b8651841015610f145760019460005b878951821015610ed25750610e8d868a61254f565b51610e98828b61254f565b511480610ec8575b610eb3575b610eae90612540565b610e78565b95610ec0610eae91612540565b969050610ea5565b5080861415610ea0565b610ee191508297969396612563565b1015610ef657610ef090612540565b92610e69565b5061050283604051938493635812992d60e11b8552600485016124f2565b7fbf5144194c2fdeb5c38f988f8fc115ccb60cd44df98443be9cce2808f35133bc6020838060005260678252600019604060002055606a825260006040812055604051908152a1005b604051635812992d60e11b81529384935061050292600485016124f2565b3461054657610f89366121a3565b610f9282612ad0565b6020810151151590816110d3575b506110bb57610fad612445565b81600052606760205260016040600020015480156110915760011c600181018091116105f757811061106057816000526067602052806040600020541461102f57816040917fa9b994c5f360eb267c36dec4b76776cae1c2f79cf0b3863baf389a499a6d689a93600052606760205280836000205582519182526020820152a1005b602490604051907f36b7bd8f0000000000000000000000000000000000000000000000000000000082526004820152fd5b602490604051907f651a749b0000000000000000000000000000000000000000000000000000000082526004820152fd5b60046040517f1741ad92000000000000000000000000000000000000000000000000000000008152fd5b60248260405190632dc5633f60e11b82526004820152fd5b905051151583610fa0565b34610546576106cf6110ef366123df565b906128ba565b34610546576020610764611108366121a3565b61111481839493612b34565b92612867565b611123366121cf565b90916001600160a01b03928361113984846129b9565b5116156113ef57816000526020606b81526040600020938581169485600052825260016040600020015434106113ad5783600052606b8252604060002085600052825260ff6040600020541661137c57611194818486612570565b9586600052606c83526040600020541661132b5783600052606a8252604060002054606b83526040600020866000528352600360406000200154856000526069845260406000205490606b8552604060002088600052855260026040600020015486109283156112f2575b5082156112b9575b5050611274575084600052606c81526040600020336001600160a01b03198254161781554260018201556002349101556040519485528401524260408401523460608401527f3c76df9f72b14079abf737d2427a5793d7e89089be7d17c3508f04dc9e8344e560803394a4005b6040517fc7ceed230000000000000000000000000000000000000000000000000000000081526001600160a01b03919091166004820152602481019290925250604490fd5b801515925090826112e8575b826112d4575b50508780611207565b6112de92506124e5565b83111587806112cb565b81811192506112c5565b8091935015159081611320575b8161130d575b5091896111ff565b905061131982876124e5565b1189611305565b8287101591506112ff565b6040517fedcc16010000000000000000000000000000000000000000000000000000000081526004810187905260248101949094526044840192909252506001600160a01b03166064820152608490fd5b602485604051907f6a52b7940000000000000000000000000000000000000000000000000000000082526004820152fd5b6040517fe309554f0000000000000000000000000000000000000000000000000000000081526001600160a01b03919091166004820152346024820152604490fd5b602483856040519163950764a360e01b8352166004820152fd5b346105465760203660031901126105465760043560005260696020526020604060002054604051908152f35b3461054657611443366123df565b90600019908161145282612ad0565b510361167457611460612445565b80600052606792602092848452600180604060002001541561165c57825115610ad557839291906000815b6114f0575b5050506114ca7f445aa3dd0c2baa28306a020b0ad28802dac8ce56b94bf9ae2521afa90f855bfb91604051918291878352878301906123a2565b0390a2816114d782612ad0565b0151156114e057005b6000525260006040812055600080f35b90919293845182101561165557506001600160a01b0380611511838761254f565b51168015801561164c575b61163457866000526066808952604060002082600052895260406000209280866040519561154987612231565b8281541687520154168a8501908082521561161c57819051169351169288600052818a526040600020816000528a526040600020936001600160a01b031994818682541617905589600052828b526040600020906000528a52856040600020019084825416179055876000528089526040600020826000528952846040600020018381541690558760005288526040600020906000528752604060002090815416905584600052868652816040600020019081549081156105f75783928561161393019055612540565b8594939261148b565b6024846040519063950764a360e01b82526004820152fd5b60249060405190633283c86d60e21b82526004820152fd5b5083811461151c565b9392611490565b6024846040519063cf9349b160e01b82526004820152fd5b60046040517f8570eaf5000000000000000000000000000000000000000000000000000000008152fd5b346105465760003660031901126105465760206001600160a01b0360335416604051908152f35b34610546576020366003190112610546576116f86116e4600435612a0f565b6040519182916020835260208301906123a2565b0390f35b3461054657602036600319011261054657600435600052606a6020526020604060002054604051908152f35b3461054657606036600319011261054657602460043567ffffffffffffffff82358181116105465761175e903690600401612287565b90604435908111610546576117779036906004016122f5565b9161178181612ad0565b9360209485810151151590816119d5575b506119bf5761179f612445565b816000526066908186526040600020916001928360005287526001600160a01b03918284604060002001541615611970575b855115610ad55790916000845b611820575b6106cf888888807fded0d38026c6e9ca7e2ee1647ae6f70e2306bcc9dcabbb9888888683513e16096109778f6040519181839283528201876123a2565b865181101561196b5781611834828961254f565b511680158015611962575b61194b5786600052848a526040600020816000528a52828660406000200154166119345785949392918a61192b9289600052868252604060002088600052825284604060002054168a60005287835260406000208160005283528789604060002001936001600160a01b03199484868254161790558c600052528d60406000209083600052526040600020908382541617905589600052868d526040600020886000528d526040600020818382541617905589600052868d526040600020906000528c528680604060002001918254161790558760005260678b5285604060002001610a898154612540565b909192936117de565b839060405190635bdca25960e11b82526004820152fd5b839060405190633283c86d60e21b82526004820152fd5b5085811461183f565b6117e3565b846000528188526040600020846000528852836040600020016001600160a01b0319908582825416179055856000528289526040600020856000528952846040600020918254161790556117d1565b9060405190632dc5633f60e11b82526004820152fd5b905051151586611792565b34610546576000366003190112610546576119f9612445565b60006001600160a01b036033546001600160a01b03198116603355167f8be0079c531659141344cd1fd0a4f28419497f9722a3daafe3b4186f6b6457e08280a3005b34610546576020366003190112610546576004356001600160a01b0380821680920361054657611a7260ff60005460081c16612683565b611a7a612445565b8160655491821614611abc576001600160a01b03191681176065557f1e44815867bf36700178046dec2874b58492fa049a6775df578903717bb05b35600080a2005b602482604051907f463603370000000000000000000000000000000000000000000000000000000082526004820152fd5b34610546576020366003190112610546576004356001600160a01b0381168091036105465760207f32b3ac230a658ab5610f52a0663b04da86f41860736f6610f0db3d50e37bb8c191611b3e612445565b806001600160a01b03196068541617606855604051908152a1005b34610546576020806003193601126105465767ffffffffffffffff906004358281116105465736602382011215610546578060040135928311611e1d5760405192611bad601f8201601f191684018561224d565b808452828401913660248383010111610546578160009260248693018537850101526000549060ff8260081c161591828093611e10575b8015611df9575b15611d8f5760ff19811660011760005582611d7d575b506040848051810103126105465751926001600160a01b039081851680950361054657604001519080821680920361054657611c4d60ff60005460081c16611c4881612683565b612683565b611c563361249d565b611c6760ff60005460081c16612683565b611c6f612445565b8160655491821614611abc576001600160a01b0319168117606555807f1e44815867bf36700178046dec2874b58492fa049a6775df578903717bb05b35600080a2611cb8612445565b8315611d2a57611cc78461249d565b604051937f45acd56f401dc3db1d520e5e214f090b4ab3e3fbf42fd24596cb511edaad876a600080a3611cf657005b7f7f26b83ff96e1f2b6a682f133852f6798a09c465da95921460cefb38474024989161ff00196000541660005560018152a1005b6084836040519062461bcd60e51b82526004820152602660248201527f4f776e61626c653a206e6577206f776e657220697320746865207a65726f206160448201526564647265737360d01b6064820152fd5b61ffff19166101011760005584611c01565b6084846040519062461bcd60e51b82526004820152602e60248201527f496e697469616c697a61626c653a20636f6e747261637420697320616c72656160448201527f647920696e697469616c697a65640000000000000000000000000000000000006064820152fd5b50303b158015611beb5750600160ff821614611beb565b50600160ff821610611be4565b634e487b7160e01b600052604160045260246000fd5b3461054657602036600319011261054657600060408051611e5381612215565b8281528260208201520152600435600052606c60205260606040600020604051611e7c81612215565b6001600160a01b0382541691828252604060026001830154926020850193845201549201918252604051928352516020830152516040820152f35b3461054657604036600319011261054657611ed06121b9565b60006080604051611ee0816121f9565b8281528260208201528260408201528260608201520152600435600052606b6020526001600160a01b036040600020911660005260205260a06040600020600460405191611f2d836121f9565b60ff8154161515835260018101546020840152600281015460408401526003810154606084015201546080820152611f926040518092608080918051151584526020810151602085015260408101516040850152606081015160608501520151910152565bf35b34610546576020610764611fa7366121cf565b91612570565b346105465760003660031901126105465760206001600160a01b0360685416604051908152f35b3461054657611fe2366121a3565b611fea612445565b81600052606a60205260406000205461203e57816040917fa183d22d23acca5ca994a967f4fe426238a7f86715b07e8080fa21d586c2d48493600052606a60205280836000205582519182526020820152a1005b602482604051907f728f71140000000000000000000000000000000000000000000000000000000082526004820152fd5b3461054657602036600319011261054657604061208d600435612ad0565b60208251918051835201516020820152f35b346105465760203660031901126105465760406120bd600435612b0f565b82519182526020820152f35b34610546576120d7366121a3565b906120e181612a0f565b906120eb81612b0f565b1561218b5782511061217a576020612126926001600160a01b03606554166040518080968194633ab489d560e21b83528988600485016124f2565b03915afa91821561039e57600092612146575b5060209261076491612867565b9091506020813d8211612172575b816121616020938361224d565b810103126105465751906020612139565b3d9150612154565b60046040516359fa4a9360e01b8152fd5b6024826040519063cf9349b160e01b82526004820152fd5b6040906003190112610546576004359060243590565b602435906001600160a01b038216820361054657565b60609060031901126105465760043590602435906044356001600160a01b03811681036105465790565b60a0810190811067ffffffffffffffff821117611e1d57604052565b6060810190811067ffffffffffffffff821117611e1d57604052565b6040810190811067ffffffffffffffff821117611e1d57604052565b90601f8019910116810190811067ffffffffffffffff821117611e1d57604052565b67ffffffffffffffff8111611e1d5760051b60200190565b81601f820112156105465780359161229e8361226f565b926122ac604051948561224d565b808452602092838086019260051b820101928311610546578301905b8282106122d6575050505090565b81356001600160a01b03811681036105465781529083019083016122c8565b81601f820112156105465780359061230c8261226f565b9260409061231c8251958661224d565b838552602091828601918360a080970286010194818611610546578401925b85841061234c575050505050505090565b868483031261054657825190612361826121f9565b8435908115158203610546578287928a945282870135838201528587013586820152606080880135908201526080808801359082015281520193019261233b565b90815180825260208080930193019160005b8281106123c2575050505090565b83516001600160a01b0316855293810193928101926001016123b4565b90604060031983011261054657600435916024359067ffffffffffffffff82116105465761240f91600401612287565b90565b60606003198201126105465760043591602435916044359067ffffffffffffffff82116105465761240f91600401612287565b6001600160a01b0360335416330361245957565b606460405162461bcd60e51b815260206004820152602060248201527f4f776e61626c653a2063616c6c6572206973206e6f7420746865206f776e65726044820152fd5b603354906001600160a01b0380911691826001600160a01b0319821617603355167f8be0079c531659141344cd1fd0a4f28419497f9722a3daafe3b4186f6b6457e0600080a3565b919082039182116105f757565b61240f93926060928252602082015281604082015201906123a2565b906125188261226f565b612525604051918261224d565b8281528092612536601f199161226f565b0190602036910137565b60001981146105f75760010190565b80518210156105065760209160051b010190565b919082018092116105f757565b91604051916020830193845260408301526bffffffffffffffffffffffff199060601b166060820152605481526080810181811067ffffffffffffffff821117611e1d5760405251902090565b92916125c884612b0f565b825115610ad5571561266b5781511061217a576020816125eb61261493876128ba565b6001600160a01b03606554166040518080958194633ab489d560e21b8352888b600485016124f2565b03915afa90811561039e57600091612635575b50906126339193612867565b565b906020823d8211612663575b8161264e6020938361224d565b81010312612660575051612633612627565b80fd5b3d9150612641565b6024856040519063cf9349b160e01b82526004820152fd5b1561268a57565b608460405162461bcd60e51b815260206004820152602b60248201527f496e697469616c697a61626c653a20636f6e7472616374206973206e6f74206960448201527f6e697469616c697a696e670000000000000000000000000000000000000000006064820152fd5b9291908051825103610ccc5760005b815181101561286057807f13fd92442ed93bfb53312f7fd027f95fcdf1c5029e15ed7c7648788db1766a2c60e06001600160a01b0361274561285b958761254f565b511688600052612855606b91602092808452604090816000208360005285528160002060ff1981541690558461277b898d61254f565b5101518d600052818652826000208460005286526001836000200155816127a2898d61254f565b5101518d60005281865282600020846000528652600283600020015560606127ca898d61254f565b5101518d60005281865282600020846000528652600383600020015560806127f2898d61254f565b510151908d6000528552816000208360005285526004826000200155612818878b61254f565b51918151948d8652850152830190608080918051151584526020810151602085015260408101516040850152606081015160608501520151910152565ba1612540565b612703565b5050509050565b6040907fc92bff37c4eb8ced74b70d4b27108870f738906225374b9b4cd761414e57dc86928160005260696020528083600020805482116128b2575b505082519182526020820152a1565b5580386128a3565b60005b82518110156129b4576001600160a01b03806128d9838661254f565b51169082151580612992575b612936578360005260209060668252604091826000209084600052526001826000200154161561291f57505061291a90612540565b6128bd565b602492505190633283c86d60e21b82526004820152fd5b8460001984018481116105f75761294c9161254f565b516040517fe3d493170000000000000000000000000000000000000000000000000000000081526001600160a01b03938416600482015291169091166024820152604490fd5b5060001983018381116105f7576129aa82918761254f565b51168211156128e5565b505050565b602060409182516129c981612231565b60009281848093520152815260666020528181206001600160a01b03809416825260205220906001604051926129fe84612231565b828154168452015416602082015290565b600090808252602060678152600191604083818620015494612a308661226f565b95612a3d8351978861224d565b808752612a4c601f199161226f565b0136858801378281528460669485815283832082845281526001600160a01b039586838686200154169584935b612a8a575b50505050505050505090565b8951841015612acb57889688612aa0868d61254f565b91168091528186528284528686209086528352612ac4888888882001541694612540565b9396612a79565b612a7e565b60006020604051612ae081612231565b828152015260005260676020526040600020600160405191612b0183612231565b805483520154602082015290565b600052606760205260406000209060018254920154918015612b2f579190565b508190565b91612b3e83612a0f565b91612b4884612b0f565b9390931561266b578381511061217a57612b62815161250e565b9260005b8251811015612c11576001600160a01b03612b81828561254f565b5116906040805180936306e1541160e21b82528a600483015287602483015281604460209687935afa918215612c075750600091612bd5575b50612bd09250612bca828861254f565b52612540565b612b66565b919282813d8311612c00575b612beb818361224d565b81010312612660575090612bd0915138612bba565b503d612be1565b513d6000823e3d90fd5b50945050506000905b805180831015612ccb5783612c2e916124e5565b8211612cb657612c3e828261254f565b51928315612caa576000835b8351811015612c9657612c5d818561254f565b518614612c73575b612c6e90612540565b612c4a565b90612c7d90612540565b90828203612c6557505050612c92925061254f565b5190565b5050925090612ca490612540565b90612c1a565b925090612ca490612540565b5050505060046040516359fa4a9360e01b8152fd5b505050505061217a56fea2646970667358221220229dcef813691c1b0c02320ab13943e5911a6e56f45581538a7f8c62013790be64736f6c63430008140033",
  "devdoc": {
    "kind": "dev",
    "methods": {},
    "version": 1
  },
  "userdoc": {
    "kind": "user",
    "methods": {},
    "version": 1
  },
  "storageLayout": {
    "storage": [
      {
        "astId": 2000,
        "contract": "contracts/ETFIssuingChain.sol:ETFIssuingChain",
        "label": "latestCommitment",
        "offset": 0,
        "slot": "0",
        "type": "t_bytes32"
      },
      {
        "astId": 2002,
        "contract": "contracts/ETFIssuingChain.sol:ETFIssuingChain",
        "label": "sideChainLock",
        "offset": 0,
        "slot": "1",
        "type": "t_address"
      },
      {
        "astId": 2004,
        "contract": "contracts/ETFIssuingChain.sol:ETFIssuingChain",
        "label": "sideChainId",
        "offset": 20,
        "slot": "1",
        "type": "t_uint32"
      },
      {
        "astId": 2008,
        "contract": "contracts/ETFIssuingChain.sol:ETFIssuingChain",
        "label": "requiredTokens",
        "offset": 0,
        "slot": "2",
        "type": "t_array(t_struct(TokenQuantity)1969_storage)dyn_storage"
      },
      {
        "astId": 2013,
        "contract": "contracts/ETFIssuingChain.sol:ETFIssuingChain",
        "label": "addressToToken",
        "offset": 0,
        "slot": "3",
        "type": "t_mapping(t_address,t_struct(TokenQuantity)1969_storage)"
      },
      {
        "astId": 2015,
        "contract": "contracts/ETFIssuingChain.sol:ETFIssuingChain",
        "label": "chainId",
        "offset": 0,
        "slot": "4",
        "type": "t_uint32"
      },
      {
        "astId": 2017,
        "contract": "contracts/ETFIssuingChain.sol:ETFIssuingChain",
        "label": "mainChainId",
        "offset": 4,
        "slot": "4",
        "type": "t_uint32"
      },
      {
        "astId": 2020,
        "contract": "contracts/ETFIssuingChain.sol:ETFIssuingChain",
        "label": "receivedMessages",
        "offset": 0,
        "slot": "5",
        "type": "t_array(t_uint32)dyn_storage"
      },
      {
        "astId": 2022,
        "contract": "contracts/ETFIssuingChain.sol:ETFIssuingChain",
        "label": "mainChainLock",
        "offset": 0,
        "slot": "6",
        "type": "t_address"
      },
      {
        "astId": 2025,
        "contract": "contracts/ETFIssuingChain.sol:ETFIssuingChain",
        "label": "outbox",
        "offset": 0,
        "slot": "7",
        "type": "t_contract(IMailbox)247"
      },
      {
        "astId": 2028,
        "contract": "contracts/ETFIssuingChain.sol:ETFIssuingChain",
        "label": "securityModule",
        "offset": 0,
        "slot": "8",
        "type": "t_contract(IInterchainSecurityModule)73"
      },
      {
        "astId": 2031,
        "contract": "contracts/ETFIssuingChain.sol:ETFIssuingChain",
        "label": "proverSlotZero",
        "offset": 0,
        "slot": "9",
        "type": "t_contract(Prover)4223"
      },
      {
        "astId": 2033,
        "contract": "contracts/ETFIssuingChain.sol:ETFIssuingChain",
        "label": "hashi",
        "offset": 0,
        "slot": "10",
        "type": "t_address"
      },
      {
        "astId": 2036,
        "contract": "contracts/ETFIssuingChain.sol:ETFIssuingChain",
        "label": "adapter",
        "offset": 0,
        "slot": "11",
        "type": "t_contract(IAdapter)4360"
      },
      {
        "astId": 2039,
        "contract": "contracts/ETFIssuingChain.sol:ETFIssuingChain",
        "label": "reporter",
        "offset": 0,
        "slot": "12",
        "type": "t_contract(IReporter)4940"
      },
      {
        "astId": 2042,
        "contract": "contracts/ETFIssuingChain.sol:ETFIssuingChain",
        "label": "yaho",
        "offset": 0,
        "slot": "13",
        "type": "t_contract(IYaho)5253"
      },
      {
        "astId": 2045,
        "contract": "contracts/ETFIssuingChain.sol:ETFIssuingChain",
        "label": "giriGiriBashi",
        "offset": 0,
        "slot": "14",
        "type": "t_contract(GiriGiriBashi)6487"
      },
      {
        "astId": 2047,
        "contract": "contracts/ETFIssuingChain.sol:ETFIssuingChain",
        "label": "etfToken",
        "offset": 0,
        "slot": "15",
        "type": "t_address"
      },
      {
        "astId": 2049,
        "contract": "contracts/ETFIssuingChain.sol:ETFIssuingChain",
        "label": "etfTokenPerVault",
        "offset": 0,
        "slot": "16",
        "type": "t_uint256"
      },
      {
        "astId": 2052,
        "contract": "contracts/ETFIssuingChain.sol:ETFIssuingChain",
        "label": "THRESHOLD",
        "offset": 0,
        "slot": "17",
        "type": "t_uint256"
      },
      {
        "astId": 2055,
        "contract": "contracts/ETFIssuingChain.sol:ETFIssuingChain",
        "label": "nonce",
        "offset": 0,
        "slot": "18",
        "type": "t_uint256"
      },
      {
        "astId": 2060,
        "contract": "contracts/ETFIssuingChain.sol:ETFIssuingChain",
        "label": "contributorsByVault",
        "offset": 0,
        "slot": "19",
        "type": "t_mapping(t_uint256,t_array(t_address)dyn_storage)"
      },
      {
        "astId": 2066,
        "contract": "contracts/ETFIssuingChain.sol:ETFIssuingChain",
        "label": "accountContributionsPerVault",
        "offset": 0,
        "slot": "20",
        "type": "t_mapping(t_uint256,t_mapping(t_address,t_uint256))"
      },
      {
        "astId": 2083,
        "contract": "contracts/ETFIssuingChain.sol:ETFIssuingChain",
        "label": "vaults",
        "offset": 0,
        "slot": "21",
        "type": "t_mapping(t_uint256,t_struct(Vault)1977_storage)"
      }
    ],
    "types": {
      "t_address": {
        "encoding": "inplace",
        "label": "address",
        "numberOfBytes": "20"
      },
      "t_array(t_address)dyn_storage": {
        "base": "t_address",
        "encoding": "dynamic_array",
        "label": "address[]",
        "numberOfBytes": "32"
      },
      "t_array(t_struct(TokenQuantity)1969_storage)dyn_storage": {
        "base": "t_struct(TokenQuantity)1969_storage",
        "encoding": "dynamic_array",
        "label": "struct TokenQuantity[]",
        "numberOfBytes": "32"
      },
      "t_array(t_uint32)dyn_storage": {
        "base": "t_uint32",
        "encoding": "dynamic_array",
        "label": "uint32[]",
        "numberOfBytes": "32"
      },
      "t_bytes32": {
        "encoding": "inplace",
        "label": "bytes32",
        "numberOfBytes": "32"
      },
      "t_contract(GiriGiriBashi)6487": {
        "encoding": "inplace",
        "label": "contract GiriGiriBashi",
        "numberOfBytes": "20"
      },
      "t_contract(IAdapter)4360": {
        "encoding": "inplace",
        "label": "contract IAdapter",
        "numberOfBytes": "20"
      },
      "t_contract(IInterchainSecurityModule)73": {
        "encoding": "inplace",
        "label": "contract IInterchainSecurityModule",
        "numberOfBytes": "20"
      },
      "t_contract(IMailbox)247": {
        "encoding": "inplace",
        "label": "contract IMailbox",
        "numberOfBytes": "20"
      },
      "t_contract(IReporter)4940": {
        "encoding": "inplace",
        "label": "contract IReporter",
        "numberOfBytes": "20"
      },
      "t_contract(IYaho)5253": {
        "encoding": "inplace",
        "label": "contract IYaho",
        "numberOfBytes": "20"
      },
      "t_contract(Prover)4223": {
        "encoding": "inplace",
        "label": "contract Prover",
        "numberOfBytes": "20"
      },
      "t_enum(VaultState)1982": {
        "encoding": "inplace",
        "label": "enum VaultState",
        "numberOfBytes": "1"
      },
      "t_mapping(t_address,t_struct(TokenQuantity)1969_storage)": {
        "encoding": "mapping",
        "key": "t_address",
        "label": "mapping(address => struct TokenQuantity)",
        "numberOfBytes": "32",
        "value": "t_struct(TokenQuantity)1969_storage"
      },
      "t_mapping(t_address,t_uint256)": {
        "encoding": "mapping",
        "key": "t_address",
        "label": "mapping(address => uint256)",
        "numberOfBytes": "32",
        "value": "t_uint256"
      },
      "t_mapping(t_uint256,t_array(t_address)dyn_storage)": {
        "encoding": "mapping",
        "key": "t_uint256",
        "label": "mapping(uint256 => address[])",
        "numberOfBytes": "32",
        "value": "t_array(t_address)dyn_storage"
      },
      "t_mapping(t_uint256,t_mapping(t_address,t_uint256))": {
        "encoding": "mapping",
        "key": "t_uint256",
        "label": "mapping(uint256 => mapping(address => uint256))",
        "numberOfBytes": "32",
        "value": "t_mapping(t_address,t_uint256)"
      },
      "t_mapping(t_uint256,t_struct(Vault)1977_storage)": {
        "encoding": "mapping",
        "key": "t_uint256",
        "label": "mapping(uint256 => struct Vault)",
        "numberOfBytes": "32",
        "value": "t_struct(Vault)1977_storage"
      },
      "t_struct(TokenQuantity)1969_storage": {
        "encoding": "inplace",
        "label": "struct TokenQuantity",
        "members": [
          {
            "astId": 1960,
            "contract": "contracts/ETFIssuingChain.sol:ETFIssuingChain",
            "label": "_address",
            "offset": 0,
            "slot": "0",
            "type": "t_address"
          },
          {
            "astId": 1962,
            "contract": "contracts/ETFIssuingChain.sol:ETFIssuingChain",
            "label": "_quantity",
            "offset": 0,
            "slot": "1",
            "type": "t_uint256"
          },
          {
            "astId": 1964,
            "contract": "contracts/ETFIssuingChain.sol:ETFIssuingChain",
            "label": "_chainId",
            "offset": 0,
            "slot": "2",
            "type": "t_uint32"
          },
          {
            "astId": 1966,
            "contract": "contracts/ETFIssuingChain.sol:ETFIssuingChain",
            "label": "_contributor",
            "offset": 4,
            "slot": "2",
            "type": "t_address"
          },
          {
            "astId": 1968,
            "contract": "contracts/ETFIssuingChain.sol:ETFIssuingChain",
            "label": "_aggregator",
            "offset": 0,
            "slot": "3",
            "type": "t_address"
          }
        ],
        "numberOfBytes": "128"
      },
      "t_struct(Vault)1977_storage": {
        "encoding": "inplace",
        "label": "struct Vault",
        "members": [
          {
            "astId": 1973,
            "contract": "contracts/ETFIssuingChain.sol:ETFIssuingChain",
            "label": "_tokens",
            "offset": 0,
            "slot": "0",
            "type": "t_array(t_struct(TokenQuantity)1969_storage)dyn_storage"
          },
          {
            "astId": 1976,
            "contract": "contracts/ETFIssuingChain.sol:ETFIssuingChain",
            "label": "state",
            "offset": 0,
            "slot": "1",
            "type": "t_enum(VaultState)1982"
          }
        ],
        "numberOfBytes": "64"
      },
      "t_uint256": {
        "encoding": "inplace",
        "label": "uint256",
        "numberOfBytes": "32"
      },
      "t_uint32": {
        "encoding": "inplace",
        "label": "uint32",
        "numberOfBytes": "4"
      }
    }
  }
}