{
  "address": "0x6869B0EbdC183Ab4cFc297B32214B21A417E76B2",
  "abi": [
    {
      "inputs": [
        {
          "internalType": "address",
          "name": "hyperlaneMailbox",
          "type": "address"
        },
        {
          "internalType": "contract IInterchainSecurityModule",
          "name": "_securityModule",
          "type": "address"
        }
      ],
      "stateMutability": "nonpayable",
      "type": "constructor"
    },
    {
      "inputs": [
        {
          "internalType": "uint256",
          "name": "blockNumber",
          "type": "uint256"
        },
        {
          "internalType": "bytes32",
          "name": "blockHash",
          "type": "bytes32"
        },
        {
          "internalType": "bytes32",
          "name": "storedBlockHash",
          "type": "bytes32"
        }
      ],
      "name": "ConflictingBlockHeader",
      "type": "error"
    },
    {
      "inputs": [
        {
          "internalType": "uint256",
          "name": "length",
          "type": "uint256"
        }
      ],
      "name": "InvalidBlockHeaderLength",
      "type": "error"
    },
    {
      "inputs": [],
      "name": "InvalidBlockHeaderRLP",
      "type": "error"
    },
    {
      "inputs": [],
      "name": "UnauthorizedHyperlaneReceive",
      "type": "error"
    },
    {
      "anonymous": false,
      "inputs": [
        {
          "indexed": true,
          "internalType": "uint256",
          "name": "id",
          "type": "uint256"
        },
        {
          "indexed": true,
          "internalType": "bytes32",
          "name": "hash",
          "type": "bytes32"
        }
      ],
      "name": "HashStored",
      "type": "event"
    },
    {
      "anonymous": false,
      "inputs": [
        {
          "indexed": true,
          "internalType": "address",
          "name": "previousOwner",
          "type": "address"
        },
        {
          "indexed": true,
          "internalType": "address",
          "name": "newOwner",
          "type": "address"
        }
      ],
      "name": "OwnershipTransferred",
      "type": "event"
    },
    {
      "anonymous": false,
      "inputs": [
        {
          "indexed": true,
          "internalType": "uint256",
          "name": "chainId",
          "type": "uint256"
        },
        {
          "indexed": true,
          "internalType": "uint32",
          "name": "domain",
          "type": "uint32"
        },
        {
          "indexed": true,
          "internalType": "bytes32",
          "name": "reporter",
          "type": "bytes32"
        }
      ],
      "name": "ReporterSet",
      "type": "event"
    },
    {
      "inputs": [],
      "name": "HYPERLANE_MAILBOX",
      "outputs": [
        {
          "internalType": "address",
          "name": "",
          "type": "address"
        }
      ],
      "stateMutability": "view",
      "type": "function"
    },
    {
      "inputs": [],
      "name": "PROVIDER",
      "outputs": [
        {
          "internalType": "string",
          "name": "",
          "type": "string"
        }
      ],
      "stateMutability": "view",
      "type": "function"
    },
    {
      "inputs": [
        {
          "internalType": "uint32",
          "name": "",
          "type": "uint32"
        }
      ],
      "name": "chainIds",
      "outputs": [
        {
          "internalType": "uint256",
          "name": "",
          "type": "uint256"
        }
      ],
      "stateMutability": "view",
      "type": "function"
    },
    {
      "inputs": [
        {
          "internalType": "uint32",
          "name": "",
          "type": "uint32"
        }
      ],
      "name": "enabledReporters",
      "outputs": [
        {
          "internalType": "bytes32",
          "name": "",
          "type": "bytes32"
        }
      ],
      "stateMutability": "view",
      "type": "function"
    },
    {
      "inputs": [
        {
          "internalType": "uint256",
          "name": "domain",
          "type": "uint256"
        },
        {
          "internalType": "uint256",
          "name": "id",
          "type": "uint256"
        }
      ],
      "name": "getHash",
      "outputs": [
        {
          "internalType": "bytes32",
          "name": "",
          "type": "bytes32"
        }
      ],
      "stateMutability": "view",
      "type": "function"
    },
    {
      "inputs": [
        {
          "internalType": "uint32",
          "name": "origin",
          "type": "uint32"
        },
        {
          "internalType": "bytes32",
          "name": "sender",
          "type": "bytes32"
        },
        {
          "internalType": "bytes",
          "name": "message",
          "type": "bytes"
        }
      ],
      "name": "handle",
      "outputs": [],
      "stateMutability": "payable",
      "type": "function"
    },
    {
      "inputs": [],
      "name": "interchainSecurityModule",
      "outputs": [
        {
          "internalType": "contract IInterchainSecurityModule",
          "name": "",
          "type": "address"
        }
      ],
      "stateMutability": "view",
      "type": "function"
    },
    {
      "inputs": [],
      "name": "owner",
      "outputs": [
        {
          "internalType": "address",
          "name": "",
          "type": "address"
        }
      ],
      "stateMutability": "view",
      "type": "function"
    },
    {
      "inputs": [
        {
          "internalType": "uint256",
          "name": "chainId",
          "type": "uint256"
        },
        {
          "internalType": "bytes[]",
          "name": "blockHeaders",
          "type": "bytes[]"
        }
      ],
      "name": "proveAncestralBlockHashes",
      "outputs": [],
      "stateMutability": "nonpayable",
      "type": "function"
    },
    {
      "inputs": [],
      "name": "renounceOwnership",
      "outputs": [],
      "stateMutability": "nonpayable",
      "type": "function"
    },
    {
      "inputs": [],
      "name": "securityModule",
      "outputs": [
        {
          "internalType": "contract IInterchainSecurityModule",
          "name": "",
          "type": "address"
        }
      ],
      "stateMutability": "view",
      "type": "function"
    },
    {
      "inputs": [
        {
          "internalType": "uint256",
          "name": "chainId",
          "type": "uint256"
        },
        {
          "internalType": "uint32",
          "name": "domain",
          "type": "uint32"
        },
        {
          "internalType": "bytes32",
          "name": "reporter",
          "type": "bytes32"
        }
      ],
      "name": "setReporterByChain",
      "outputs": [],
      "stateMutability": "nonpayable",
      "type": "function"
    },
    {
      "inputs": [
        {
          "internalType": "address",
          "name": "newOwner",
          "type": "address"
        }
      ],
      "name": "transferOwnership",
      "outputs": [],
      "stateMutability": "nonpayable",
      "type": "function"
    }
  ],
  "transactionHash": "0xc95076d3db7dc9391264c45ca97a225e2e5fa98c5a042dfa09ee2dc7c5fecedf",
  "args": [
    "0xfFAEF09B3cd11D9b20d1a19bECca54EEC2884766",
    "0xa717195377ad63B5EF830548492878ED9A1528D0"
  ],
  "numDeployments": 2,
  "solcInputHash": "bfafa734c4c6b5f46d9d0a7a2a8cfcda",
  "bytecode": "0x60c0346100c857601f610f4e38819003918201601f19168301916001600160401b038311848410176100cd5780849260409485528339810103126100c85780516001600160a01b039182821682036100c8576020015182811681036100c85760018054336001600160a01b03198216811790925560405194167f8be0079c531659141344cd1fd0a4f28419497f9722a3daafe3b4186f6b6457e0600080a360a052608052610e6a90816100e482396080518181816102e00152610533015260a051816102520152f35b600080fd5b634e487b7160e01b600052604160045260246000fdfe6080604052600436101561001257600080fd5b60003560e01c8062d34411146100e15780631b855044146100dc578063380ef3fe146100b957806356d5d475146100d75780636558b681146100d2578063715018a6146100cd5780638da5cb5b146100c85780639c475207146100c3578063c751fbfb146100be578063de523cf3146100b9578063e53091b7146100b4578063e81900a6146100af5763f2fde38b146100aa57600080fd5b6106b1565b6105e3565b610557565b610232565b610513565b6104dc565b6104b5565b610449565b610412565b610289565b6101f8565b610163565b634e487b7160e01b600052604160045260246000fd5b604051906040820182811067ffffffffffffffff82111761011c57604052565b6100e6565b6040519190601f01601f1916820167ffffffffffffffff81118382101761011c57604052565b67ffffffffffffffff811161011c57601f01601f191660200190565b346101f35760003660031901126101f35761017c6100fc565b6009815260207f68797065726c616e650000000000000000000000000000000000000000000000818301526040908151928184928352815191828285015260005b8381106101dd575050600083830185015250601f01601f19168101030190f35b81810183015187820187015286945082016101bd565b600080fd5b346101f35760403660031901126101f357600435600052600060205260406000206024356000526020526020604060002054604051908152f35b346101f35760003660031901126101f35760206040516001600160a01b037f0000000000000000000000000000000000000000000000000000000000000000168152f35b6004359063ffffffff821682036101f357565b60603660031901126101f35761029d610276565b60443567ffffffffffffffff8082116101f357366023830112156101f35781600401358181116101f35782019060248201903682116101f3576001600160a01b037f00000000000000000000000000000000000000000000000000000000000000001633148015906103f2575b6103c85763ffffffff60009516855260209160038352604085818820549503126103ad5760248501358281116103c457850192816043850112156103c45760248401359361035f61035a866105cb565b610121565b9460448387838152019160051b830101918483116103c057604401905b8282106103b1575050505060448501359182116103ad5760246103a4926103aa960101610aac565b91610b02565b80f35b8580fd5b8135815290830190830161037c565b8980fd5b8680fd5b60046040517ff920c49e000000000000000000000000000000000000000000000000000000008152fd5b5063ffffffff85166000526002602052602435604060002054141561030a565b346101f35760203660031901126101f35763ffffffff610430610276565b1660005260036020526020604060002054604051908152f35b346101f3576000806003193601126104b257610463610756565b806001600160a01b0360015473ffffffffffffffffffffffffffffffffffffffff198116600155167f8be0079c531659141344cd1fd0a4f28419497f9722a3daafe3b4186f6b6457e08280a380f35b80fd5b346101f35760003660031901126101f35760206001600160a01b0360015416604051908152f35b346101f35760203660031901126101f35763ffffffff6104fa610276565b1660005260026020526020604060002054604051908152f35b346101f35760003660031901126101f35760206040516001600160a01b037f0000000000000000000000000000000000000000000000000000000000000000168152f35b346101f35760603660031901126101f35760043560243563ffffffff81168091036101f35760443590610588610756565b600092818452600260205282604085205560036020528060408520557f33650c025ba183d07fb1e4533c7f06438835fff96b46d07d6112ed2dda6149ba8480a480f35b67ffffffffffffffff811161011c5760051b60200190565b346101f35760403660031901126101f357602467ffffffffffffffff81358181116101f357366023820112156101f35780600401359261062561035a856105cb565b9384938186528260208097019260051b850101933685116101f357838101925b85841061065a57610658876004356108c5565b005b83358381116101f357820190366043830112156101f357858201359061068261035a83610147565b828152604493368585830101116101f3578b848196958296600094018386013783010152815201930192610645565b346101f35760203660031901126101f3576004356001600160a01b0381168082036101f3576106de610756565b156106ec57610658906107ae565b608460405162461bcd60e51b815260206004820152602660248201527f4f776e61626c653a206e6577206f776e657220697320746865207a65726f206160448201527f64647265737300000000000000000000000000000000000000000000000000006064820152fd5b6001600160a01b0360015416330361076a57565b606460405162461bcd60e51b815260206004820152602060248201527f4f776e61626c653a2063616c6c6572206973206e6f7420746865206f776e65726044820152fd5b600154906001600160a01b03809116918273ffffffffffffffffffffffffffffffffffffffff19821617600155167f8be0079c531659141344cd1fd0a4f28419497f9722a3daafe3b4186f6b6457e0600080a3565b634e487b7160e01b600052601160045260246000fd5b60001981146108285760010190565b610803565b634e487b7160e01b600052603260045260246000fd5b8051156108505760200190565b61082d565b805160081015610850576101200190565b80518210156108505760209160051b010190565b60001981019190821161082857565b60bf1981019190821161082857565b607f1981019190821161082857565b60f61981019190821161082857565b60b61981019190821161082857565b91909160005b8351811015610a3e576108e76108e18286610866565b51610b57565b6108f76108f382610c65565b1590565b610a145761090490610b9c565b8051600f81108015610a0a575b6109d7575061093461092861092e61092884610843565b51610c8c565b92610855565b61093e8387610866565b516020815191012061096d8261095e876000526000602052604060002090565b90600052602052604060002090565b54808203610998575050610993929161098861098e9261087a565b85610a44565b610819565b6108cb565b6040517fc442fd2b0000000000000000000000000000000000000000000000000000000081526004810184905260248101929092526044820152606490fd5b6040517f9fd6e11c0000000000000000000000000000000000000000000000000000000081526004810191909152602490fd5b5060118111610911565b60046040517fe4508b9f000000000000000000000000000000000000000000000000000000008152fd5b50509050565b6000818152806020526040812083825260205283604082205403610a69575b50505050565b7f7c57815e36323391c63e53a2fe2969599eb6dbcf52484a3bd8909aef4a6704d7918152806020526040812083825260205283604082205580a338808080610a63565b9080601f830112156101f357813590610ac761035a836105cb565b9182938184526020808095019260051b8201019283116101f3578301905b828210610af3575050505090565b81358152908301908301610ae5565b92919060005b8151811015610b3a5780610b34610b2160019385610866565b51610b2c8387610866565b519088610a44565b01610b08565b5050509050565b610b496100fc565b906000825260006020830152565b60006020610b636100fc565b82815201526020815191610b756100fc565b92835201602082015290565b906001820180921161082857565b9190820180921161082857565b610ba581610c65565b156101f357610bb381610ceb565b610bbf61035a826105cb565b81815291601f19610bcf836105cb565b0160005b818110610c4e575050610bf4602080920151610bee81610dd4565b90610b8f565b6000905b838210610c06575050505090565b610c4281610c16610c4893610d4d565b90610c1f6100fc565b8281528187820152610c31868a610866565b52610c3c8589610866565b50610b8f565b91610819565b90610bf8565b602090610c59610b41565b82828801015201610bd3565b805115610c8657602060c09101515160001a10610c8157600190565b600090565b50600090565b80518015159081610cdf575b50156101f3576020810190610cad8251610dd4565b915190828201809211610828575191820391821161082857519060208110610cd3575090565b6020036101000a900490565b60219150111538610c98565b805115610c865760009060208101908151610d0581610dd4565b8101809111610828579151905181018091116108285791905b828110610d2b5750905090565b610d3481610d4d565b810180911161082857610d479091610819565b90610d1e565b805160001a906080821015610d6457505060015b90565b60b8821015610d7f5750610d7a610d6191610898565b610b81565b9060c0811015610da35760b51991600160b783602003016101000a91015104010190565b9060f8821015610dba5750610d7a610d6191610889565b60010151602082900360f7016101000a90040160f5190190565b5160001a6080811015610de75750600090565b60b881108015610e1e575b15610dfd5750600190565b60c0811015610e1257610d7a610d61916108b6565b610d7a610d61916108a7565b5060c08110158015610df2575060f88110610df256fea2646970667358221220ca283ed9ff50b4d52fdc9b1bb2f3681376274dad35a97cdbd72f60c0c70171df64736f6c63430008140033",
  "devdoc": {
    "events": {
      "HashStored(uint256,bytes32)": {
        "details": "Emitted when a hash is stored.",
        "params": {
          "hash": "- The stored hash as bytes32 values.",
          "id": "- The ID of the stored hash."
        }
      }
    },
    "kind": "dev",
    "methods": {
      "getHash(uint256,uint256)": {
        "details": "Returns the hash for a given ID.",
        "params": {
          "domain": "- Identifier for the domain to query.",
          "id": "- Identifier for the ID to query."
        },
        "returns": {
          "_0": "Bytes32 hash for the given ID on the given domain."
        }
      },
      "owner()": {
        "details": "Returns the address of the current owner."
      },
      "proveAncestralBlockHashes(uint256,bytes[])": {
        "details": "Proves and stores valid ancestral block hashes for a given chain ID.",
        "params": {
          "blockHeaders": "- The RLP encoded block headers to prove the hashes for.",
          "chainId": "- The ID of the chain to prove block hashes for."
        }
      },
      "renounceOwnership()": {
        "details": "Leaves the contract without owner. It will not be possible to call `onlyOwner` functions anymore. Can only be called by the current owner. NOTE: Renouncing ownership will leave the contract without an owner, thereby removing any functionality that is only available to the owner."
      },
      "transferOwnership(address)": {
        "details": "Transfers ownership of the contract to a new account (`newOwner`). Can only be called by the current owner."
      }
    },
    "version": 1
  },
  "userdoc": {
    "kind": "user",
    "methods": {
      "getHash(uint256,uint256)": {
        "notice": "MUST return bytes32(0) if the hash is not present."
      },
      "proveAncestralBlockHashes(uint256,bytes[])": {
        "notice": "Block headers should be ordered by descending block number and should start with a known block header."
      }
    },
    "version": 1
  },
  "storageLayout": {
    "storage": [
      {
        "astId": 193,
        "contract": "contracts/adapeters/Hyperlane/HyperlaneAdapter.sol:HyperlaneAdapter",
        "label": "_hashes",
        "offset": 0,
        "slot": "0",
        "type": "t_mapping(t_uint256,t_mapping(t_uint256,t_bytes32))"
      },
      {
        "astId": 54,
        "contract": "contracts/adapeters/Hyperlane/HyperlaneAdapter.sol:HyperlaneAdapter",
        "label": "_owner",
        "offset": 0,
        "slot": "1",
        "type": "t_address"
      },
      {
        "astId": 454,
        "contract": "contracts/adapeters/Hyperlane/HyperlaneAdapter.sol:HyperlaneAdapter",
        "label": "enabledReporters",
        "offset": 0,
        "slot": "2",
        "type": "t_mapping(t_uint32,t_bytes32)"
      },
      {
        "astId": 458,
        "contract": "contracts/adapeters/Hyperlane/HyperlaneAdapter.sol:HyperlaneAdapter",
        "label": "chainIds",
        "offset": 0,
        "slot": "3",
        "type": "t_mapping(t_uint32,t_uint256)"
      }
    ],
    "types": {
      "t_address": {
        "encoding": "inplace",
        "label": "address",
        "numberOfBytes": "20"
      },
      "t_bytes32": {
        "encoding": "inplace",
        "label": "bytes32",
        "numberOfBytes": "32"
      },
      "t_mapping(t_uint256,t_bytes32)": {
        "encoding": "mapping",
        "key": "t_uint256",
        "label": "mapping(uint256 => bytes32)",
        "numberOfBytes": "32",
        "value": "t_bytes32"
      },
      "t_mapping(t_uint256,t_mapping(t_uint256,t_bytes32))": {
        "encoding": "mapping",
        "key": "t_uint256",
        "label": "mapping(uint256 => mapping(uint256 => bytes32))",
        "numberOfBytes": "32",
        "value": "t_mapping(t_uint256,t_bytes32)"
      },
      "t_mapping(t_uint32,t_bytes32)": {
        "encoding": "mapping",
        "key": "t_uint32",
        "label": "mapping(uint32 => bytes32)",
        "numberOfBytes": "32",
        "value": "t_bytes32"
      },
      "t_mapping(t_uint32,t_uint256)": {
        "encoding": "mapping",
        "key": "t_uint32",
        "label": "mapping(uint32 => uint256)",
        "numberOfBytes": "32",
        "value": "t_uint256"
      },
      "t_uint256": {
        "encoding": "inplace",
        "label": "uint256",
        "numberOfBytes": "32"
      },
      "t_uint32": {
        "encoding": "inplace",
        "label": "uint32",
        "numberOfBytes": "4"
      }
    }
  }
}