{
  "address": "0xD92444568f9676a6D6C6e632E1B00FD48CABabDb",
  "abi": [
    {
      "inputs": [
        {
          "internalType": "uint256",
          "name": "sourceChainId",
          "type": "uint256"
        },
        {
          "internalType": "uint256",
          "name": "commitmentsSlot",
          "type": "uint256"
        },
        {
          "internalType": "address",
          "name": "giriGiriBashi",
          "type": "address"
        }
      ],
      "stateMutability": "nonpayable",
      "type": "constructor"
    },
    {
      "inputs": [
        {
          "internalType": "bytes",
          "name": "accountRlp",
          "type": "bytes"
        }
      ],
      "name": "InvalidAccountRlp",
      "type": "error"
    },
    {
      "inputs": [],
      "name": "InvalidAccountStorageRoot",
      "type": "error"
    },
    {
      "inputs": [
        {
          "internalType": "bytes32",
          "name": "blockHeaderHash",
          "type": "bytes32"
        },
        {
          "internalType": "bytes32",
          "name": "expectedBlockHeaderHash",
          "type": "bytes32"
        }
      ],
      "name": "InvalidBlockHeader",
      "type": "error"
    },
    {
      "inputs": [
        {
          "internalType": "bytes32",
          "name": "latestCommitment",
          "type": "bytes32"
        },
        {
          "internalType": "bytes32",
          "name": "expectedLatestCommitment",
          "type": "bytes32"
        }
      ],
      "name": "InvalidLatestCommitment",
      "type": "error"
    },
    {
      "inputs": [
        {
          "internalType": "uint256",
          "name": "nonce",
          "type": "uint256"
        },
        {
          "internalType": "uint256",
          "name": "expectedNonce",
          "type": "uint256"
        }
      ],
      "name": "InvalidNonce",
      "type": "error"
    },
    {
      "inputs": [],
      "name": "ACCOUNT",
      "outputs": [
        {
          "internalType": "address",
          "name": "",
          "type": "address"
        }
      ],
      "stateMutability": "view",
      "type": "function"
    },
    {
      "inputs": [],
      "name": "COMMITMENTS_SLOT",
      "outputs": [
        {
          "internalType": "uint256",
          "name": "",
          "type": "uint256"
        }
      ],
      "stateMutability": "view",
      "type": "function"
    },
    {
      "inputs": [],
      "name": "GIRI_GIRI_BASHI",
      "outputs": [
        {
          "internalType": "address",
          "name": "",
          "type": "address"
        }
      ],
      "stateMutability": "view",
      "type": "function"
    },
    {
      "inputs": [],
      "name": "SOURCE_CHAIN_ID",
      "outputs": [
        {
          "internalType": "uint256",
          "name": "",
          "type": "uint256"
        }
      ],
      "stateMutability": "view",
      "type": "function"
    },
    {
      "inputs": [
        {
          "components": [
            {
              "internalType": "uint256",
              "name": "blockNumber",
              "type": "uint256"
            },
            {
              "internalType": "uint256",
              "name": "nonce",
              "type": "uint256"
            },
            {
              "internalType": "bytes",
              "name": "blockHeader",
              "type": "bytes"
            },
            {
              "internalType": "bytes32",
              "name": "storageRoot",
              "type": "bytes32"
            },
            {
              "internalType": "bytes",
              "name": "accountProof",
              "type": "bytes"
            },
            {
              "internalType": "bytes",
              "name": "storageProof",
              "type": "bytes"
            }
          ],
          "internalType": "struct Proof",
          "name": "proof",
          "type": "tuple"
        },
        {
          "internalType": "bytes",
          "name": "data",
          "type": "bytes"
        }
      ],
      "name": "_verifyProof",
      "outputs": [
        {
          "internalType": "bool",
          "name": "",
          "type": "bool"
        }
      ],
      "stateMutability": "nonpayable",
      "type": "function"
    },
    {
      "inputs": [],
      "name": "expectedNonce",
      "outputs": [
        {
          "internalType": "uint256",
          "name": "",
          "type": "uint256"
        }
      ],
      "stateMutability": "view",
      "type": "function"
    },
    {
      "inputs": [
        {
          "internalType": "address",
          "name": "account",
          "type": "address"
        }
      ],
      "name": "setAccount",
      "outputs": [],
      "stateMutability": "nonpayable",
      "type": "function"
    }
  ],
  "transactionHash": "0xf39e0789362613f176771f79d2dd7f141267a2eb6215723abac6e4cd3b09a9ef",
  "args": [
    11155111,
    "0x0",
    "0x2a1F5eB3e84e58e6F1e565306298B9dE1273f203"
  ],
  "numDeployments": 9,
  "solcInputHash": "ad45e00e8da49b1fac134c76a5a0e0ae",
  "bytecode": "0x60e03461009057601f61122438819003918201601f19168301916001600160401b0383118484101761009557808492606094604052833981010312610090578051602082015160409092015191906001600160a01b03831683036100905760805260a05260c05260405161117890816100ac823960805181610284015260a05181610249015260c051816102d40152f35b600080fd5b634e487b7160e01b600052604160045260246000fdfe6080604052600436101561001257600080fd5b6000803560e01c90816307b244581461008a5750806329f6d57c1461008557806332b55cbf1461008057806374be21501461007b578063cb7cf18114610076578063e90524f2146100715763ebe445fc1461006c57600080fd5b61032c565b6102f8565b6102a7565b61026c565b610231565b6101d1565b3461010a5760031960403682011261010d576004359167ffffffffffffffff9182841161010d5760c090843603011261010a5760243591821161010a573660238301121561010a576101066100f4846100eb36600487013560248801610195565b906004016103df565b60405190151581529081906020820190565b0390f35b80fd5b5080fd5b634e487b7160e01b600052604160045260246000fd5b6040810190811067ffffffffffffffff82111761014357604052565b610111565b90601f8019910116810190811067ffffffffffffffff82111761014357604052565b6040519061017782610127565b565b67ffffffffffffffff811161014357601f01601f191660200190565b9291926101a182610179565b916101af6040519384610148565b8294818452818301116101cc578281602093846000960137010152565b600080fd5b346101cc5760203660031901126101cc5760043573ffffffffffffffffffffffffffffffffffffffff81168091036101cc577fffffffffffffffffffffffff00000000000000000000000000000000000000006000541617600055600080f35b346101cc5760003660031901126101cc5760206040517f00000000000000000000000000000000000000000000000000000000000000008152f35b346101cc5760003660031901126101cc5760206040517f00000000000000000000000000000000000000000000000000000000000000008152f35b346101cc5760003660031901126101cc57602060405173ffffffffffffffffffffffffffffffffffffffff7f0000000000000000000000000000000000000000000000000000000000000000168152f35b346101cc5760003660031901126101cc57602073ffffffffffffffffffffffffffffffffffffffff60005416604051908152f35b346101cc5760003660031901126101cc576020600154604051908152f35b903590601e19813603018212156101cc570180359067ffffffffffffffff82116101cc576020019181360383136101cc57565b919082519283825260005b8481106103a9575050826000602080949584010152601f8019910116010190565b602081830181015184830182015201610388565b9392916103da90604092865260606020870152606086019061037d565b930152565b6104236104d061043961043361042e6104296103fe604088018861034a565b61041b61041160808b9a949a018b61034a565b9990923691610195565b973691610195565b95610d9b565b610dd9565b6105ad565b51610f02565b6104b96104ca61042961046160005473ffffffffffffffffffffffffffffffffffffffff1690565b956104c5604051978861048f6020820192836014916bffffffffffffffffffffffff199060601b1681520190565b03986104a3601f199a8b8101835282610148565b5190206040519586916020830160209181520190565b03888101865285610148565b610d9b565b9161075f565b6104e76104336104e261042984610d9b565b6105c2565b506104f461042982610d9b565b90600482510361055d575061053f9161052861051561043361054b946105c2565b61052260a087018761034a565b91610d42565b9460405193849160208084019701359046886103bd565b03908101835282610148565b5190200361055857600190565b600090565b610593906040519182917fffdec2a500000000000000000000000000000000000000000000000000000000835260048301610614565b0390fd5b634e487b7160e01b600052603260045260246000fd5b8051600310156105bd5760800190565b610597565b8051600210156105bd5760600190565b8051601010156105bd576102200190565b8051156105bd5760200190565b8051600110156105bd5760400190565b80518210156105bd5760209160051b010190565b90602061062592818152019061037d565b90565b6040519061063582610127565b60006020838281520152565b156101cc57565b6040516020810181811067ffffffffffffffff8211176101435760405260008152906000368137565b9061067b82610179565b6106886040519182610148565b8281528092610699601f1991610179565b0190602036910137565b634e487b7160e01b600052601160045260246000fd5b60001981146106c85760010190565b6106a3565b6000198101919082116106c857565b60bf198101919082116106c857565b607f198101919082116106c857565b60200390602082116106c857565b60f6198101919082116106c857565b60b6198101919082116106c857565b919082039182116106c857565b9081518110156105bd570160200190565b90600182018092116106c857565b919082018092116106c857565b9061076b606091610c1e565b906000928390610779610628565b50855115610a1e57916000959195925b8251841015610a1457831580806109fe575b6101cc5715806109e2575b6101cc576107bd6107b78585610600565b51610dd9565b968751600281146000146108c55750506107e76107e26107dc896105e3565b51610f44565b610ab0565b966107fd6107f6898984610cbb565b8092610752565b9751116108a6571561083557505061081590516106cd565b116101cc57511161082c576107dc610625916105f0565b50610625610648565b9092919561084387516106cd565b83146101cc578061086661086261085c610883946105f0565b51610eac565b1590565b1561088d5761087761087d916105f0565b51610ec8565b926106b9565b9290959195610789565b61089961087d916105f0565b5160208101519051902090565b505050915092506108b89150516106cd565b116101cc57610625610648565b6011909891949895929395146108e0575b50610883906106b9565b8551919796959493509085146109c05760ff61093761093161092b6109058989610733565b517fff000000000000000000000000000000000000000000000000000000000000001690565b60f81c90565b96610744565b95169060108210156101cc576109566109508383610600565b51610a93565b156109785750505050505061096b90516106cd565b036101cc57610625610648565b908161099361086261085c84610883969c98999a9b9c610600565b156109ad576109a59161087791610600565b925b906108d6565b6109ba9161089991610600565b926109a7565b9594925050506109d19150516106cd565b036101cc576107dc610625916105d2565b506109f66109f08585610600565b51610a58565b8714156107a6565b50610a0c6108998686610600565b82141561079b565b5095945050505050565b92505050610a5092507f56e81f171bcc55a6ff8345e692c0f86e5b48e01b996cadc001622fb5e363b421915014610641565b610625610648565b80516020811015610a70575060208101519051902090565b9060200151206040516020810191825260208152610a8d81610127565b51902090565b6001815103610aaa57602001515160001a60801490565b50600090565b908151156101cc57610ac1826105e3565b5160009060fc1c80610baf5750506002906000925b610b0083610aef8351610aea811515610641565b610beb565b610afb81831115610641565b610726565b91610b0a83610671565b94849360005b610b1a8288610752565b861015610b985790610b74610931610b1a93600f60f81b89600180821615600014610b7d5761092b610905610b5d93610b54931c8d610733565b60041c600f1690565b60f81b1660001a610b6e828d610733565b53610744565b95909150610b10565b61092b610905610b5d93610b92931c8d610733565b60ff1690565b929550509250610bab9150845114610c01565b9190565b60018103610bc4575050600190600092610ad6565b60028103610bd9575050600290600192610ad6565b60030361010a57506001908192610ad6565b908160011b91808304600214901517156106c857565b15610c0857565b634e487b7160e01b600052600160045260246000fd5b90610c2f8251610aea811515610641565b91610c3983610671565b9260009081925b818410610c565750506101779150835114610c01565b9091610c98610c9e91600f60f81b86600180821615600014610ca65761092b610905610c8793610b54931c89610733565b60f81b1660001a610b6e828a610733565b93610744565b929190610c40565b61092b610905610c8793610b92931c89610733565b919060005b8381018082116106c8578251811080610d38575b15610d3057610d07907fff0000000000000000000000000000000000000000000000000000000000000091829185610733565b511690610d148386610733565b511603610d2957610d24906106b9565b610cc0565b9250505090565b509250505090565b5083518210610cd4565b610625926104ca6104296104c5610d8d9560405160208101906000825260208152610d6c81610127565b5190209460405195602087015260208652610d8686610127565b3691610195565b805115610aaa576021015190565b610da3610628565b50602081519160405192610db684610127565b835201602082015290565b67ffffffffffffffff81116101435760051b60200190565b610de281610eac565b156101cc57610df081610f6e565b610df981610dc1565b91610e076040519384610148565b818352601f19610e1683610dc1565b0160005b818110610e95575050610e3b602080920151610e3581611056565b90610752565b6000905b838210610e4d575050505090565b610e8981610e5d610e8f93610fd0565b90610e6661016a565b8281528187820152610e78868a610600565b52610e838589610600565b50610752565b916106b9565b90610e3f565b602090610ea0610628565b82828801015201610e1a565b805115610aaa57602060c09101515160001a1061055857600190565b610ed190610ed6565b902090565b906020820191610ee68351611056565b9251908382018092116106c857519283039283116106c8579190565b80518015159081610f38575b50156101cc57610f1d90610ed6565b90519060208110610f2c575090565b6020036101000a900490565b60219150111538610f0e565b8051156101cc57610f5761062591610ed6565b610f6381939293610671565b9283602001906110c5565b805115610aaa5760009060208101908151610f8881611056565b81018091116106c8579151905181018091116106c85791905b828110610fae5750905090565b610fb781610fd0565b81018091116106c857610fca90916106b9565b90610fa1565b805160001a906080821015610fe6575050600190565b60b88210156110015750610ffc610625916106eb565b610744565b9060c08110156110255760b51991600160b783602003016101000a91015104010190565b9060f882101561103c5750610ffc610625916106dc565b60010151602082900360f7016101000a90040160f5190190565b5160001a60808110156110695750600090565b60b8811080156110a0575b1561107f5750600190565b60c081101561109457610ffc61062591610717565b610ffc61062591610708565b5060c08110158015611074575060f88110611074565b601f81116106c8576101000a90565b92909192831561113c5792915b60209384841061110757805182528481018091116106c8579381018091116106c85791601f1981019081116106c857916110d2565b919350918061111557505050565b61112961112461112e926106fa565b6110b6565b6106cd565b905182518216911916179052565b5091505056fea264697066735822122017932524ef2fadebde2f3158acf5862936f2bc55c8ae93cf983550cb1ad9189f64736f6c63430008140033",
  "devdoc": {
    "kind": "dev",
    "methods": {},
    "version": 1
  },
  "userdoc": {
    "kind": "user",
    "methods": {},
    "version": 1
  },
  "storageLayout": {
    "storage": [
      {
        "astId": 3961,
        "contract": "contracts/Prover.sol:Prover",
        "label": "ACCOUNT",
        "offset": 0,
        "slot": "0",
        "type": "t_address"
      },
      {
        "astId": 3965,
        "contract": "contracts/Prover.sol:Prover",
        "label": "expectedNonce",
        "offset": 0,
        "slot": "1",
        "type": "t_uint256"
      }
    ],
    "types": {
      "t_address": {
        "encoding": "inplace",
        "label": "address",
        "numberOfBytes": "20"
      },
      "t_uint256": {
        "encoding": "inplace",
        "label": "uint256",
        "numberOfBytes": "32"
      }
    }
  }
}